{
  "contractName": "CourseEnrollment",
  "abi": [
    {
      "inputs": [],
      "stateMutability": "nonpayable",
      "type": "constructor"
    },
    {
      "inputs": [
        {
          "internalType": "address",
          "name": "sender",
          "type": "address"
        },
        {
          "internalType": "uint256",
          "name": "tokenId",
          "type": "uint256"
        },
        {
          "internalType": "address",
          "name": "owner",
          "type": "address"
        }
      ],
      "name": "ERC721IncorrectOwner",
      "type": "error"
    },
    {
      "inputs": [
        {
          "internalType": "address",
          "name": "operator",
          "type": "address"
        },
        {
          "internalType": "uint256",
          "name": "tokenId",
          "type": "uint256"
        }
      ],
      "name": "ERC721InsufficientApproval",
      "type": "error"
    },
    {
      "inputs": [
        {
          "internalType": "address",
          "name": "approver",
          "type": "address"
        }
      ],
      "name": "ERC721InvalidApprover",
      "type": "error"
    },
    {
      "inputs": [
        {
          "internalType": "address",
          "name": "operator",
          "type": "address"
        }
      ],
      "name": "ERC721InvalidOperator",
      "type": "error"
    },
    {
      "inputs": [
        {
          "internalType": "address",
          "name": "owner",
          "type": "address"
        }
      ],
      "name": "ERC721InvalidOwner",
      "type": "error"
    },
    {
      "inputs": [
        {
          "internalType": "address",
          "name": "receiver",
          "type": "address"
        }
      ],
      "name": "ERC721InvalidReceiver",
      "type": "error"
    },
    {
      "inputs": [
        {
          "internalType": "address",
          "name": "sender",
          "type": "address"
        }
      ],
      "name": "ERC721InvalidSender",
      "type": "error"
    },
    {
      "inputs": [
        {
          "internalType": "uint256",
          "name": "tokenId",
          "type": "uint256"
        }
      ],
      "name": "ERC721NonexistentToken",
      "type": "error"
    },
    {
      "inputs": [
        {
          "internalType": "address",
          "name": "owner",
          "type": "address"
        }
      ],
      "name": "OwnableInvalidOwner",
      "type": "error"
    },
    {
      "inputs": [
        {
          "internalType": "address",
          "name": "account",
          "type": "address"
        }
      ],
      "name": "OwnableUnauthorizedAccount",
      "type": "error"
    },
    {
      "anonymous": false,
      "inputs": [
        {
          "indexed": true,
          "internalType": "address",
          "name": "owner",
          "type": "address"
        },
        {
          "indexed": true,
          "internalType": "address",
          "name": "approved",
          "type": "address"
        },
        {
          "indexed": true,
          "internalType": "uint256",
          "name": "tokenId",
          "type": "uint256"
        }
      ],
      "name": "Approval",
      "type": "event"
    },
    {
      "anonymous": false,
      "inputs": [
        {
          "indexed": true,
          "internalType": "address",
          "name": "owner",
          "type": "address"
        },
        {
          "indexed": true,
          "internalType": "address",
          "name": "operator",
          "type": "address"
        },
        {
          "indexed": false,
          "internalType": "bool",
          "name": "approved",
          "type": "bool"
        }
      ],
      "name": "ApprovalForAll",
      "type": "event"
    },
    {
      "anonymous": false,
      "inputs": [
        {
          "indexed": false,
          "internalType": "address",
          "name": "student",
          "type": "address"
        },
        {
          "indexed": false,
          "internalType": "uint256",
          "name": "tokenId",
          "type": "uint256"
        }
      ],
      "name": "CertificateIssued",
      "type": "event"
    },
    {
      "anonymous": false,
      "inputs": [
        {
          "indexed": false,
          "internalType": "uint256",
          "name": "courseId",
          "type": "uint256"
        },
        {
          "indexed": false,
          "internalType": "string",
          "name": "courseName",
          "type": "string"
        },
        {
          "indexed": false,
          "internalType": "uint256",
          "name": "price",
          "type": "uint256"
        },
        {
          "indexed": false,
          "internalType": "uint256",
          "name": "seats",
          "type": "uint256"
        }
      ],
      "name": "CourseCreated",
      "type": "event"
    },
    {
      "anonymous": false,
      "inputs": [
        {
          "indexed": true,
          "internalType": "address",
          "name": "previousOwner",
          "type": "address"
        },
        {
          "indexed": true,
          "internalType": "address",
          "name": "newOwner",
          "type": "address"
        }
      ],
      "name": "OwnershipTransferred",
      "type": "event"
    },
    {
      "anonymous": false,
      "inputs": [
        {
          "indexed": false,
          "internalType": "uint256",
          "name": "courseId",
          "type": "uint256"
        },
        {
          "indexed": false,
          "internalType": "address",
          "name": "student",
          "type": "address"
        }
      ],
      "name": "StudentEnrolled",
      "type": "event"
    },
    {
      "anonymous": false,
      "inputs": [
        {
          "indexed": true,
          "internalType": "address",
          "name": "from",
          "type": "address"
        },
        {
          "indexed": true,
          "internalType": "address",
          "name": "to",
          "type": "address"
        },
        {
          "indexed": true,
          "internalType": "uint256",
          "name": "tokenId",
          "type": "uint256"
        }
      ],
      "name": "Transfer",
      "type": "event"
    },
    {
      "inputs": [
        {
          "internalType": "address",
          "name": "to",
          "type": "address"
        },
        {
          "internalType": "uint256",
          "name": "tokenId",
          "type": "uint256"
        }
      ],
      "name": "approve",
      "outputs": [],
      "stateMutability": "nonpayable",
      "type": "function"
    },
    {
      "inputs": [
        {
          "internalType": "address",
          "name": "owner",
          "type": "address"
        }
      ],
      "name": "balanceOf",
      "outputs": [
        {
          "internalType": "uint256",
          "name": "",
          "type": "uint256"
        }
      ],
      "stateMutability": "view",
      "type": "function",
      "constant": true
    },
    {
      "inputs": [],
      "name": "certificateTokenId",
      "outputs": [
        {
          "internalType": "uint256",
          "name": "",
          "type": "uint256"
        }
      ],
      "stateMutability": "view",
      "type": "function",
      "constant": true
    },
    {
      "inputs": [],
      "name": "courseCount",
      "outputs": [
        {
          "internalType": "uint256",
          "name": "",
          "type": "uint256"
        }
      ],
      "stateMutability": "view",
      "type": "function",
      "constant": true
    },
    {
      "inputs": [
        {
          "internalType": "uint256",
          "name": "",
          "type": "uint256"
        }
      ],
      "name": "courses",
      "outputs": [
        {
          "internalType": "uint256",
          "name": "id",
          "type": "uint256"
        },
        {
          "internalType": "string",
          "name": "name",
          "type": "string"
        },
        {
          "internalType": "uint256",
          "name": "price",
          "type": "uint256"
        },
        {
          "internalType": "uint256",
          "name": "seats",
          "type": "uint256"
        },
        {
          "internalType": "bool",
          "name": "isActive",
          "type": "bool"
        }
      ],
      "stateMutability": "view",
      "type": "function",
      "constant": true
    },
    {
      "inputs": [
        {
          "internalType": "uint256",
          "name": "",
          "type": "uint256"
        },
        {
          "internalType": "address",
          "name": "",
          "type": "address"
        }
      ],
      "name": "enrolledStudents",
      "outputs": [
        {
          "internalType": "address",
          "name": "studentAddress",
          "type": "address"
        },
        {
          "internalType": "bool",
          "name": "isEnrolled",
          "type": "bool"
        },
        {
          "internalType": "bool",
          "name": "isCertified",
          "type": "bool"
        }
      ],
      "stateMutability": "view",
      "type": "function",
      "constant": true
    },
    {
      "inputs": [
        {
          "internalType": "uint256",
          "name": "tokenId",
          "type": "uint256"
        }
      ],
      "name": "getApproved",
      "outputs": [
        {
          "internalType": "address",
          "name": "",
          "type": "address"
        }
      ],
      "stateMutability": "view",
      "type": "function",
      "constant": true
    },
    {
      "inputs": [
        {
          "internalType": "address",
          "name": "owner",
          "type": "address"
        },
        {
          "internalType": "address",
          "name": "operator",
          "type": "address"
        }
      ],
      "name": "isApprovedForAll",
      "outputs": [
        {
          "internalType": "bool",
          "name": "",
          "type": "bool"
        }
      ],
      "stateMutability": "view",
      "type": "function",
      "constant": true
    },
    {
      "inputs": [],
      "name": "name",
      "outputs": [
        {
          "internalType": "string",
          "name": "",
          "type": "string"
        }
      ],
      "stateMutability": "view",
      "type": "function",
      "constant": true
    },
    {
      "inputs": [],
      "name": "owner",
      "outputs": [
        {
          "internalType": "address",
          "name": "",
          "type": "address"
        }
      ],
      "stateMutability": "view",
      "type": "function",
      "constant": true
    },
    {
      "inputs": [
        {
          "internalType": "uint256",
          "name": "tokenId",
          "type": "uint256"
        }
      ],
      "name": "ownerOf",
      "outputs": [
        {
          "internalType": "address",
          "name": "",
          "type": "address"
        }
      ],
      "stateMutability": "view",
      "type": "function",
      "constant": true
    },
    {
      "inputs": [],
      "name": "renounceOwnership",
      "outputs": [],
      "stateMutability": "nonpayable",
      "type": "function"
    },
    {
      "inputs": [
        {
          "internalType": "address",
          "name": "from",
          "type": "address"
        },
        {
          "internalType": "address",
          "name": "to",
          "type": "address"
        },
        {
          "internalType": "uint256",
          "name": "tokenId",
          "type": "uint256"
        }
      ],
      "name": "safeTransferFrom",
      "outputs": [],
      "stateMutability": "nonpayable",
      "type": "function"
    },
    {
      "inputs": [
        {
          "internalType": "address",
          "name": "from",
          "type": "address"
        },
        {
          "internalType": "address",
          "name": "to",
          "type": "address"
        },
        {
          "internalType": "uint256",
          "name": "tokenId",
          "type": "uint256"
        },
        {
          "internalType": "bytes",
          "name": "data",
          "type": "bytes"
        }
      ],
      "name": "safeTransferFrom",
      "outputs": [],
      "stateMutability": "nonpayable",
      "type": "function"
    },
    {
      "inputs": [
        {
          "internalType": "address",
          "name": "operator",
          "type": "address"
        },
        {
          "internalType": "bool",
          "name": "approved",
          "type": "bool"
        }
      ],
      "name": "setApprovalForAll",
      "outputs": [],
      "stateMutability": "nonpayable",
      "type": "function"
    },
    {
      "inputs": [
        {
          "internalType": "bytes4",
          "name": "interfaceId",
          "type": "bytes4"
        }
      ],
      "name": "supportsInterface",
      "outputs": [
        {
          "internalType": "bool",
          "name": "",
          "type": "bool"
        }
      ],
      "stateMutability": "view",
      "type": "function",
      "constant": true
    },
    {
      "inputs": [],
      "name": "symbol",
      "outputs": [
        {
          "internalType": "string",
          "name": "",
          "type": "string"
        }
      ],
      "stateMutability": "view",
      "type": "function",
      "constant": true
    },
    {
      "inputs": [
        {
          "internalType": "uint256",
          "name": "tokenId",
          "type": "uint256"
        }
      ],
      "name": "tokenURI",
      "outputs": [
        {
          "internalType": "string",
          "name": "",
          "type": "string"
        }
      ],
      "stateMutability": "view",
      "type": "function",
      "constant": true
    },
    {
      "inputs": [
        {
          "internalType": "address",
          "name": "from",
          "type": "address"
        },
        {
          "internalType": "address",
          "name": "to",
          "type": "address"
        },
        {
          "internalType": "uint256",
          "name": "tokenId",
          "type": "uint256"
        }
      ],
      "name": "transferFrom",
      "outputs": [],
      "stateMutability": "nonpayable",
      "type": "function"
    },
    {
      "inputs": [
        {
          "internalType": "address",
          "name": "newOwner",
          "type": "address"
        }
      ],
      "name": "transferOwnership",
      "outputs": [],
      "stateMutability": "nonpayable",
      "type": "function"
    },
    {
      "inputs": [
        {
          "internalType": "string",
          "name": "_name",
          "type": "string"
        },
        {
          "internalType": "uint256",
          "name": "_price",
          "type": "uint256"
        },
        {
          "internalType": "uint256",
          "name": "_seats",
          "type": "uint256"
        }
      ],
      "name": "createCourse",
      "outputs": [],
      "stateMutability": "nonpayable",
      "type": "function"
    },
    {
      "inputs": [
        {
          "internalType": "uint256",
          "name": "_courseId",
          "type": "uint256"
        }
      ],
      "name": "enroll",
      "outputs": [],
      "stateMutability": "payable",
      "type": "function",
      "payable": true
    },
    {
      "inputs": [
        {
          "internalType": "uint256",
          "name": "_courseId",
          "type": "uint256"
        },
        {
          "internalType": "address",
          "name": "_student",
          "type": "address"
        }
      ],
      "name": "issueCertificate",
      "outputs": [],
      "stateMutability": "nonpayable",
      "type": "function"
    },
    {
      "inputs": [],
      "name": "withdraw",
      "outputs": [],
      "stateMutability": "nonpayable",
      "type": "function"
    }
  ],
  "bytecode": "0x60806040525f60075534801562000014575f80fd5b50336040518060400160405280601181526020017f436f7572736543657274696669636174650000000000000000000000000000008152506040518060400160405280600581526020017f4343455254000000000000000000000000000000000000000000000000000000815250815f908162000092919062000459565b508060019081620000a4919062000459565b5050505f73ffffffffffffffffffffffffffffffffffffffff168173ffffffffffffffffffffffffffffffffffffffff16036200011a575f6040517f1e4fbdf700000000000000000000000000000000000000000000000000000000815260040162000111919062000580565b60405180910390fd5b6200012b816200013260201b60201c565b506200059b565b5f60065f9054906101000a900473ffffffffffffffffffffffffffffffffffffffff1690508160065f6101000a81548173ffffffffffffffffffffffffffffffffffffffff021916908373ffffffffffffffffffffffffffffffffffffffff1602179055508173ffffffffffffffffffffffffffffffffffffffff168173ffffffffffffffffffffffffffffffffffffffff167f8be0079c531659141344cd1fd0a4f28419497f9722a3daafe3b4186f6b6457e060405160405180910390a35050565b5f81519050919050565b7f4e487b71000000000000000000000000000000000000000000000000000000005f52604160045260245ffd5b7f4e487b71000000000000000000000000000000000000000000000000000000005f52602260045260245ffd5b5f60028204905060018216806200027157607f821691505b6020821081036200028757620002866200022c565b5b50919050565b5f819050815f5260205f209050919050565b5f6020601f8301049050919050565b5f82821b905092915050565b5f60088302620002eb7fffffffffffffffffffffffffffffffffffffffffffffffffffffffffffffffff82620002ae565b620002f78683620002ae565b95508019841693508086168417925050509392505050565b5f819050919050565b5f819050919050565b5f620003416200033b62000335846200030f565b62000318565b6200030f565b9050919050565b5f819050919050565b6200035c8362000321565b620003746200036b8262000348565b848454620002ba565b825550505050565b5f90565b6200038a6200037c565b6200039781848462000351565b505050565b5b81811015620003be57620003b25f8262000380565b6001810190506200039d565b5050565b601f8211156200040d57620003d7816200028d565b620003e2846200029f565b81016020851015620003f2578190505b6200040a62000401856200029f565b8301826200039c565b50505b505050565b5f82821c905092915050565b5f6200042f5f198460080262000412565b1980831691505092915050565b5f6200044983836200041e565b9150826002028217905092915050565b6200046482620001f5565b67ffffffffffffffff81111562000480576200047f620001ff565b5b6200048c825462000259565b62000499828285620003c2565b5f60209050601f831160018114620004cf575f8415620004ba578287015190505b620004c685826200043c565b86555062000535565b601f198416620004df866200028d565b5f5b828110156200050857848901518255600182019150602085019450602081019050620004e1565b8683101562000528578489015162000524601f8916826200041e565b8355505b6001600288020188555050505b505050505050565b5f73ffffffffffffffffffffffffffffffffffffffff82169050919050565b5f62000568826200053d565b9050919050565b6200057a816200055c565b82525050565b5f602082019050620005955f8301846200056f565b92915050565b6133a680620005a95f395ff3fe60806040526004361061014a575f3560e01c80638da5cb5b116100b5578063b88d4fde1161006e578063b88d4fde1461046c578063c87b56dd14610494578063e985e9c5146104d0578063eda6c2d71461050c578063f2fde38b1461054a578063f57d585b146105725761014a565b80638da5cb5b146103605780638fe8b3911461038a57806395d89b41146103b257806396f979d2146103dc578063a22cb4651461041c578063ae0ec5e4146104445761014a565b806342842e0e1161010757806342842e0e146102565780634b24691f1461027e5780636352211e146102a857806366055159146102e457806370a082311461030e578063715018a61461034a5761014a565b806301ffc9a71461014e57806306fdde031461018a578063081812fc146101b4578063095ea7b3146101f057806323b872dd146102185780633ccfd60b14610240575b5f80fd5b348015610159575f80fd5b50610174600480360381019061016f9190612352565b61058e565b6040516101819190612397565b60405180910390f35b348015610195575f80fd5b5061019e61066f565b6040516101ab919061243a565b60405180910390f35b3480156101bf575f80fd5b506101da60048036038101906101d5919061248d565b6106fe565b6040516101e791906124f7565b60405180910390f35b3480156101fb575f80fd5b506102166004803603810190610211919061253a565b610719565b005b348015610223575f80fd5b5061023e60048036038101906102399190612578565b61072f565b005b34801561024b575f80fd5b5061025461082e565b005b348015610261575f80fd5b5061027c60048036038101906102779190612578565b610883565b005b348015610289575f80fd5b506102926108a2565b60405161029f91906125d7565b60405180910390f35b3480156102b3575f80fd5b506102ce60048036038101906102c9919061248d565b6108a8565b6040516102db91906124f7565b60405180910390f35b3480156102ef575f80fd5b506102f86108b9565b60405161030591906125d7565b60405180910390f35b348015610319575f80fd5b50610334600480360381019061032f91906125f0565b6108bf565b60405161034191906125d7565b60405180910390f35b348015610355575f80fd5b5061035e610975565b005b34801561036b575f80fd5b50610374610988565b60405161038191906124f7565b60405180910390f35b348015610395575f80fd5b506103b060048036038101906103ab919061261b565b6109b0565b005b3480156103bd575f80fd5b506103c6610bbd565b6040516103d3919061243a565b60405180910390f35b3480156103e7575f80fd5b5061040260048036038101906103fd919061248d565b610c4d565b604051610413959493929190612659565b60405180910390f35b348015610427575f80fd5b50610442600480360381019061043d91906126db565b610d11565b005b34801561044f575f80fd5b5061046a60048036038101906104659190612845565b610d27565b005b348015610477575f80fd5b50610492600480360381019061048d919061294f565b610ea1565b005b34801561049f575f80fd5b506104ba60048036038101906104b5919061248d565b610ebe565b6040516104c7919061243a565b60405180910390f35b3480156104db575f80fd5b506104f660048036038101906104f191906129cf565b610f24565b6040516105039190612397565b60405180910390f35b348015610517575f80fd5b50610532600480360381019061052d919061261b565b610fb2565b60405161054193929190612a0d565b60405180910390f35b348015610555575f80fd5b50610570600480360381019061056b91906125f0565b61101a565b005b61058c6004803603810190610587919061248d565b61109e565b005b5f7f80ac58cd000000000000000000000000000000000000000000000000000000007bffffffffffffffffffffffffffffffffffffffffffffffffffffffff1916827bffffffffffffffffffffffffffffffffffffffffffffffffffffffff1916148061065857507f5b5e139f000000000000000000000000000000000000000000000000000000007bffffffffffffffffffffffffffffffffffffffffffffffffffffffff1916827bffffffffffffffffffffffffffffffffffffffffffffffffffffffff1916145b80610668575061066782611464565b5b9050919050565b60605f805461067d90612a6f565b80601f01602080910402602001604051908101604052809291908181526020018280546106a990612a6f565b80156106f45780601f106106cb576101008083540402835291602001916106f4565b820191905f5260205f20905b8154815290600101906020018083116106d757829003601f168201915b5050505050905090565b5f610708826114cd565b5061071282611553565b9050919050565b61072b828261072661158c565b611593565b5050565b5f73ffffffffffffffffffffffffffffffffffffffff168273ffffffffffffffffffffffffffffffffffffffff160361079f575f6040517f64a0ae9200000000000000000000000000000000000000000000000000000000815260040161079691906124f7565b60405180910390fd5b5f6107b283836107ad61158c565b6115a5565b90508373ffffffffffffffffffffffffffffffffffffffff168173ffffffffffffffffffffffffffffffffffffffff1614610828578382826040517f64283d7b00000000000000000000000000000000000000000000000000000000815260040161081f93929190612a9f565b60405180910390fd5b50505050565b6108366117b0565b61083e610988565b73ffffffffffffffffffffffffffffffffffffffff166108fc4790811502906040515f60405180830381858888f19350505050158015610880573d5f803e3d5ffd5b50565b61089d83838360405180602001604052805f815250610ea1565b505050565b60085481565b5f6108b2826114cd565b9050919050565b60075481565b5f8073ffffffffffffffffffffffffffffffffffffffff168273ffffffffffffffffffffffffffffffffffffffff1603610930575f6040517f89c62b6400000000000000000000000000000000000000000000000000000000815260040161092791906124f7565b60405180910390fd5b60035f8373ffffffffffffffffffffffffffffffffffffffff1673ffffffffffffffffffffffffffffffffffffffff1681526020019081526020015f20549050919050565b61097d6117b0565b6109865f611837565b565b5f60065f9054906101000a900473ffffffffffffffffffffffffffffffffffffffff16905090565b6109b86117b0565b600a5f8381526020019081526020015f205f8273ffffffffffffffffffffffffffffffffffffffff1673ffffffffffffffffffffffffffffffffffffffff1681526020019081526020015f205f0160149054906101000a900460ff16610a53576040517f08c379a0000000000000000000000000000000000000000000000000000000008152600401610a4a90612b1e565b60405180910390fd5b5f1515600a5f8481526020019081526020015f205f8373ffffffffffffffffffffffffffffffffffffffff1673ffffffffffffffffffffffffffffffffffffffff1681526020019081526020015f205f0160159054906101000a900460ff16151514610af4576040517f08c379a0000000000000000000000000000000000000000000000000000000008152600401610aeb90612b86565b60405180910390fd5b610b00816008546118fa565b6001600a5f8481526020019081526020015f205f8373ffffffffffffffffffffffffffffffffffffffff1673ffffffffffffffffffffffffffffffffffffffff1681526020019081526020015f205f0160156101000a81548160ff0219169083151502179055507ffec61b9ec0e29047dbeea981617649d79f187d172cfd492695a3d0bfee28883e81600854604051610b9a929190612ba4565b60405180910390a160085f815480929190610bb490612bf8565b91905055505050565b606060018054610bcc90612a6f565b80601f0160208091040260200160405190810160405280929190818152602001828054610bf890612a6f565b8015610c435780601f10610c1a57610100808354040283529160200191610c43565b820191905f5260205f20905b815481529060010190602001808311610c2657829003601f168201915b5050505050905090565b6009602052805f5260405f205f91509050805f015490806001018054610c7290612a6f565b80601f0160208091040260200160405190810160405280929190818152602001828054610c9e90612a6f565b8015610ce95780601f10610cc057610100808354040283529160200191610ce9565b820191905f5260205f20905b815481529060010190602001808311610ccc57829003601f168201915b505050505090806002015490806003015490806004015f9054906101000a900460ff16905085565b610d23610d1c61158c565b8383611917565b5050565b610d2f6117b0565b5f8211610d71576040517f08c379a0000000000000000000000000000000000000000000000000000000008152600401610d6890612caf565b60405180910390fd5b5f8111610db3576040517f08c379a0000000000000000000000000000000000000000000000000000000008152600401610daa90612d3d565b60405180910390fd5b6040518060a0016040528060075481526020018481526020018381526020018281526020016001151581525060095f60075481526020019081526020015f205f820151815f01556020820151816001019081610e0f9190612ef8565b5060408201518160020155606082015181600301556080820151816004015f6101000a81548160ff02191690831515021790555090505060075f815480929190610e5890612bf8565b91905055507f62a03295cf3254097619e4c525c459f4c5385f131ff770541e79b7e63ac9d3a1600754848484604051610e949493929190612fc7565b60405180910390a1505050565b610eac84848461072f565b610eb884848484611a80565b50505050565b6060610ec9826114cd565b505f610ed3611c32565b90505f815111610ef15760405180602001604052805f815250610f1c565b80610efb84611c48565b604051602001610f0c92919061304b565b6040516020818303038152906040525b915050919050565b5f60055f8473ffffffffffffffffffffffffffffffffffffffff1673ffffffffffffffffffffffffffffffffffffffff1681526020019081526020015f205f8373ffffffffffffffffffffffffffffffffffffffff1673ffffffffffffffffffffffffffffffffffffffff1681526020019081526020015f205f9054906101000a900460ff16905092915050565b600a602052815f5260405f20602052805f5260405f205f9150915050805f015f9054906101000a900473ffffffffffffffffffffffffffffffffffffffff1690805f0160149054906101000a900460ff1690805f0160159054906101000a900460ff16905083565b6110226117b0565b5f73ffffffffffffffffffffffffffffffffffffffff168173ffffffffffffffffffffffffffffffffffffffff1603611092575f6040517f1e4fbdf700000000000000000000000000000000000000000000000000000000815260040161108991906124f7565b60405180910390fd5b61109b81611837565b50565b5f60095f8381526020019081526020015f206040518060a00160405290815f82015481526020016001820180546110d490612a6f565b80601f016020809104026020016040519081016040528092919081815260200182805461110090612a6f565b801561114b5780601f106111225761010080835404028352916020019161114b565b820191905f5260205f20905b81548152906001019060200180831161112e57829003601f168201915b505050505081526020016002820154815260200160038201548152602001600482015f9054906101000a900460ff161515151581525050905080608001516111c8576040517f08c379a00000000000000000000000000000000000000000000000000000000081526004016111bf906130b8565b60405180910390fd5b8060400151341461120e576040517f08c379a000000000000000000000000000000000000000000000000000000000815260040161120590613120565b60405180910390fd5b5f1515600a5f8481526020019081526020015f205f3373ffffffffffffffffffffffffffffffffffffffff1673ffffffffffffffffffffffffffffffffffffffff1681526020019081526020015f205f0160149054906101000a900460ff161515146112af576040517f08c379a00000000000000000000000000000000000000000000000000000000081526004016112a690613188565b60405180910390fd5b5f8160600151116112f5576040517f08c379a00000000000000000000000000000000000000000000000000000000081526004016112ec906131f0565b60405180910390fd5b60405180606001604052803373ffffffffffffffffffffffffffffffffffffffff1681526020016001151581526020015f1515815250600a5f8481526020019081526020015f205f3373ffffffffffffffffffffffffffffffffffffffff1673ffffffffffffffffffffffffffffffffffffffff1681526020019081526020015f205f820151815f015f6101000a81548173ffffffffffffffffffffffffffffffffffffffff021916908373ffffffffffffffffffffffffffffffffffffffff1602179055506020820151815f0160146101000a81548160ff0219169083151502179055506040820151815f0160156101000a81548160ff021916908315150217905550905050600160095f8481526020019081526020015f206003015f828254611420919061320e565b925050819055507f0729bef4a0569fb1fa09db94121e32114ae18918357d5324c3dd31440b83149e8233604051611458929190613241565b60405180910390a15050565b5f7f01ffc9a7000000000000000000000000000000000000000000000000000000007bffffffffffffffffffffffffffffffffffffffffffffffffffffffff1916827bffffffffffffffffffffffffffffffffffffffffffffffffffffffff1916149050919050565b5f806114d883611d12565b90505f73ffffffffffffffffffffffffffffffffffffffff168173ffffffffffffffffffffffffffffffffffffffff160361154a57826040517f7e27328900000000000000000000000000000000000000000000000000000000815260040161154191906125d7565b60405180910390fd5b80915050919050565b5f60045f8381526020019081526020015f205f9054906101000a900473ffffffffffffffffffffffffffffffffffffffff169050919050565b5f33905090565b6115a08383836001611d4b565b505050565b5f806115b084611d12565b90505f73ffffffffffffffffffffffffffffffffffffffff168373ffffffffffffffffffffffffffffffffffffffff16146115f1576115f0818486611f0a565b5b5f73ffffffffffffffffffffffffffffffffffffffff168173ffffffffffffffffffffffffffffffffffffffff161461167c576116305f855f80611d4b565b600160035f8373ffffffffffffffffffffffffffffffffffffffff1673ffffffffffffffffffffffffffffffffffffffff1681526020019081526020015f205f82825403925050819055505b5f73ffffffffffffffffffffffffffffffffffffffff168573ffffffffffffffffffffffffffffffffffffffff16146116fb57600160035f8773ffffffffffffffffffffffffffffffffffffffff1673ffffffffffffffffffffffffffffffffffffffff1681526020019081526020015f205f82825401925050819055505b8460025f8681526020019081526020015f205f6101000a81548173ffffffffffffffffffffffffffffffffffffffff021916908373ffffffffffffffffffffffffffffffffffffffff160217905550838573ffffffffffffffffffffffffffffffffffffffff168273ffffffffffffffffffffffffffffffffffffffff167fddf252ad1be2c89b69c2b068fc378daa952ba7f163c4a11628f55a4df523b3ef60405160405180910390a4809150509392505050565b6117b861158c565b73ffffffffffffffffffffffffffffffffffffffff166117d6610988565b73ffffffffffffffffffffffffffffffffffffffff1614611835576117f961158c565b6040517f118cdaa700000000000000000000000000000000000000000000000000000000815260040161182c91906124f7565b60405180910390fd5b565b5f60065f9054906101000a900473ffffffffffffffffffffffffffffffffffffffff1690508160065f6101000a81548173ffffffffffffffffffffffffffffffffffffffff021916908373ffffffffffffffffffffffffffffffffffffffff1602179055508173ffffffffffffffffffffffffffffffffffffffff168173ffffffffffffffffffffffffffffffffffffffff167f8be0079c531659141344cd1fd0a4f28419497f9722a3daafe3b4186f6b6457e060405160405180910390a35050565b611913828260405180602001604052805f815250611fcd565b5050565b5f73ffffffffffffffffffffffffffffffffffffffff168273ffffffffffffffffffffffffffffffffffffffff160361198757816040517f5b08ba1800000000000000000000000000000000000000000000000000000000815260040161197e91906124f7565b60405180910390fd5b8060055f8573ffffffffffffffffffffffffffffffffffffffff1673ffffffffffffffffffffffffffffffffffffffff1681526020019081526020015f205f8473ffffffffffffffffffffffffffffffffffffffff1673ffffffffffffffffffffffffffffffffffffffff1681526020019081526020015f205f6101000a81548160ff0219169083151502179055508173ffffffffffffffffffffffffffffffffffffffff168373ffffffffffffffffffffffffffffffffffffffff167f17307eab39ab6107e8899845ad3d59bd9653f200f220920489ca2b5937696c3183604051611a739190612397565b60405180910390a3505050565b5f8373ffffffffffffffffffffffffffffffffffffffff163b1115611c2c578273ffffffffffffffffffffffffffffffffffffffff1663150b7a02611ac361158c565b8685856040518563ffffffff1660e01b8152600401611ae594939291906132ba565b6020604051808303815f875af1925050508015611b2057506040513d601f19601f82011682018060405250810190611b1d9190613318565b60015b611ba1573d805f8114611b4e576040519150601f19603f3d011682016040523d82523d5f602084013e611b53565b606091505b505f815103611b9957836040517f64a0ae92000000000000000000000000000000000000000000000000000000008152600401611b9091906124f7565b60405180910390fd5b805181602001fd5b63150b7a0260e01b7bffffffffffffffffffffffffffffffffffffffffffffffffffffffff1916817bffffffffffffffffffffffffffffffffffffffffffffffffffffffff191614611c2a57836040517f64a0ae92000000000000000000000000000000000000000000000000000000008152600401611c2191906124f7565b60405180910390fd5b505b50505050565b606060405180602001604052805f815250905090565b60605f6001611c5684611fe8565b0190505f8167ffffffffffffffff811115611c7457611c73612721565b5b6040519080825280601f01601f191660200182016040528015611ca65781602001600182028036833780820191505090505b5090505f82602001820190505b600115611d07578080600190039150507f3031323334353637383961626364656600000000000000000000000000000000600a86061a8153600a8581611cfc57611cfb613343565b5b0494505f8503611cb3575b819350505050919050565b5f60025f8381526020019081526020015f205f9054906101000a900473ffffffffffffffffffffffffffffffffffffffff169050919050565b8080611d8357505f73ffffffffffffffffffffffffffffffffffffffff168273ffffffffffffffffffffffffffffffffffffffff1614155b15611eb5575f611d92846114cd565b90505f73ffffffffffffffffffffffffffffffffffffffff168373ffffffffffffffffffffffffffffffffffffffff1614158015611dfc57508273ffffffffffffffffffffffffffffffffffffffff168173ffffffffffffffffffffffffffffffffffffffff1614155b8015611e0f5750611e0d8184610f24565b155b15611e5157826040517fa9fbf51f000000000000000000000000000000000000000000000000000000008152600401611e4891906124f7565b60405180910390fd5b8115611eb357838573ffffffffffffffffffffffffffffffffffffffff168273ffffffffffffffffffffffffffffffffffffffff167f8c5be1e5ebec7d5bd14f71427d1e84f3dd0314c0f7b2291e5b200ac8c7c3b92560405160405180910390a45b505b8360045f8581526020019081526020015f205f6101000a81548173ffffffffffffffffffffffffffffffffffffffff021916908373ffffffffffffffffffffffffffffffffffffffff16021790555050505050565b611f15838383612139565b611fc8575f73ffffffffffffffffffffffffffffffffffffffff168373ffffffffffffffffffffffffffffffffffffffff1603611f8957806040517f7e273289000000000000000000000000000000000000000000000000000000008152600401611f8091906125d7565b60405180910390fd5b81816040517f177e802f000000000000000000000000000000000000000000000000000000008152600401611fbf929190612ba4565b60405180910390fd5b505050565b611fd783836121f9565b611fe35f848484611a80565b505050565b5f805f90507a184f03e93ff9f4daa797ed6e38ed64bf6a1f0100000000000000008310612044577a184f03e93ff9f4daa797ed6e38ed64bf6a1f010000000000000000838161203a57612039613343565b5b0492506040810190505b6d04ee2d6d415b85acef81000000008310612081576d04ee2d6d415b85acef8100000000838161207757612076613343565b5b0492506020810190505b662386f26fc1000083106120b057662386f26fc1000083816120a6576120a5613343565b5b0492506010810190505b6305f5e10083106120d9576305f5e10083816120cf576120ce613343565b5b0492506008810190505b61271083106120fe5761271083816120f4576120f3613343565b5b0492506004810190505b60648310612121576064838161211757612116613343565b5b0492506002810190505b600a8310612130576001810190505b80915050919050565b5f8073ffffffffffffffffffffffffffffffffffffffff168373ffffffffffffffffffffffffffffffffffffffff16141580156121f057508273ffffffffffffffffffffffffffffffffffffffff168473ffffffffffffffffffffffffffffffffffffffff1614806121b157506121b08484610f24565b5b806121ef57508273ffffffffffffffffffffffffffffffffffffffff166121d783611553565b73ffffffffffffffffffffffffffffffffffffffff16145b5b90509392505050565b5f73ffffffffffffffffffffffffffffffffffffffff168273ffffffffffffffffffffffffffffffffffffffff1603612269575f6040517f64a0ae9200000000000000000000000000000000000000000000000000000000815260040161226091906124f7565b60405180910390fd5b5f61227583835f6115a5565b90505f73ffffffffffffffffffffffffffffffffffffffff168173ffffffffffffffffffffffffffffffffffffffff16146122e7575f6040517f73c6ac6e0000000000000000000000000000000000000000000000000000000081526004016122de91906124f7565b60405180910390fd5b505050565b5f604051905090565b5f80fd5b5f80fd5b5f7fffffffff0000000000000000000000000000000000000000000000000000000082169050919050565b612331816122fd565b811461233b575f80fd5b50565b5f8135905061234c81612328565b92915050565b5f60208284031215612367576123666122f5565b5b5f6123748482850161233e565b91505092915050565b5f8115159050919050565b6123918161237d565b82525050565b5f6020820190506123aa5f830184612388565b92915050565b5f81519050919050565b5f82825260208201905092915050565b5f5b838110156123e75780820151818401526020810190506123cc565b5f8484015250505050565b5f601f19601f8301169050919050565b5f61240c826123b0565b61241681856123ba565b93506124268185602086016123ca565b61242f816123f2565b840191505092915050565b5f6020820190508181035f8301526124528184612402565b905092915050565b5f819050919050565b61246c8161245a565b8114612476575f80fd5b50565b5f8135905061248781612463565b92915050565b5f602082840312156124a2576124a16122f5565b5b5f6124af84828501612479565b91505092915050565b5f73ffffffffffffffffffffffffffffffffffffffff82169050919050565b5f6124e1826124b8565b9050919050565b6124f1816124d7565b82525050565b5f60208201905061250a5f8301846124e8565b92915050565b612519816124d7565b8114612523575f80fd5b50565b5f8135905061253481612510565b92915050565b5f80604083850312156125505761254f6122f5565b5b5f61255d85828601612526565b925050602061256e85828601612479565b9150509250929050565b5f805f6060848603121561258f5761258e6122f5565b5b5f61259c86828701612526565b93505060206125ad86828701612526565b92505060406125be86828701612479565b9150509250925092565b6125d18161245a565b82525050565b5f6020820190506125ea5f8301846125c8565b92915050565b5f60208284031215612605576126046122f5565b5b5f61261284828501612526565b91505092915050565b5f8060408385031215612631576126306122f5565b5b5f61263e85828601612479565b925050602061264f85828601612526565b9150509250929050565b5f60a08201905061266c5f8301886125c8565b818103602083015261267e8187612402565b905061268d60408301866125c8565b61269a60608301856125c8565b6126a76080830184612388565b9695505050505050565b6126ba8161237d565b81146126c4575f80fd5b50565b5f813590506126d5816126b1565b92915050565b5f80604083850312156126f1576126f06122f5565b5b5f6126fe85828601612526565b925050602061270f858286016126c7565b9150509250929050565b5f80fd5b5f80fd5b7f4e487b71000000000000000000000000000000000000000000000000000000005f52604160045260245ffd5b612757826123f2565b810181811067ffffffffffffffff8211171561277657612775612721565b5b80604052505050565b5f6127886122ec565b9050612794828261274e565b919050565b5f67ffffffffffffffff8211156127b3576127b2612721565b5b6127bc826123f2565b9050602081019050919050565b828183375f83830152505050565b5f6127e96127e484612799565b61277f565b9050828152602081018484840111156128055761280461271d565b5b6128108482856127c9565b509392505050565b5f82601f83011261282c5761282b612719565b5b813561283c8482602086016127d7565b91505092915050565b5f805f6060848603121561285c5761285b6122f5565b5b5f84013567ffffffffffffffff811115612879576128786122f9565b5b61288586828701612818565b935050602061289686828701612479565b92505060406128a786828701612479565b9150509250925092565b5f67ffffffffffffffff8211156128cb576128ca612721565b5b6128d4826123f2565b9050602081019050919050565b5f6128f36128ee846128b1565b61277f565b90508281526020810184848401111561290f5761290e61271d565b5b61291a8482856127c9565b509392505050565b5f82601f83011261293657612935612719565b5b81356129468482602086016128e1565b91505092915050565b5f805f8060808587031215612967576129666122f5565b5b5f61297487828801612526565b945050602061298587828801612526565b935050604061299687828801612479565b925050606085013567ffffffffffffffff8111156129b7576129b66122f9565b5b6129c387828801612922565b91505092959194509250565b5f80604083850312156129e5576129e46122f5565b5b5f6129f285828601612526565b9250506020612a0385828601612526565b9150509250929050565b5f606082019050612a205f8301866124e8565b612a2d6020830185612388565b612a3a6040830184612388565b949350505050565b7f4e487b71000000000000000000000000000000000000000000000000000000005f52602260045260245ffd5b5f6002820490506001821680612a8657607f821691505b602082108103612a9957612a98612a42565b5b50919050565b5f606082019050612ab25f8301866124e8565b612abf60208301856125c8565b612acc60408301846124e8565b949350505050565b7f456c20657374756469616e7465206e6f206573746120696e73637269746f2e005f82015250565b5f612b08601f836123ba565b9150612b1382612ad4565b602082019050919050565b5f6020820190508181035f830152612b3581612afc565b9050919050565b7f436572746966696361646f20796120656d697469646f2e0000000000000000005f82015250565b5f612b706017836123ba565b9150612b7b82612b3c565b602082019050919050565b5f6020820190508181035f830152612b9d81612b64565b9050919050565b5f604082019050612bb75f8301856124e8565b612bc460208301846125c8565b9392505050565b7f4e487b71000000000000000000000000000000000000000000000000000000005f52601160045260245ffd5b5f612c028261245a565b91507fffffffffffffffffffffffffffffffffffffffffffffffffffffffffffffffff8203612c3457612c33612bcb565b5b600182019050919050565b7f456c2070726563696f206465626520736572206d61796f7220717565206365725f8201527f6f00000000000000000000000000000000000000000000000000000000000000602082015250565b5f612c996021836123ba565b9150612ca482612c3f565b604082019050919050565b5f6020820190508181035f830152612cc681612c8d565b9050919050565b7f456c206e756d65726f20646520617369656e746f73206465626520736572206d5f8201527f61796f7220717565206365726f00000000000000000000000000000000000000602082015250565b5f612d27602d836123ba565b9150612d3282612ccd565b604082019050919050565b5f6020820190508181035f830152612d5481612d1b565b9050919050565b5f819050815f5260205f209050919050565b5f6020601f8301049050919050565b5f82821b905092915050565b5f60088302612db77fffffffffffffffffffffffffffffffffffffffffffffffffffffffffffffffff82612d7c565b612dc18683612d7c565b95508019841693508086168417925050509392505050565b5f819050919050565b5f612dfc612df7612df28461245a565b612dd9565b61245a565b9050919050565b5f819050919050565b612e1583612de2565b612e29612e2182612e03565b848454612d88565b825550505050565b5f90565b612e3d612e31565b612e48818484612e0c565b505050565b5b81811015612e6b57612e605f82612e35565b600181019050612e4e565b5050565b601f821115612eb057612e8181612d5b565b612e8a84612d6d565b81016020851015612e99578190505b612ead612ea585612d6d565b830182612e4d565b50505b505050565b5f82821c905092915050565b5f612ed05f1984600802612eb5565b1980831691505092915050565b5f612ee88383612ec1565b9150826002028217905092915050565b612f01826123b0565b67ffffffffffffffff811115612f1a57612f19612721565b5b612f248254612a6f565b612f2f828285612e6f565b5f60209050601f831160018114612f60575f8415612f4e578287015190505b612f588582612edd565b865550612fbf565b601f198416612f6e86612d5b565b5f5b82811015612f9557848901518255600182019150602085019450602081019050612f70565b86831015612fb25784890151612fae601f891682612ec1565b8355505b6001600288020188555050505b505050505050565b5f608082019050612fda5f8301876125c8565b8181036020830152612fec8186612402565b9050612ffb60408301856125c8565b61300860608301846125c8565b95945050505050565b5f81905092915050565b5f613025826123b0565b61302f8185613011565b935061303f8185602086016123ca565b80840191505092915050565b5f613056828561301b565b9150613062828461301b565b91508190509392505050565b7f456c20637572736f206e6f20657374612061637469766f2e00000000000000005f82015250565b5f6130a26018836123ba565b91506130ad8261306e565b602082019050919050565b5f6020820190508181035f8301526130cf81613096565b9050919050565b7f5061676f20696e636f72726563746f2e000000000000000000000000000000005f82015250565b5f61310a6010836123ba565b9150613115826130d6565b602082019050919050565b5f6020820190508181035f830152613137816130fe565b9050919050565b7f5961206573746120696e73637269746f2e0000000000000000000000000000005f82015250565b5f6131726011836123ba565b915061317d8261313e565b602082019050919050565b5f6020820190508181035f83015261319f81613166565b9050919050565b7f4e6f20686179206375706f7320646973706f6e69626c65732e000000000000005f82015250565b5f6131da6019836123ba565b91506131e5826131a6565b602082019050919050565b5f6020820190508181035f830152613207816131ce565b9050919050565b5f6132188261245a565b91506132238361245a565b925082820390508181111561323b5761323a612bcb565b5b92915050565b5f6040820190506132545f8301856125c8565b61326160208301846124e8565b9392505050565b5f81519050919050565b5f82825260208201905092915050565b5f61328c82613268565b6132968185613272565b93506132a68185602086016123ca565b6132af816123f2565b840191505092915050565b5f6080820190506132cd5f8301876124e8565b6132da60208301866124e8565b6132e760408301856125c8565b81810360608301526132f98184613282565b905095945050505050565b5f8151905061331281612328565b92915050565b5f6020828403121561332d5761332c6122f5565b5b5f61333a84828501613304565b91505092915050565b7f4e487b71000000000000000000000000000000000000000000000000000000005f52601260045260245ffdfea2646970667358221220fa1ddd85512a1e65a42ca579952dc9d46e2e2acbf59b62e08e82769dd168191a64736f6c63430008150033",
  "immutableReferences": {},
  "source": "// SPDX-License-Identifier: MIT\npragma solidity ^0.8.21;\n\nimport \"@openzeppelin/contracts/token/ERC721/ERC721.sol\";\nimport \"@openzeppelin/contracts/access/Ownable.sol\";\n\ncontract CourseEnrollment is ERC721, Ownable{\n    struct Course {\n        uint id;\n        string name;\n        uint price;\n        uint seats;\n        bool isActive;\n    }\n\n    struct Student {\n        address studentAddress;\n        bool isEnrolled;\n        bool isCertified;\n    }\n\n    uint public courseCount = 0;\n    uint public certificateTokenId;\n\n    mapping(uint => Course) public courses;\n    mapping(uint => mapping(address => Student)) public enrolledStudents;\n\n    event CourseCreated(uint courseId, string courseName, uint price, uint seats);\n    event StudentEnrolled(uint courseId, address student);\n    event CertificateIssued(address student, uint tokenId);\n\n    constructor() ERC721(\"CourseCertificate\", \"CCERT\") Ownable(msg.sender){}\n\n\n    // Crear un nuevo curso\n    function createCourse(string memory _name, uint _price, uint _seats) public onlyOwner {\n        require(_price > 0, \"El precio debe ser mayor que cero\");\n        require(_seats > 0, \"El numero de asientos debe ser mayor que cero\");\n        courses[courseCount] = Course(courseCount, _name, _price, _seats, true);\n        courseCount++;\n        emit CourseCreated(courseCount, _name, _price, _seats);\n    }\n\n    // Inscripcin de estudiantes\n    function enroll(uint _courseId) public payable {\n        Course memory course = courses[_courseId];\n        require(course.isActive, \"El curso no esta activo.\");\n        require(msg.value == course.price, \"Pago incorrecto.\");\n        require(enrolledStudents[_courseId][msg.sender].isEnrolled == false, \"Ya esta inscrito.\");\n        require(course.seats > 0, \"No hay cupos disponibles.\");\n\n        enrolledStudents[_courseId][msg.sender] = Student(msg.sender, true, false);\n        courses[_courseId].seats -= 1;\n\n        emit StudentEnrolled(_courseId, msg.sender);\n    }\n\n    // Emitir certificado al completar el curso\n    function issueCertificate(uint _courseId, address _student) public onlyOwner {\n        require(enrolledStudents[_courseId][_student].isEnrolled, \"El estudiante no esta inscrito.\");\n        require(enrolledStudents[_courseId][_student].isCertified == false, \"Certificado ya emitido.\");\n\n        // Emitir el NFT como certificado\n        _safeMint(_student, certificateTokenId);\n        enrolledStudents[_courseId][_student].isCertified = true;\n\n        emit CertificateIssued(_student, certificateTokenId);\n        certificateTokenId++;\n    }\n\n    // Retirar fondos del contrato (solo el propietario)\n    function withdraw() public onlyOwner {\n        payable(owner()).transfer(address(this).balance);\n    }\n}",
  "sourcePath": "/home/hackaton/Desktop/Hackaton/hackaton-api/contracts/CourseEnrollment.sol",
  "compiler": {
    "name": "solc",
    "version": "0.8.21+commit.d9974bed.Emscripten.clang"
  },
  "schemaVersion": "3.4.16",
  "updatedAt": "2024-09-07T20:52:59.432Z",
  "networkType": "ethereum",
  "devdoc": {
    "errors": {
      "ERC721IncorrectOwner(address,uint256,address)": [
        {
          "details": "Indicates an error related to the ownership over a particular token. Used in transfers.",
          "params": {
            "owner": "Address of the current owner of a token.",
            "sender": "Address whose tokens are being transferred.",
            "tokenId": "Identifier number of a token."
          }
        }
      ],
      "ERC721InsufficientApproval(address,uint256)": [
        {
          "details": "Indicates a failure with the `operator`s approval. Used in transfers.",
          "params": {
            "operator": "Address that may be allowed to operate on tokens without being their owner.",
            "tokenId": "Identifier number of a token."
          }
        }
      ],
      "ERC721InvalidApprover(address)": [
        {
          "details": "Indicates a failure with the `approver` of a token to be approved. Used in approvals.",
          "params": {
            "approver": "Address initiating an approval operation."
          }
        }
      ],
      "ERC721InvalidOperator(address)": [
        {
          "details": "Indicates a failure with the `operator` to be approved. Used in approvals.",
          "params": {
            "operator": "Address that may be allowed to operate on tokens without being their owner."
          }
        }
      ],
      "ERC721InvalidOwner(address)": [
        {
          "details": "Indicates that an address can't be an owner. For example, `address(0)` is a forbidden owner in EIP-20. Used in balance queries.",
          "params": {
            "owner": "Address of the current owner of a token."
          }
        }
      ],
      "ERC721InvalidReceiver(address)": [
        {
          "details": "Indicates a failure with the token `receiver`. Used in transfers.",
          "params": {
            "receiver": "Address to which tokens are being transferred."
          }
        }
      ],
      "ERC721InvalidSender(address)": [
        {
          "details": "Indicates a failure with the token `sender`. Used in transfers.",
          "params": {
            "sender": "Address whose tokens are being transferred."
          }
        }
      ],
      "ERC721NonexistentToken(uint256)": [
        {
          "details": "Indicates a `tokenId` whose `owner` is the zero address.",
          "params": {
            "tokenId": "Identifier number of a token."
          }
        }
      ],
      "OwnableInvalidOwner(address)": [
        {
          "details": "The owner is not a valid owner account. (eg. `address(0)`)"
        }
      ],
      "OwnableUnauthorizedAccount(address)": [
        {
          "details": "The caller account is not authorized to perform an operation."
        }
      ]
    },
    "events": {
      "Approval(address,address,uint256)": {
        "details": "Emitted when `owner` enables `approved` to manage the `tokenId` token."
      },
      "ApprovalForAll(address,address,bool)": {
        "details": "Emitted when `owner` enables or disables (`approved`) `operator` to manage all of its assets."
      },
      "Transfer(address,address,uint256)": {
        "details": "Emitted when `tokenId` token is transferred from `from` to `to`."
      }
    },
    "kind": "dev",
    "methods": {
      "approve(address,uint256)": {
        "details": "See {IERC721-approve}."
      },
      "balanceOf(address)": {
        "details": "See {IERC721-balanceOf}."
      },
      "getApproved(uint256)": {
        "details": "See {IERC721-getApproved}."
      },
      "isApprovedForAll(address,address)": {
        "details": "See {IERC721-isApprovedForAll}."
      },
      "name()": {
        "details": "See {IERC721Metadata-name}."
      },
      "owner()": {
        "details": "Returns the address of the current owner."
      },
      "ownerOf(uint256)": {
        "details": "See {IERC721-ownerOf}."
      },
      "renounceOwnership()": {
        "details": "Leaves the contract without owner. It will not be possible to call `onlyOwner` functions. Can only be called by the current owner. NOTE: Renouncing ownership will leave the contract without an owner, thereby disabling any functionality that is only available to the owner."
      },
      "safeTransferFrom(address,address,uint256)": {
        "details": "See {IERC721-safeTransferFrom}."
      },
      "safeTransferFrom(address,address,uint256,bytes)": {
        "details": "See {IERC721-safeTransferFrom}."
      },
      "setApprovalForAll(address,bool)": {
        "details": "See {IERC721-setApprovalForAll}."
      },
      "supportsInterface(bytes4)": {
        "details": "See {IERC165-supportsInterface}."
      },
      "symbol()": {
        "details": "See {IERC721Metadata-symbol}."
      },
      "tokenURI(uint256)": {
        "details": "See {IERC721Metadata-tokenURI}."
      },
      "transferFrom(address,address,uint256)": {
        "details": "See {IERC721-transferFrom}."
      },
      "transferOwnership(address)": {
        "details": "Transfers ownership of the contract to a new account (`newOwner`). Can only be called by the current owner."
      }
    },
    "version": 1
  },
  "userdoc": {
    "kind": "user",
    "methods": {},
    "version": 1
  }
}