{
  "contractName": "CourseEnrollment",
  "abi": [
    {
      "inputs": [
        {
          "internalType": "address",
          "name": "initialOwner",
          "type": "address"
        }
      ],
      "stateMutability": "nonpayable",
      "type": "constructor"
    },
    {
      "inputs": [
        {
          "internalType": "address",
          "name": "sender",
          "type": "address"
        },
        {
          "internalType": "uint256",
          "name": "tokenId",
          "type": "uint256"
        },
        {
          "internalType": "address",
          "name": "owner",
          "type": "address"
        }
      ],
      "name": "ERC721IncorrectOwner",
      "type": "error"
    },
    {
      "inputs": [
        {
          "internalType": "address",
          "name": "operator",
          "type": "address"
        },
        {
          "internalType": "uint256",
          "name": "tokenId",
          "type": "uint256"
        }
      ],
      "name": "ERC721InsufficientApproval",
      "type": "error"
    },
    {
      "inputs": [
        {
          "internalType": "address",
          "name": "approver",
          "type": "address"
        }
      ],
      "name": "ERC721InvalidApprover",
      "type": "error"
    },
    {
      "inputs": [
        {
          "internalType": "address",
          "name": "operator",
          "type": "address"
        }
      ],
      "name": "ERC721InvalidOperator",
      "type": "error"
    },
    {
      "inputs": [
        {
          "internalType": "address",
          "name": "owner",
          "type": "address"
        }
      ],
      "name": "ERC721InvalidOwner",
      "type": "error"
    },
    {
      "inputs": [
        {
          "internalType": "address",
          "name": "receiver",
          "type": "address"
        }
      ],
      "name": "ERC721InvalidReceiver",
      "type": "error"
    },
    {
      "inputs": [
        {
          "internalType": "address",
          "name": "sender",
          "type": "address"
        }
      ],
      "name": "ERC721InvalidSender",
      "type": "error"
    },
    {
      "inputs": [
        {
          "internalType": "uint256",
          "name": "tokenId",
          "type": "uint256"
        }
      ],
      "name": "ERC721NonexistentToken",
      "type": "error"
    },
    {
      "inputs": [
        {
          "internalType": "address",
          "name": "owner",
          "type": "address"
        }
      ],
      "name": "OwnableInvalidOwner",
      "type": "error"
    },
    {
      "inputs": [
        {
          "internalType": "address",
          "name": "account",
          "type": "address"
        }
      ],
      "name": "OwnableUnauthorizedAccount",
      "type": "error"
    },
    {
      "anonymous": false,
      "inputs": [
        {
          "indexed": true,
          "internalType": "address",
          "name": "owner",
          "type": "address"
        },
        {
          "indexed": true,
          "internalType": "address",
          "name": "approved",
          "type": "address"
        },
        {
          "indexed": true,
          "internalType": "uint256",
          "name": "tokenId",
          "type": "uint256"
        }
      ],
      "name": "Approval",
      "type": "event"
    },
    {
      "anonymous": false,
      "inputs": [
        {
          "indexed": true,
          "internalType": "address",
          "name": "owner",
          "type": "address"
        },
        {
          "indexed": true,
          "internalType": "address",
          "name": "operator",
          "type": "address"
        },
        {
          "indexed": false,
          "internalType": "bool",
          "name": "approved",
          "type": "bool"
        }
      ],
      "name": "ApprovalForAll",
      "type": "event"
    },
    {
      "anonymous": false,
      "inputs": [
        {
          "indexed": false,
          "internalType": "address",
          "name": "student",
          "type": "address"
        },
        {
          "indexed": false,
          "internalType": "uint256",
          "name": "tokenId",
          "type": "uint256"
        }
      ],
      "name": "CertificateIssued",
      "type": "event"
    },
    {
      "anonymous": false,
      "inputs": [
        {
          "indexed": false,
          "internalType": "uint256",
          "name": "courseId",
          "type": "uint256"
        },
        {
          "indexed": false,
          "internalType": "string",
          "name": "courseName",
          "type": "string"
        },
        {
          "indexed": false,
          "internalType": "uint256",
          "name": "price",
          "type": "uint256"
        },
        {
          "indexed": false,
          "internalType": "uint256",
          "name": "seats",
          "type": "uint256"
        }
      ],
      "name": "CourseCreated",
      "type": "event"
    },
    {
      "anonymous": false,
      "inputs": [
        {
          "indexed": true,
          "internalType": "address",
          "name": "previousOwner",
          "type": "address"
        },
        {
          "indexed": true,
          "internalType": "address",
          "name": "newOwner",
          "type": "address"
        }
      ],
      "name": "OwnershipTransferred",
      "type": "event"
    },
    {
      "anonymous": false,
      "inputs": [
        {
          "indexed": false,
          "internalType": "uint256",
          "name": "courseId",
          "type": "uint256"
        },
        {
          "indexed": false,
          "internalType": "address",
          "name": "student",
          "type": "address"
        }
      ],
      "name": "StudentEnrolled",
      "type": "event"
    },
    {
      "anonymous": false,
      "inputs": [
        {
          "indexed": true,
          "internalType": "address",
          "name": "from",
          "type": "address"
        },
        {
          "indexed": true,
          "internalType": "address",
          "name": "to",
          "type": "address"
        },
        {
          "indexed": true,
          "internalType": "uint256",
          "name": "tokenId",
          "type": "uint256"
        }
      ],
      "name": "Transfer",
      "type": "event"
    },
    {
      "inputs": [
        {
          "internalType": "address",
          "name": "to",
          "type": "address"
        },
        {
          "internalType": "uint256",
          "name": "tokenId",
          "type": "uint256"
        }
      ],
      "name": "approve",
      "outputs": [],
      "stateMutability": "nonpayable",
      "type": "function"
    },
    {
      "inputs": [
        {
          "internalType": "address",
          "name": "owner",
          "type": "address"
        }
      ],
      "name": "balanceOf",
      "outputs": [
        {
          "internalType": "uint256",
          "name": "",
          "type": "uint256"
        }
      ],
      "stateMutability": "view",
      "type": "function",
      "constant": true
    },
    {
      "inputs": [],
      "name": "certificateTokenId",
      "outputs": [
        {
          "internalType": "uint256",
          "name": "",
          "type": "uint256"
        }
      ],
      "stateMutability": "view",
      "type": "function",
      "constant": true
    },
    {
      "inputs": [],
      "name": "courseCount",
      "outputs": [
        {
          "internalType": "uint256",
          "name": "",
          "type": "uint256"
        }
      ],
      "stateMutability": "view",
      "type": "function",
      "constant": true
    },
    {
      "inputs": [
        {
          "internalType": "uint256",
          "name": "",
          "type": "uint256"
        }
      ],
      "name": "courses",
      "outputs": [
        {
          "internalType": "uint256",
          "name": "id",
          "type": "uint256"
        },
        {
          "internalType": "string",
          "name": "name",
          "type": "string"
        },
        {
          "internalType": "uint256",
          "name": "price",
          "type": "uint256"
        },
        {
          "internalType": "uint256",
          "name": "seats",
          "type": "uint256"
        },
        {
          "internalType": "bool",
          "name": "isActive",
          "type": "bool"
        }
      ],
      "stateMutability": "view",
      "type": "function",
      "constant": true
    },
    {
      "inputs": [
        {
          "internalType": "uint256",
          "name": "",
          "type": "uint256"
        },
        {
          "internalType": "address",
          "name": "",
          "type": "address"
        }
      ],
      "name": "enrolledStudents",
      "outputs": [
        {
          "internalType": "address",
          "name": "studentAddress",
          "type": "address"
        },
        {
          "internalType": "bool",
          "name": "isEnrolled",
          "type": "bool"
        },
        {
          "internalType": "bool",
          "name": "isCertified",
          "type": "bool"
        }
      ],
      "stateMutability": "view",
      "type": "function",
      "constant": true
    },
    {
      "inputs": [
        {
          "internalType": "uint256",
          "name": "tokenId",
          "type": "uint256"
        }
      ],
      "name": "getApproved",
      "outputs": [
        {
          "internalType": "address",
          "name": "",
          "type": "address"
        }
      ],
      "stateMutability": "view",
      "type": "function",
      "constant": true
    },
    {
      "inputs": [
        {
          "internalType": "address",
          "name": "owner",
          "type": "address"
        },
        {
          "internalType": "address",
          "name": "operator",
          "type": "address"
        }
      ],
      "name": "isApprovedForAll",
      "outputs": [
        {
          "internalType": "bool",
          "name": "",
          "type": "bool"
        }
      ],
      "stateMutability": "view",
      "type": "function",
      "constant": true
    },
    {
      "inputs": [],
      "name": "name",
      "outputs": [
        {
          "internalType": "string",
          "name": "",
          "type": "string"
        }
      ],
      "stateMutability": "view",
      "type": "function",
      "constant": true
    },
    {
      "inputs": [],
      "name": "owner",
      "outputs": [
        {
          "internalType": "address",
          "name": "",
          "type": "address"
        }
      ],
      "stateMutability": "view",
      "type": "function",
      "constant": true
    },
    {
      "inputs": [
        {
          "internalType": "uint256",
          "name": "tokenId",
          "type": "uint256"
        }
      ],
      "name": "ownerOf",
      "outputs": [
        {
          "internalType": "address",
          "name": "",
          "type": "address"
        }
      ],
      "stateMutability": "view",
      "type": "function",
      "constant": true
    },
    {
      "inputs": [],
      "name": "renounceOwnership",
      "outputs": [],
      "stateMutability": "nonpayable",
      "type": "function"
    },
    {
      "inputs": [
        {
          "internalType": "address",
          "name": "from",
          "type": "address"
        },
        {
          "internalType": "address",
          "name": "to",
          "type": "address"
        },
        {
          "internalType": "uint256",
          "name": "tokenId",
          "type": "uint256"
        }
      ],
      "name": "safeTransferFrom",
      "outputs": [],
      "stateMutability": "nonpayable",
      "type": "function"
    },
    {
      "inputs": [
        {
          "internalType": "address",
          "name": "from",
          "type": "address"
        },
        {
          "internalType": "address",
          "name": "to",
          "type": "address"
        },
        {
          "internalType": "uint256",
          "name": "tokenId",
          "type": "uint256"
        },
        {
          "internalType": "bytes",
          "name": "data",
          "type": "bytes"
        }
      ],
      "name": "safeTransferFrom",
      "outputs": [],
      "stateMutability": "nonpayable",
      "type": "function"
    },
    {
      "inputs": [
        {
          "internalType": "address",
          "name": "operator",
          "type": "address"
        },
        {
          "internalType": "bool",
          "name": "approved",
          "type": "bool"
        }
      ],
      "name": "setApprovalForAll",
      "outputs": [],
      "stateMutability": "nonpayable",
      "type": "function"
    },
    {
      "inputs": [
        {
          "internalType": "bytes4",
          "name": "interfaceId",
          "type": "bytes4"
        }
      ],
      "name": "supportsInterface",
      "outputs": [
        {
          "internalType": "bool",
          "name": "",
          "type": "bool"
        }
      ],
      "stateMutability": "view",
      "type": "function",
      "constant": true
    },
    {
      "inputs": [],
      "name": "symbol",
      "outputs": [
        {
          "internalType": "string",
          "name": "",
          "type": "string"
        }
      ],
      "stateMutability": "view",
      "type": "function",
      "constant": true
    },
    {
      "inputs": [
        {
          "internalType": "uint256",
          "name": "tokenId",
          "type": "uint256"
        }
      ],
      "name": "tokenURI",
      "outputs": [
        {
          "internalType": "string",
          "name": "",
          "type": "string"
        }
      ],
      "stateMutability": "view",
      "type": "function",
      "constant": true
    },
    {
      "inputs": [
        {
          "internalType": "address",
          "name": "from",
          "type": "address"
        },
        {
          "internalType": "address",
          "name": "to",
          "type": "address"
        },
        {
          "internalType": "uint256",
          "name": "tokenId",
          "type": "uint256"
        }
      ],
      "name": "transferFrom",
      "outputs": [],
      "stateMutability": "nonpayable",
      "type": "function"
    },
    {
      "inputs": [
        {
          "internalType": "address",
          "name": "newOwner",
          "type": "address"
        }
      ],
      "name": "transferOwnership",
      "outputs": [],
      "stateMutability": "nonpayable",
      "type": "function"
    },
    {
      "inputs": [
        {
          "internalType": "string",
          "name": "_name",
          "type": "string"
        },
        {
          "internalType": "uint256",
          "name": "_price",
          "type": "uint256"
        },
        {
          "internalType": "uint256",
          "name": "_seats",
          "type": "uint256"
        }
      ],
      "name": "createCourse",
      "outputs": [],
      "stateMutability": "nonpayable",
      "type": "function"
    },
    {
      "inputs": [
        {
          "internalType": "uint256",
          "name": "_courseId",
          "type": "uint256"
        }
      ],
      "name": "enroll",
      "outputs": [],
      "stateMutability": "payable",
      "type": "function",
      "payable": true
    },
    {
      "inputs": [
        {
          "internalType": "uint256",
          "name": "_courseId",
          "type": "uint256"
        },
        {
          "internalType": "address",
          "name": "_student",
          "type": "address"
        }
      ],
      "name": "issueCertificate",
      "outputs": [],
      "stateMutability": "nonpayable",
      "type": "function"
    },
    {
      "inputs": [],
      "name": "withdraw",
      "outputs": [],
      "stateMutability": "nonpayable",
      "type": "function"
    }
  ],
  "bytecode": "0x608060405234801562000010575f80fd5b50604051620038343803806200383483398181016040528101906200003691906200027c565b806040518060400160405280601181526020017f436f7572736543657274696669636174650000000000000000000000000000008152506040518060400160405280600581526020017f4343455254000000000000000000000000000000000000000000000000000000815250815f9081620000b3919062000510565b508060019081620000c5919062000510565b5050505f73ffffffffffffffffffffffffffffffffffffffff168173ffffffffffffffffffffffffffffffffffffffff16036200013b575f6040517f1e4fbdf700000000000000000000000000000000000000000000000000000000815260040162000132919062000605565b60405180910390fd5b6200014c816200015460201b60201c565b505062000620565b5f60065f9054906101000a900473ffffffffffffffffffffffffffffffffffffffff1690508160065f6101000a81548173ffffffffffffffffffffffffffffffffffffffff021916908373ffffffffffffffffffffffffffffffffffffffff1602179055508173ffffffffffffffffffffffffffffffffffffffff168173ffffffffffffffffffffffffffffffffffffffff167f8be0079c531659141344cd1fd0a4f28419497f9722a3daafe3b4186f6b6457e060405160405180910390a35050565b5f80fd5b5f73ffffffffffffffffffffffffffffffffffffffff82169050919050565b5f62000246826200021b565b9050919050565b62000258816200023a565b811462000263575f80fd5b50565b5f8151905062000276816200024d565b92915050565b5f6020828403121562000294576200029362000217565b5b5f620002a38482850162000266565b91505092915050565b5f81519050919050565b7f4e487b71000000000000000000000000000000000000000000000000000000005f52604160045260245ffd5b7f4e487b71000000000000000000000000000000000000000000000000000000005f52602260045260245ffd5b5f60028204905060018216806200032857607f821691505b6020821081036200033e576200033d620002e3565b5b50919050565b5f819050815f5260205f209050919050565b5f6020601f8301049050919050565b5f82821b905092915050565b5f60088302620003a27fffffffffffffffffffffffffffffffffffffffffffffffffffffffffffffffff8262000365565b620003ae868362000365565b95508019841693508086168417925050509392505050565b5f819050919050565b5f819050919050565b5f620003f8620003f2620003ec84620003c6565b620003cf565b620003c6565b9050919050565b5f819050919050565b6200041383620003d8565b6200042b6200042282620003ff565b84845462000371565b825550505050565b5f90565b6200044162000433565b6200044e81848462000408565b505050565b5b818110156200047557620004695f8262000437565b60018101905062000454565b5050565b601f821115620004c4576200048e8162000344565b620004998462000356565b81016020851015620004a9578190505b620004c1620004b88562000356565b83018262000453565b50505b505050565b5f82821c905092915050565b5f620004e65f1984600802620004c9565b1980831691505092915050565b5f620005008383620004d5565b9150826002028217905092915050565b6200051b82620002ac565b67ffffffffffffffff811115620005375762000536620002b6565b5b62000543825462000310565b6200055082828562000479565b5f60209050601f83116001811462000586575f841562000571578287015190505b6200057d8582620004f3565b865550620005ec565b601f198416620005968662000344565b5f5b82811015620005bf5784890151825560018201915060208501945060208101905062000598565b86831015620005df5784890151620005db601f891682620004d5565b8355505b6001600288020188555050505b505050505050565b620005ff816200023a565b82525050565b5f6020820190506200061a5f830184620005f4565b92915050565b613206806200062e5f395ff3fe60806040526004361061014a575f3560e01c80638da5cb5b116100b5578063b88d4fde1161006e578063b88d4fde1461046c578063c87b56dd14610494578063e985e9c5146104d0578063eda6c2d71461050c578063f2fde38b1461054a578063f57d585b146105725761014a565b80638da5cb5b146103605780638fe8b3911461038a57806395d89b41146103b257806396f979d2146103dc578063a22cb4651461041c578063ae0ec5e4146104445761014a565b806342842e0e1161010757806342842e0e146102565780634b24691f1461027e5780636352211e146102a857806366055159146102e457806370a082311461030e578063715018a61461034a5761014a565b806301ffc9a71461014e57806306fdde031461018a578063081812fc146101b4578063095ea7b3146101f057806323b872dd146102185780633ccfd60b14610240575b5f80fd5b348015610159575f80fd5b50610174600480360381019061016f91906122ce565b61058e565b6040516101819190612313565b60405180910390f35b348015610195575f80fd5b5061019e61066f565b6040516101ab91906123b6565b60405180910390f35b3480156101bf575f80fd5b506101da60048036038101906101d59190612409565b6106fe565b6040516101e79190612473565b60405180910390f35b3480156101fb575f80fd5b50610216600480360381019061021191906124b6565b610719565b005b348015610223575f80fd5b5061023e600480360381019061023991906124f4565b61072f565b005b34801561024b575f80fd5b5061025461082e565b005b348015610261575f80fd5b5061027c600480360381019061027791906124f4565b610883565b005b348015610289575f80fd5b506102926108a2565b60405161029f9190612553565b60405180910390f35b3480156102b3575f80fd5b506102ce60048036038101906102c99190612409565b6108a8565b6040516102db9190612473565b60405180910390f35b3480156102ef575f80fd5b506102f86108b9565b6040516103059190612553565b60405180910390f35b348015610319575f80fd5b50610334600480360381019061032f919061256c565b6108bf565b6040516103419190612553565b60405180910390f35b348015610355575f80fd5b5061035e610975565b005b34801561036b575f80fd5b50610374610988565b6040516103819190612473565b60405180910390f35b348015610395575f80fd5b506103b060048036038101906103ab9190612597565b6109b0565b005b3480156103bd575f80fd5b506103c6610bbd565b6040516103d391906123b6565b60405180910390f35b3480156103e7575f80fd5b5061040260048036038101906103fd9190612409565b610c4d565b6040516104139594939291906125d5565b60405180910390f35b348015610427575f80fd5b50610442600480360381019061043d9190612657565b610d11565b005b34801561044f575f80fd5b5061046a600480360381019061046591906127c1565b610d27565b005b348015610477575f80fd5b50610492600480360381019061048d91906128cb565b610e1d565b005b34801561049f575f80fd5b506104ba60048036038101906104b59190612409565b610e3a565b6040516104c791906123b6565b60405180910390f35b3480156104db575f80fd5b506104f660048036038101906104f1919061294b565b610ea0565b6040516105039190612313565b60405180910390f35b348015610517575f80fd5b50610532600480360381019061052d9190612597565b610f2e565b60405161054193929190612989565b60405180910390f35b348015610555575f80fd5b50610570600480360381019061056b919061256c565b610f96565b005b61058c60048036038101906105879190612409565b61101a565b005b5f7f80ac58cd000000000000000000000000000000000000000000000000000000007bffffffffffffffffffffffffffffffffffffffffffffffffffffffff1916827bffffffffffffffffffffffffffffffffffffffffffffffffffffffff1916148061065857507f5b5e139f000000000000000000000000000000000000000000000000000000007bffffffffffffffffffffffffffffffffffffffffffffffffffffffff1916827bffffffffffffffffffffffffffffffffffffffffffffffffffffffff1916145b806106685750610667826113e0565b5b9050919050565b60605f805461067d906129eb565b80601f01602080910402602001604051908101604052809291908181526020018280546106a9906129eb565b80156106f45780601f106106cb576101008083540402835291602001916106f4565b820191905f5260205f20905b8154815290600101906020018083116106d757829003601f168201915b5050505050905090565b5f61070882611449565b50610712826114cf565b9050919050565b61072b8282610726611508565b61150f565b5050565b5f73ffffffffffffffffffffffffffffffffffffffff168273ffffffffffffffffffffffffffffffffffffffff160361079f575f6040517f64a0ae920000000000000000000000000000000000000000000000000000000081526004016107969190612473565b60405180910390fd5b5f6107b283836107ad611508565b611521565b90508373ffffffffffffffffffffffffffffffffffffffff168173ffffffffffffffffffffffffffffffffffffffff1614610828578382826040517f64283d7b00000000000000000000000000000000000000000000000000000000815260040161081f93929190612a1b565b60405180910390fd5b50505050565b61083661172c565b61083e610988565b73ffffffffffffffffffffffffffffffffffffffff166108fc4790811502906040515f60405180830381858888f19350505050158015610880573d5f803e3d5ffd5b50565b61089d83838360405180602001604052805f815250610e1d565b505050565b60085481565b5f6108b282611449565b9050919050565b60075481565b5f8073ffffffffffffffffffffffffffffffffffffffff168273ffffffffffffffffffffffffffffffffffffffff1603610930575f6040517f89c62b640000000000000000000000000000000000000000000000000000000081526004016109279190612473565b60405180910390fd5b60035f8373ffffffffffffffffffffffffffffffffffffffff1673ffffffffffffffffffffffffffffffffffffffff1681526020019081526020015f20549050919050565b61097d61172c565b6109865f6117b3565b565b5f60065f9054906101000a900473ffffffffffffffffffffffffffffffffffffffff16905090565b6109b861172c565b600a5f8381526020019081526020015f205f8273ffffffffffffffffffffffffffffffffffffffff1673ffffffffffffffffffffffffffffffffffffffff1681526020019081526020015f205f0160149054906101000a900460ff16610a53576040517f08c379a0000000000000000000000000000000000000000000000000000000008152600401610a4a90612a9a565b60405180910390fd5b5f1515600a5f8481526020019081526020015f205f8373ffffffffffffffffffffffffffffffffffffffff1673ffffffffffffffffffffffffffffffffffffffff1681526020019081526020015f205f0160159054906101000a900460ff16151514610af4576040517f08c379a0000000000000000000000000000000000000000000000000000000008152600401610aeb90612b02565b60405180910390fd5b610b0081600854611876565b6001600a5f8481526020019081526020015f205f8373ffffffffffffffffffffffffffffffffffffffff1673ffffffffffffffffffffffffffffffffffffffff1681526020019081526020015f205f0160156101000a81548160ff0219169083151502179055507ffec61b9ec0e29047dbeea981617649d79f187d172cfd492695a3d0bfee28883e81600854604051610b9a929190612b20565b60405180910390a160085f815480929190610bb490612b74565b91905055505050565b606060018054610bcc906129eb565b80601f0160208091040260200160405190810160405280929190818152602001828054610bf8906129eb565b8015610c435780601f10610c1a57610100808354040283529160200191610c43565b820191905f5260205f20905b815481529060010190602001808311610c2657829003601f168201915b5050505050905090565b6009602052805f5260405f205f91509050805f015490806001018054610c72906129eb565b80601f0160208091040260200160405190810160405280929190818152602001828054610c9e906129eb565b8015610ce95780601f10610cc057610100808354040283529160200191610ce9565b820191905f5260205f20905b815481529060010190602001808311610ccc57829003601f168201915b505050505090806002015490806003015490806004015f9054906101000a900460ff16905085565b610d23610d1c611508565b8383611893565b5050565b610d2f61172c565b6040518060a0016040528060075481526020018481526020018381526020018281526020016001151581525060095f60075481526020019081526020015f205f820151815f01556020820151816001019081610d8b9190612d58565b5060408201518160020155606082015181600301556080820151816004015f6101000a81548160ff02191690831515021790555090505060075f815480929190610dd490612b74565b91905055507f62a03295cf3254097619e4c525c459f4c5385f131ff770541e79b7e63ac9d3a1600754848484604051610e109493929190612e27565b60405180910390a1505050565b610e2884848461072f565b610e34848484846119fc565b50505050565b6060610e4582611449565b505f610e4f611bae565b90505f815111610e6d5760405180602001604052805f815250610e98565b80610e7784611bc4565b604051602001610e88929190612eab565b6040516020818303038152906040525b915050919050565b5f60055f8473ffffffffffffffffffffffffffffffffffffffff1673ffffffffffffffffffffffffffffffffffffffff1681526020019081526020015f205f8373ffffffffffffffffffffffffffffffffffffffff1673ffffffffffffffffffffffffffffffffffffffff1681526020019081526020015f205f9054906101000a900460ff16905092915050565b600a602052815f5260405f20602052805f5260405f205f9150915050805f015f9054906101000a900473ffffffffffffffffffffffffffffffffffffffff1690805f0160149054906101000a900460ff1690805f0160159054906101000a900460ff16905083565b610f9e61172c565b5f73ffffffffffffffffffffffffffffffffffffffff168173ffffffffffffffffffffffffffffffffffffffff160361100e575f6040517f1e4fbdf70000000000000000000000000000000000000000000000000000000081526004016110059190612473565b60405180910390fd5b611017816117b3565b50565b5f60095f8381526020019081526020015f206040518060a00160405290815f8201548152602001600182018054611050906129eb565b80601f016020809104026020016040519081016040528092919081815260200182805461107c906129eb565b80156110c75780601f1061109e576101008083540402835291602001916110c7565b820191905f5260205f20905b8154815290600101906020018083116110aa57829003601f168201915b505050505081526020016002820154815260200160038201548152602001600482015f9054906101000a900460ff16151515158152505090508060800151611144576040517f08c379a000000000000000000000000000000000000000000000000000000000815260040161113b90612f18565b60405180910390fd5b8060400151341461118a576040517f08c379a000000000000000000000000000000000000000000000000000000000815260040161118190612f80565b60405180910390fd5b5f1515600a5f8481526020019081526020015f205f3373ffffffffffffffffffffffffffffffffffffffff1673ffffffffffffffffffffffffffffffffffffffff1681526020019081526020015f205f0160149054906101000a900460ff1615151461122b576040517f08c379a000000000000000000000000000000000000000000000000000000000815260040161122290612fe8565b60405180910390fd5b5f816060015111611271576040517f08c379a000000000000000000000000000000000000000000000000000000000815260040161126890613050565b60405180910390fd5b60405180606001604052803373ffffffffffffffffffffffffffffffffffffffff1681526020016001151581526020015f1515815250600a5f8481526020019081526020015f205f3373ffffffffffffffffffffffffffffffffffffffff1673ffffffffffffffffffffffffffffffffffffffff1681526020019081526020015f205f820151815f015f6101000a81548173ffffffffffffffffffffffffffffffffffffffff021916908373ffffffffffffffffffffffffffffffffffffffff1602179055506020820151815f0160146101000a81548160ff0219169083151502179055506040820151815f0160156101000a81548160ff021916908315150217905550905050600160095f8481526020019081526020015f206003015f82825461139c919061306e565b925050819055507f0729bef4a0569fb1fa09db94121e32114ae18918357d5324c3dd31440b83149e82336040516113d49291906130a1565b60405180910390a15050565b5f7f01ffc9a7000000000000000000000000000000000000000000000000000000007bffffffffffffffffffffffffffffffffffffffffffffffffffffffff1916827bffffffffffffffffffffffffffffffffffffffffffffffffffffffff1916149050919050565b5f8061145483611c8e565b90505f73ffffffffffffffffffffffffffffffffffffffff168173ffffffffffffffffffffffffffffffffffffffff16036114c657826040517f7e2732890000000000000000000000000000000000000000000000000000000081526004016114bd9190612553565b60405180910390fd5b80915050919050565b5f60045f8381526020019081526020015f205f9054906101000a900473ffffffffffffffffffffffffffffffffffffffff169050919050565b5f33905090565b61151c8383836001611cc7565b505050565b5f8061152c84611c8e565b90505f73ffffffffffffffffffffffffffffffffffffffff168373ffffffffffffffffffffffffffffffffffffffff161461156d5761156c818486611e86565b5b5f73ffffffffffffffffffffffffffffffffffffffff168173ffffffffffffffffffffffffffffffffffffffff16146115f8576115ac5f855f80611cc7565b600160035f8373ffffffffffffffffffffffffffffffffffffffff1673ffffffffffffffffffffffffffffffffffffffff1681526020019081526020015f205f82825403925050819055505b5f73ffffffffffffffffffffffffffffffffffffffff168573ffffffffffffffffffffffffffffffffffffffff161461167757600160035f8773ffffffffffffffffffffffffffffffffffffffff1673ffffffffffffffffffffffffffffffffffffffff1681526020019081526020015f205f82825401925050819055505b8460025f8681526020019081526020015f205f6101000a81548173ffffffffffffffffffffffffffffffffffffffff021916908373ffffffffffffffffffffffffffffffffffffffff160217905550838573ffffffffffffffffffffffffffffffffffffffff168273ffffffffffffffffffffffffffffffffffffffff167fddf252ad1be2c89b69c2b068fc378daa952ba7f163c4a11628f55a4df523b3ef60405160405180910390a4809150509392505050565b611734611508565b73ffffffffffffffffffffffffffffffffffffffff16611752610988565b73ffffffffffffffffffffffffffffffffffffffff16146117b157611775611508565b6040517f118cdaa70000000000000000000000000000000000000000000000000000000081526004016117a89190612473565b60405180910390fd5b565b5f60065f9054906101000a900473ffffffffffffffffffffffffffffffffffffffff1690508160065f6101000a81548173ffffffffffffffffffffffffffffffffffffffff021916908373ffffffffffffffffffffffffffffffffffffffff1602179055508173ffffffffffffffffffffffffffffffffffffffff168173ffffffffffffffffffffffffffffffffffffffff167f8be0079c531659141344cd1fd0a4f28419497f9722a3daafe3b4186f6b6457e060405160405180910390a35050565b61188f828260405180602001604052805f815250611f49565b5050565b5f73ffffffffffffffffffffffffffffffffffffffff168273ffffffffffffffffffffffffffffffffffffffff160361190357816040517f5b08ba180000000000000000000000000000000000000000000000000000000081526004016118fa9190612473565b60405180910390fd5b8060055f8573ffffffffffffffffffffffffffffffffffffffff1673ffffffffffffffffffffffffffffffffffffffff1681526020019081526020015f205f8473ffffffffffffffffffffffffffffffffffffffff1673ffffffffffffffffffffffffffffffffffffffff1681526020019081526020015f205f6101000a81548160ff0219169083151502179055508173ffffffffffffffffffffffffffffffffffffffff168373ffffffffffffffffffffffffffffffffffffffff167f17307eab39ab6107e8899845ad3d59bd9653f200f220920489ca2b5937696c31836040516119ef9190612313565b60405180910390a3505050565b5f8373ffffffffffffffffffffffffffffffffffffffff163b1115611ba8578273ffffffffffffffffffffffffffffffffffffffff1663150b7a02611a3f611508565b8685856040518563ffffffff1660e01b8152600401611a61949392919061311a565b6020604051808303815f875af1925050508015611a9c57506040513d601f19601f82011682018060405250810190611a999190613178565b60015b611b1d573d805f8114611aca576040519150601f19603f3d011682016040523d82523d5f602084013e611acf565b606091505b505f815103611b1557836040517f64a0ae92000000000000000000000000000000000000000000000000000000008152600401611b0c9190612473565b60405180910390fd5b805181602001fd5b63150b7a0260e01b7bffffffffffffffffffffffffffffffffffffffffffffffffffffffff1916817bffffffffffffffffffffffffffffffffffffffffffffffffffffffff191614611ba657836040517f64a0ae92000000000000000000000000000000000000000000000000000000008152600401611b9d9190612473565b60405180910390fd5b505b50505050565b606060405180602001604052805f815250905090565b60605f6001611bd284611f64565b0190505f8167ffffffffffffffff811115611bf057611bef61269d565b5b6040519080825280601f01601f191660200182016040528015611c225781602001600182028036833780820191505090505b5090505f82602001820190505b600115611c83578080600190039150507f3031323334353637383961626364656600000000000000000000000000000000600a86061a8153600a8581611c7857611c776131a3565b5b0494505f8503611c2f575b819350505050919050565b5f60025f8381526020019081526020015f205f9054906101000a900473ffffffffffffffffffffffffffffffffffffffff169050919050565b8080611cff57505f73ffffffffffffffffffffffffffffffffffffffff168273ffffffffffffffffffffffffffffffffffffffff1614155b15611e31575f611d0e84611449565b90505f73ffffffffffffffffffffffffffffffffffffffff168373ffffffffffffffffffffffffffffffffffffffff1614158015611d7857508273ffffffffffffffffffffffffffffffffffffffff168173ffffffffffffffffffffffffffffffffffffffff1614155b8015611d8b5750611d898184610ea0565b155b15611dcd57826040517fa9fbf51f000000000000000000000000000000000000000000000000000000008152600401611dc49190612473565b60405180910390fd5b8115611e2f57838573ffffffffffffffffffffffffffffffffffffffff168273ffffffffffffffffffffffffffffffffffffffff167f8c5be1e5ebec7d5bd14f71427d1e84f3dd0314c0f7b2291e5b200ac8c7c3b92560405160405180910390a45b505b8360045f8581526020019081526020015f205f6101000a81548173ffffffffffffffffffffffffffffffffffffffff021916908373ffffffffffffffffffffffffffffffffffffffff16021790555050505050565b611e918383836120b5565b611f44575f73ffffffffffffffffffffffffffffffffffffffff168373ffffffffffffffffffffffffffffffffffffffff1603611f0557806040517f7e273289000000000000000000000000000000000000000000000000000000008152600401611efc9190612553565b60405180910390fd5b81816040517f177e802f000000000000000000000000000000000000000000000000000000008152600401611f3b929190612b20565b60405180910390fd5b505050565b611f538383612175565b611f5f5f8484846119fc565b505050565b5f805f90507a184f03e93ff9f4daa797ed6e38ed64bf6a1f0100000000000000008310611fc0577a184f03e93ff9f4daa797ed6e38ed64bf6a1f0100000000000000008381611fb657611fb56131a3565b5b0492506040810190505b6d04ee2d6d415b85acef81000000008310611ffd576d04ee2d6d415b85acef81000000008381611ff357611ff26131a3565b5b0492506020810190505b662386f26fc10000831061202c57662386f26fc100008381612022576120216131a3565b5b0492506010810190505b6305f5e1008310612055576305f5e100838161204b5761204a6131a3565b5b0492506008810190505b612710831061207a5761271083816120705761206f6131a3565b5b0492506004810190505b6064831061209d5760648381612093576120926131a3565b5b0492506002810190505b600a83106120ac576001810190505b80915050919050565b5f8073ffffffffffffffffffffffffffffffffffffffff168373ffffffffffffffffffffffffffffffffffffffff161415801561216c57508273ffffffffffffffffffffffffffffffffffffffff168473ffffffffffffffffffffffffffffffffffffffff16148061212d575061212c8484610ea0565b5b8061216b57508273ffffffffffffffffffffffffffffffffffffffff16612153836114cf565b73ffffffffffffffffffffffffffffffffffffffff16145b5b90509392505050565b5f73ffffffffffffffffffffffffffffffffffffffff168273ffffffffffffffffffffffffffffffffffffffff16036121e5575f6040517f64a0ae920000000000000000000000000000000000000000000000000000000081526004016121dc9190612473565b60405180910390fd5b5f6121f183835f611521565b90505f73ffffffffffffffffffffffffffffffffffffffff168173ffffffffffffffffffffffffffffffffffffffff1614612263575f6040517f73c6ac6e00000000000000000000000000000000000000000000000000000000815260040161225a9190612473565b60405180910390fd5b505050565b5f604051905090565b5f80fd5b5f80fd5b5f7fffffffff0000000000000000000000000000000000000000000000000000000082169050919050565b6122ad81612279565b81146122b7575f80fd5b50565b5f813590506122c8816122a4565b92915050565b5f602082840312156122e3576122e2612271565b5b5f6122f0848285016122ba565b91505092915050565b5f8115159050919050565b61230d816122f9565b82525050565b5f6020820190506123265f830184612304565b92915050565b5f81519050919050565b5f82825260208201905092915050565b5f5b83811015612363578082015181840152602081019050612348565b5f8484015250505050565b5f601f19601f8301169050919050565b5f6123888261232c565b6123928185612336565b93506123a2818560208601612346565b6123ab8161236e565b840191505092915050565b5f6020820190508181035f8301526123ce818461237e565b905092915050565b5f819050919050565b6123e8816123d6565b81146123f2575f80fd5b50565b5f81359050612403816123df565b92915050565b5f6020828403121561241e5761241d612271565b5b5f61242b848285016123f5565b91505092915050565b5f73ffffffffffffffffffffffffffffffffffffffff82169050919050565b5f61245d82612434565b9050919050565b61246d81612453565b82525050565b5f6020820190506124865f830184612464565b92915050565b61249581612453565b811461249f575f80fd5b50565b5f813590506124b08161248c565b92915050565b5f80604083850312156124cc576124cb612271565b5b5f6124d9858286016124a2565b92505060206124ea858286016123f5565b9150509250929050565b5f805f6060848603121561250b5761250a612271565b5b5f612518868287016124a2565b9350506020612529868287016124a2565b925050604061253a868287016123f5565b9150509250925092565b61254d816123d6565b82525050565b5f6020820190506125665f830184612544565b92915050565b5f6020828403121561258157612580612271565b5b5f61258e848285016124a2565b91505092915050565b5f80604083850312156125ad576125ac612271565b5b5f6125ba858286016123f5565b92505060206125cb858286016124a2565b9150509250929050565b5f60a0820190506125e85f830188612544565b81810360208301526125fa818761237e565b90506126096040830186612544565b6126166060830185612544565b6126236080830184612304565b9695505050505050565b612636816122f9565b8114612640575f80fd5b50565b5f813590506126518161262d565b92915050565b5f806040838503121561266d5761266c612271565b5b5f61267a858286016124a2565b925050602061268b85828601612643565b9150509250929050565b5f80fd5b5f80fd5b7f4e487b71000000000000000000000000000000000000000000000000000000005f52604160045260245ffd5b6126d38261236e565b810181811067ffffffffffffffff821117156126f2576126f161269d565b5b80604052505050565b5f612704612268565b905061271082826126ca565b919050565b5f67ffffffffffffffff82111561272f5761272e61269d565b5b6127388261236e565b9050602081019050919050565b828183375f83830152505050565b5f61276561276084612715565b6126fb565b90508281526020810184848401111561278157612780612699565b5b61278c848285612745565b509392505050565b5f82601f8301126127a8576127a7612695565b5b81356127b8848260208601612753565b91505092915050565b5f805f606084860312156127d8576127d7612271565b5b5f84013567ffffffffffffffff8111156127f5576127f4612275565b5b61280186828701612794565b9350506020612812868287016123f5565b9250506040612823868287016123f5565b9150509250925092565b5f67ffffffffffffffff8211156128475761284661269d565b5b6128508261236e565b9050602081019050919050565b5f61286f61286a8461282d565b6126fb565b90508281526020810184848401111561288b5761288a612699565b5b612896848285612745565b509392505050565b5f82601f8301126128b2576128b1612695565b5b81356128c284826020860161285d565b91505092915050565b5f805f80608085870312156128e3576128e2612271565b5b5f6128f0878288016124a2565b9450506020612901878288016124a2565b9350506040612912878288016123f5565b925050606085013567ffffffffffffffff81111561293357612932612275565b5b61293f8782880161289e565b91505092959194509250565b5f806040838503121561296157612960612271565b5b5f61296e858286016124a2565b925050602061297f858286016124a2565b9150509250929050565b5f60608201905061299c5f830186612464565b6129a96020830185612304565b6129b66040830184612304565b949350505050565b7f4e487b71000000000000000000000000000000000000000000000000000000005f52602260045260245ffd5b5f6002820490506001821680612a0257607f821691505b602082108103612a1557612a146129be565b5b50919050565b5f606082019050612a2e5f830186612464565b612a3b6020830185612544565b612a486040830184612464565b949350505050565b7f456c20657374756469616e7465206e6f206573746120696e73637269746f2e005f82015250565b5f612a84601f83612336565b9150612a8f82612a50565b602082019050919050565b5f6020820190508181035f830152612ab181612a78565b9050919050565b7f436572746966696361646f20796120656d697469646f2e0000000000000000005f82015250565b5f612aec601783612336565b9150612af782612ab8565b602082019050919050565b5f6020820190508181035f830152612b1981612ae0565b9050919050565b5f604082019050612b335f830185612464565b612b406020830184612544565b9392505050565b7f4e487b71000000000000000000000000000000000000000000000000000000005f52601160045260245ffd5b5f612b7e826123d6565b91507fffffffffffffffffffffffffffffffffffffffffffffffffffffffffffffffff8203612bb057612baf612b47565b5b600182019050919050565b5f819050815f5260205f209050919050565b5f6020601f8301049050919050565b5f82821b905092915050565b5f60088302612c177fffffffffffffffffffffffffffffffffffffffffffffffffffffffffffffffff82612bdc565b612c218683612bdc565b95508019841693508086168417925050509392505050565b5f819050919050565b5f612c5c612c57612c52846123d6565b612c39565b6123d6565b9050919050565b5f819050919050565b612c7583612c42565b612c89612c8182612c63565b848454612be8565b825550505050565b5f90565b612c9d612c91565b612ca8818484612c6c565b505050565b5b81811015612ccb57612cc05f82612c95565b600181019050612cae565b5050565b601f821115612d1057612ce181612bbb565b612cea84612bcd565b81016020851015612cf9578190505b612d0d612d0585612bcd565b830182612cad565b50505b505050565b5f82821c905092915050565b5f612d305f1984600802612d15565b1980831691505092915050565b5f612d488383612d21565b9150826002028217905092915050565b612d618261232c565b67ffffffffffffffff811115612d7a57612d7961269d565b5b612d8482546129eb565b612d8f828285612ccf565b5f60209050601f831160018114612dc0575f8415612dae578287015190505b612db88582612d3d565b865550612e1f565b601f198416612dce86612bbb565b5f5b82811015612df557848901518255600182019150602085019450602081019050612dd0565b86831015612e125784890151612e0e601f891682612d21565b8355505b6001600288020188555050505b505050505050565b5f608082019050612e3a5f830187612544565b8181036020830152612e4c818661237e565b9050612e5b6040830185612544565b612e686060830184612544565b95945050505050565b5f81905092915050565b5f612e858261232c565b612e8f8185612e71565b9350612e9f818560208601612346565b80840191505092915050565b5f612eb68285612e7b565b9150612ec28284612e7b565b91508190509392505050565b7f456c20637572736f206e6f20657374612061637469766f2e00000000000000005f82015250565b5f612f02601883612336565b9150612f0d82612ece565b602082019050919050565b5f6020820190508181035f830152612f2f81612ef6565b9050919050565b7f5061676f20696e636f72726563746f2e000000000000000000000000000000005f82015250565b5f612f6a601083612336565b9150612f7582612f36565b602082019050919050565b5f6020820190508181035f830152612f9781612f5e565b9050919050565b7f5961206573746120696e73637269746f2e0000000000000000000000000000005f82015250565b5f612fd2601183612336565b9150612fdd82612f9e565b602082019050919050565b5f6020820190508181035f830152612fff81612fc6565b9050919050565b7f4e6f20686179206375706f7320646973706f6e69626c65732e000000000000005f82015250565b5f61303a601983612336565b915061304582613006565b602082019050919050565b5f6020820190508181035f8301526130678161302e565b9050919050565b5f613078826123d6565b9150613083836123d6565b925082820390508181111561309b5761309a612b47565b5b92915050565b5f6040820190506130b45f830185612544565b6130c16020830184612464565b9392505050565b5f81519050919050565b5f82825260208201905092915050565b5f6130ec826130c8565b6130f681856130d2565b9350613106818560208601612346565b61310f8161236e565b840191505092915050565b5f60808201905061312d5f830187612464565b61313a6020830186612464565b6131476040830185612544565b818103606083015261315981846130e2565b905095945050505050565b5f81519050613172816122a4565b92915050565b5f6020828403121561318d5761318c612271565b5b5f61319a84828501613164565b91505092915050565b7f4e487b71000000000000000000000000000000000000000000000000000000005f52601260045260245ffdfea264697066735822122047fbe84ff27572865be29fa794f1637426451e025996addfb0cc9d5ac77278f964736f6c63430008150033",
  "immutableReferences": {},
  "source": "// SPDX-License-Identifier: MIT\npragma solidity ^0.8.21;\n\nimport \"@openzeppelin/contracts/token/ERC721/ERC721.sol\";\nimport \"@openzeppelin/contracts/access/Ownable.sol\";\n\ncontract CourseEnrollment is ERC721, Ownable{\n    struct Course {\n        uint id;\n        string name;\n        uint price;\n        uint seats;\n        bool isActive;\n    }\n\n    struct Student {\n        address studentAddress;\n        bool isEnrolled;\n        bool isCertified;\n    }\n\n    uint public courseCount;\n    uint public certificateTokenId;\n\n    mapping(uint => Course) public courses;\n    mapping(uint => mapping(address => Student)) public enrolledStudents;\n\n    event CourseCreated(uint courseId, string courseName, uint price, uint seats);\n    event StudentEnrolled(uint courseId, address student);\n    event CertificateIssued(address student, uint tokenId);\n\n    constructor(address initialOwner) ERC721(\"CourseCertificate\", \"CCERT\") Ownable(initialOwner){}\n\n\n    // Crear un nuevo curso\n    function createCourse(string memory _name, uint _price, uint _seats) public onlyOwner {\n        courses[courseCount] = Course(courseCount, _name, _price, _seats, true);\n        courseCount++;\n        emit CourseCreated(courseCount, _name, _price, _seats);\n    }\n\n    // Inscripcin de estudiantes\n    function enroll(uint _courseId) public payable {\n        Course memory course = courses[_courseId];\n        require(course.isActive, \"El curso no esta activo.\");\n        require(msg.value == course.price, \"Pago incorrecto.\");\n        require(enrolledStudents[_courseId][msg.sender].isEnrolled == false, \"Ya esta inscrito.\");\n        require(course.seats > 0, \"No hay cupos disponibles.\");\n\n        enrolledStudents[_courseId][msg.sender] = Student(msg.sender, true, false);\n        courses[_courseId].seats -= 1;\n\n        emit StudentEnrolled(_courseId, msg.sender);\n    }\n\n    // Emitir certificado al completar el curso\n    function issueCertificate(uint _courseId, address _student) public onlyOwner {\n        require(enrolledStudents[_courseId][_student].isEnrolled, \"El estudiante no esta inscrito.\");\n        require(enrolledStudents[_courseId][_student].isCertified == false, \"Certificado ya emitido.\");\n\n        // Emitir el NFT como certificado\n        _safeMint(_student, certificateTokenId);\n        enrolledStudents[_courseId][_student].isCertified = true;\n\n        emit CertificateIssued(_student, certificateTokenId);\n        certificateTokenId++;\n    }\n\n    // Retirar fondos del contrato (solo el propietario)\n    function withdraw() public onlyOwner {\n        payable(owner()).transfer(address(this).balance);\n    }\n}",
  "sourcePath": "/home/hackaton/Desktop/Hackaton/hackaton-api/contracts/CourseEnrollment.sol",
  "compiler": {
    "name": "solc",
    "version": "0.8.21+commit.d9974bed.Emscripten.clang"
  },
  "schemaVersion": "3.4.16",
  "updatedAt": "2024-09-07T18:35:18.730Z",
  "networkType": "ethereum",
  "devdoc": {
    "errors": {
      "ERC721IncorrectOwner(address,uint256,address)": [
        {
          "details": "Indicates an error related to the ownership over a particular token. Used in transfers.",
          "params": {
            "owner": "Address of the current owner of a token.",
            "sender": "Address whose tokens are being transferred.",
            "tokenId": "Identifier number of a token."
          }
        }
      ],
      "ERC721InsufficientApproval(address,uint256)": [
        {
          "details": "Indicates a failure with the `operator`s approval. Used in transfers.",
          "params": {
            "operator": "Address that may be allowed to operate on tokens without being their owner.",
            "tokenId": "Identifier number of a token."
          }
        }
      ],
      "ERC721InvalidApprover(address)": [
        {
          "details": "Indicates a failure with the `approver` of a token to be approved. Used in approvals.",
          "params": {
            "approver": "Address initiating an approval operation."
          }
        }
      ],
      "ERC721InvalidOperator(address)": [
        {
          "details": "Indicates a failure with the `operator` to be approved. Used in approvals.",
          "params": {
            "operator": "Address that may be allowed to operate on tokens without being their owner."
          }
        }
      ],
      "ERC721InvalidOwner(address)": [
        {
          "details": "Indicates that an address can't be an owner. For example, `address(0)` is a forbidden owner in EIP-20. Used in balance queries.",
          "params": {
            "owner": "Address of the current owner of a token."
          }
        }
      ],
      "ERC721InvalidReceiver(address)": [
        {
          "details": "Indicates a failure with the token `receiver`. Used in transfers.",
          "params": {
            "receiver": "Address to which tokens are being transferred."
          }
        }
      ],
      "ERC721InvalidSender(address)": [
        {
          "details": "Indicates a failure with the token `sender`. Used in transfers.",
          "params": {
            "sender": "Address whose tokens are being transferred."
          }
        }
      ],
      "ERC721NonexistentToken(uint256)": [
        {
          "details": "Indicates a `tokenId` whose `owner` is the zero address.",
          "params": {
            "tokenId": "Identifier number of a token."
          }
        }
      ],
      "OwnableInvalidOwner(address)": [
        {
          "details": "The owner is not a valid owner account. (eg. `address(0)`)"
        }
      ],
      "OwnableUnauthorizedAccount(address)": [
        {
          "details": "The caller account is not authorized to perform an operation."
        }
      ]
    },
    "events": {
      "Approval(address,address,uint256)": {
        "details": "Emitted when `owner` enables `approved` to manage the `tokenId` token."
      },
      "ApprovalForAll(address,address,bool)": {
        "details": "Emitted when `owner` enables or disables (`approved`) `operator` to manage all of its assets."
      },
      "Transfer(address,address,uint256)": {
        "details": "Emitted when `tokenId` token is transferred from `from` to `to`."
      }
    },
    "kind": "dev",
    "methods": {
      "approve(address,uint256)": {
        "details": "See {IERC721-approve}."
      },
      "balanceOf(address)": {
        "details": "See {IERC721-balanceOf}."
      },
      "getApproved(uint256)": {
        "details": "See {IERC721-getApproved}."
      },
      "isApprovedForAll(address,address)": {
        "details": "See {IERC721-isApprovedForAll}."
      },
      "name()": {
        "details": "See {IERC721Metadata-name}."
      },
      "owner()": {
        "details": "Returns the address of the current owner."
      },
      "ownerOf(uint256)": {
        "details": "See {IERC721-ownerOf}."
      },
      "renounceOwnership()": {
        "details": "Leaves the contract without owner. It will not be possible to call `onlyOwner` functions. Can only be called by the current owner. NOTE: Renouncing ownership will leave the contract without an owner, thereby disabling any functionality that is only available to the owner."
      },
      "safeTransferFrom(address,address,uint256)": {
        "details": "See {IERC721-safeTransferFrom}."
      },
      "safeTransferFrom(address,address,uint256,bytes)": {
        "details": "See {IERC721-safeTransferFrom}."
      },
      "setApprovalForAll(address,bool)": {
        "details": "See {IERC721-setApprovalForAll}."
      },
      "supportsInterface(bytes4)": {
        "details": "See {IERC165-supportsInterface}."
      },
      "symbol()": {
        "details": "See {IERC721Metadata-symbol}."
      },
      "tokenURI(uint256)": {
        "details": "See {IERC721Metadata-tokenURI}."
      },
      "transferFrom(address,address,uint256)": {
        "details": "See {IERC721-transferFrom}."
      },
      "transferOwnership(address)": {
        "details": "Transfers ownership of the contract to a new account (`newOwner`). Can only be called by the current owner."
      }
    },
    "version": 1
  },
  "userdoc": {
    "kind": "user",
    "methods": {},
    "version": 1
  }
}