{
  "contractName": "CourseEnrollment",
  "abi": [
    {
      "inputs": [],
      "stateMutability": "nonpayable",
      "type": "constructor"
    },
    {
      "inputs": [
        {
          "internalType": "address",
          "name": "sender",
          "type": "address"
        },
        {
          "internalType": "uint256",
          "name": "tokenId",
          "type": "uint256"
        },
        {
          "internalType": "address",
          "name": "owner",
          "type": "address"
        }
      ],
      "name": "ERC721IncorrectOwner",
      "type": "error"
    },
    {
      "inputs": [
        {
          "internalType": "address",
          "name": "operator",
          "type": "address"
        },
        {
          "internalType": "uint256",
          "name": "tokenId",
          "type": "uint256"
        }
      ],
      "name": "ERC721InsufficientApproval",
      "type": "error"
    },
    {
      "inputs": [
        {
          "internalType": "address",
          "name": "approver",
          "type": "address"
        }
      ],
      "name": "ERC721InvalidApprover",
      "type": "error"
    },
    {
      "inputs": [
        {
          "internalType": "address",
          "name": "operator",
          "type": "address"
        }
      ],
      "name": "ERC721InvalidOperator",
      "type": "error"
    },
    {
      "inputs": [
        {
          "internalType": "address",
          "name": "owner",
          "type": "address"
        }
      ],
      "name": "ERC721InvalidOwner",
      "type": "error"
    },
    {
      "inputs": [
        {
          "internalType": "address",
          "name": "receiver",
          "type": "address"
        }
      ],
      "name": "ERC721InvalidReceiver",
      "type": "error"
    },
    {
      "inputs": [
        {
          "internalType": "address",
          "name": "sender",
          "type": "address"
        }
      ],
      "name": "ERC721InvalidSender",
      "type": "error"
    },
    {
      "inputs": [
        {
          "internalType": "uint256",
          "name": "tokenId",
          "type": "uint256"
        }
      ],
      "name": "ERC721NonexistentToken",
      "type": "error"
    },
    {
      "inputs": [
        {
          "internalType": "address",
          "name": "owner",
          "type": "address"
        }
      ],
      "name": "OwnableInvalidOwner",
      "type": "error"
    },
    {
      "inputs": [
        {
          "internalType": "address",
          "name": "account",
          "type": "address"
        }
      ],
      "name": "OwnableUnauthorizedAccount",
      "type": "error"
    },
    {
      "anonymous": false,
      "inputs": [
        {
          "indexed": false,
          "internalType": "address",
          "name": "adminAddress",
          "type": "address"
        }
      ],
      "name": "AdminAdded",
      "type": "event"
    },
    {
      "anonymous": false,
      "inputs": [
        {
          "indexed": true,
          "internalType": "address",
          "name": "owner",
          "type": "address"
        },
        {
          "indexed": true,
          "internalType": "address",
          "name": "approved",
          "type": "address"
        },
        {
          "indexed": true,
          "internalType": "uint256",
          "name": "tokenId",
          "type": "uint256"
        }
      ],
      "name": "Approval",
      "type": "event"
    },
    {
      "anonymous": false,
      "inputs": [
        {
          "indexed": true,
          "internalType": "address",
          "name": "owner",
          "type": "address"
        },
        {
          "indexed": true,
          "internalType": "address",
          "name": "operator",
          "type": "address"
        },
        {
          "indexed": false,
          "internalType": "bool",
          "name": "approved",
          "type": "bool"
        }
      ],
      "name": "ApprovalForAll",
      "type": "event"
    },
    {
      "anonymous": false,
      "inputs": [
        {
          "indexed": false,
          "internalType": "address",
          "name": "student",
          "type": "address"
        },
        {
          "indexed": false,
          "internalType": "uint256",
          "name": "tokenId",
          "type": "uint256"
        }
      ],
      "name": "CertificateIssued",
      "type": "event"
    },
    {
      "anonymous": false,
      "inputs": [
        {
          "indexed": false,
          "internalType": "uint256",
          "name": "courseId",
          "type": "uint256"
        },
        {
          "indexed": false,
          "internalType": "string",
          "name": "courseName",
          "type": "string"
        },
        {
          "indexed": false,
          "internalType": "uint256",
          "name": "price",
          "type": "uint256"
        }
      ],
      "name": "CourseCreated",
      "type": "event"
    },
    {
      "anonymous": false,
      "inputs": [
        {
          "indexed": true,
          "internalType": "address",
          "name": "previousOwner",
          "type": "address"
        },
        {
          "indexed": true,
          "internalType": "address",
          "name": "newOwner",
          "type": "address"
        }
      ],
      "name": "OwnershipTransferred",
      "type": "event"
    },
    {
      "anonymous": false,
      "inputs": [
        {
          "indexed": false,
          "internalType": "address",
          "name": "professorAddress",
          "type": "address"
        }
      ],
      "name": "ProfessorAdded",
      "type": "event"
    },
    {
      "anonymous": false,
      "inputs": [
        {
          "indexed": false,
          "internalType": "uint256",
          "name": "courseId",
          "type": "uint256"
        },
        {
          "indexed": false,
          "internalType": "address",
          "name": "student",
          "type": "address"
        }
      ],
      "name": "StudentEnrolled",
      "type": "event"
    },
    {
      "anonymous": false,
      "inputs": [
        {
          "indexed": true,
          "internalType": "address",
          "name": "from",
          "type": "address"
        },
        {
          "indexed": true,
          "internalType": "address",
          "name": "to",
          "type": "address"
        },
        {
          "indexed": true,
          "internalType": "uint256",
          "name": "tokenId",
          "type": "uint256"
        }
      ],
      "name": "Transfer",
      "type": "event"
    },
    {
      "anonymous": false,
      "inputs": [
        {
          "indexed": true,
          "internalType": "address",
          "name": "usuario",
          "type": "address"
        },
        {
          "indexed": false,
          "internalType": "string",
          "name": "nombre",
          "type": "string"
        },
        {
          "indexed": false,
          "internalType": "uint256",
          "name": "edad",
          "type": "uint256"
        },
        {
          "indexed": false,
          "internalType": "string",
          "name": "correo",
          "type": "string"
        },
        {
          "indexed": false,
          "internalType": "string",
          "name": "rol",
          "type": "string"
        }
      ],
      "name": "UserAdded",
      "type": "event"
    },
    {
      "inputs": [
        {
          "internalType": "address",
          "name": "",
          "type": "address"
        }
      ],
      "name": "admins",
      "outputs": [
        {
          "internalType": "address",
          "name": "adminAddress",
          "type": "address"
        },
        {
          "internalType": "bool",
          "name": "isAdmin",
          "type": "bool"
        }
      ],
      "stateMutability": "view",
      "type": "function",
      "constant": true
    },
    {
      "inputs": [
        {
          "internalType": "address",
          "name": "to",
          "type": "address"
        },
        {
          "internalType": "uint256",
          "name": "tokenId",
          "type": "uint256"
        }
      ],
      "name": "approve",
      "outputs": [],
      "stateMutability": "nonpayable",
      "type": "function"
    },
    {
      "inputs": [
        {
          "internalType": "address",
          "name": "owner",
          "type": "address"
        }
      ],
      "name": "balanceOf",
      "outputs": [
        {
          "internalType": "uint256",
          "name": "",
          "type": "uint256"
        }
      ],
      "stateMutability": "view",
      "type": "function",
      "constant": true
    },
    {
      "inputs": [],
      "name": "certificateTokenId",
      "outputs": [
        {
          "internalType": "uint256",
          "name": "",
          "type": "uint256"
        }
      ],
      "stateMutability": "view",
      "type": "function",
      "constant": true
    },
    {
      "inputs": [
        {
          "internalType": "uint256",
          "name": "",
          "type": "uint256"
        }
      ],
      "name": "certificates",
      "outputs": [
        {
          "internalType": "uint256",
          "name": "tokenId",
          "type": "uint256"
        },
        {
          "internalType": "address",
          "name": "studentAddress",
          "type": "address"
        }
      ],
      "stateMutability": "view",
      "type": "function",
      "constant": true
    },
    {
      "inputs": [],
      "name": "courseCount",
      "outputs": [
        {
          "internalType": "uint256",
          "name": "",
          "type": "uint256"
        }
      ],
      "stateMutability": "view",
      "type": "function",
      "constant": true
    },
    {
      "inputs": [
        {
          "internalType": "uint256",
          "name": "",
          "type": "uint256"
        }
      ],
      "name": "courses",
      "outputs": [
        {
          "internalType": "uint256",
          "name": "id",
          "type": "uint256"
        },
        {
          "internalType": "string",
          "name": "name",
          "type": "string"
        },
        {
          "internalType": "string",
          "name": "description",
          "type": "string"
        },
        {
          "internalType": "string",
          "name": "category",
          "type": "string"
        },
        {
          "internalType": "uint256",
          "name": "price",
          "type": "uint256"
        },
        {
          "internalType": "bool",
          "name": "isActive",
          "type": "bool"
        },
        {
          "internalType": "string",
          "name": "courseImg",
          "type": "string"
        },
        {
          "internalType": "string",
          "name": "courseVid",
          "type": "string"
        }
      ],
      "stateMutability": "view",
      "type": "function",
      "constant": true
    },
    {
      "inputs": [
        {
          "internalType": "uint256",
          "name": "",
          "type": "uint256"
        },
        {
          "internalType": "address",
          "name": "",
          "type": "address"
        }
      ],
      "name": "enrolledStudents",
      "outputs": [
        {
          "internalType": "address",
          "name": "studentAddress",
          "type": "address"
        },
        {
          "internalType": "bool",
          "name": "isEnrolled",
          "type": "bool"
        },
        {
          "internalType": "bool",
          "name": "isCertified",
          "type": "bool"
        }
      ],
      "stateMutability": "view",
      "type": "function",
      "constant": true
    },
    {
      "inputs": [
        {
          "internalType": "uint256",
          "name": "tokenId",
          "type": "uint256"
        }
      ],
      "name": "getApproved",
      "outputs": [
        {
          "internalType": "address",
          "name": "",
          "type": "address"
        }
      ],
      "stateMutability": "view",
      "type": "function",
      "constant": true
    },
    {
      "inputs": [
        {
          "internalType": "address",
          "name": "owner",
          "type": "address"
        },
        {
          "internalType": "address",
          "name": "operator",
          "type": "address"
        }
      ],
      "name": "isApprovedForAll",
      "outputs": [
        {
          "internalType": "bool",
          "name": "",
          "type": "bool"
        }
      ],
      "stateMutability": "view",
      "type": "function",
      "constant": true
    },
    {
      "inputs": [],
      "name": "name",
      "outputs": [
        {
          "internalType": "string",
          "name": "",
          "type": "string"
        }
      ],
      "stateMutability": "view",
      "type": "function",
      "constant": true
    },
    {
      "inputs": [],
      "name": "owner",
      "outputs": [
        {
          "internalType": "address",
          "name": "",
          "type": "address"
        }
      ],
      "stateMutability": "view",
      "type": "function",
      "constant": true
    },
    {
      "inputs": [
        {
          "internalType": "uint256",
          "name": "tokenId",
          "type": "uint256"
        }
      ],
      "name": "ownerOf",
      "outputs": [
        {
          "internalType": "address",
          "name": "",
          "type": "address"
        }
      ],
      "stateMutability": "view",
      "type": "function",
      "constant": true
    },
    {
      "inputs": [
        {
          "internalType": "address",
          "name": "",
          "type": "address"
        }
      ],
      "name": "professors",
      "outputs": [
        {
          "internalType": "address",
          "name": "professorAddress",
          "type": "address"
        },
        {
          "internalType": "bool",
          "name": "isProfessor",
          "type": "bool"
        }
      ],
      "stateMutability": "view",
      "type": "function",
      "constant": true
    },
    {
      "inputs": [],
      "name": "renounceOwnership",
      "outputs": [],
      "stateMutability": "nonpayable",
      "type": "function"
    },
    {
      "inputs": [
        {
          "internalType": "address",
          "name": "from",
          "type": "address"
        },
        {
          "internalType": "address",
          "name": "to",
          "type": "address"
        },
        {
          "internalType": "uint256",
          "name": "tokenId",
          "type": "uint256"
        }
      ],
      "name": "safeTransferFrom",
      "outputs": [],
      "stateMutability": "nonpayable",
      "type": "function"
    },
    {
      "inputs": [
        {
          "internalType": "address",
          "name": "from",
          "type": "address"
        },
        {
          "internalType": "address",
          "name": "to",
          "type": "address"
        },
        {
          "internalType": "uint256",
          "name": "tokenId",
          "type": "uint256"
        },
        {
          "internalType": "bytes",
          "name": "data",
          "type": "bytes"
        }
      ],
      "name": "safeTransferFrom",
      "outputs": [],
      "stateMutability": "nonpayable",
      "type": "function"
    },
    {
      "inputs": [
        {
          "internalType": "address",
          "name": "operator",
          "type": "address"
        },
        {
          "internalType": "bool",
          "name": "approved",
          "type": "bool"
        }
      ],
      "name": "setApprovalForAll",
      "outputs": [],
      "stateMutability": "nonpayable",
      "type": "function"
    },
    {
      "inputs": [
        {
          "internalType": "bytes4",
          "name": "interfaceId",
          "type": "bytes4"
        }
      ],
      "name": "supportsInterface",
      "outputs": [
        {
          "internalType": "bool",
          "name": "",
          "type": "bool"
        }
      ],
      "stateMutability": "view",
      "type": "function",
      "constant": true
    },
    {
      "inputs": [],
      "name": "symbol",
      "outputs": [
        {
          "internalType": "string",
          "name": "",
          "type": "string"
        }
      ],
      "stateMutability": "view",
      "type": "function",
      "constant": true
    },
    {
      "inputs": [
        {
          "internalType": "uint256",
          "name": "tokenId",
          "type": "uint256"
        }
      ],
      "name": "tokenURI",
      "outputs": [
        {
          "internalType": "string",
          "name": "",
          "type": "string"
        }
      ],
      "stateMutability": "view",
      "type": "function",
      "constant": true
    },
    {
      "inputs": [
        {
          "internalType": "address",
          "name": "from",
          "type": "address"
        },
        {
          "internalType": "address",
          "name": "to",
          "type": "address"
        },
        {
          "internalType": "uint256",
          "name": "tokenId",
          "type": "uint256"
        }
      ],
      "name": "transferFrom",
      "outputs": [],
      "stateMutability": "nonpayable",
      "type": "function"
    },
    {
      "inputs": [
        {
          "internalType": "address",
          "name": "newOwner",
          "type": "address"
        }
      ],
      "name": "transferOwnership",
      "outputs": [],
      "stateMutability": "nonpayable",
      "type": "function"
    },
    {
      "inputs": [
        {
          "internalType": "string",
          "name": "_role",
          "type": "string"
        }
      ],
      "name": "asignRoleToUser",
      "outputs": [],
      "stateMutability": "nonpayable",
      "type": "function"
    },
    {
      "inputs": [
        {
          "internalType": "string",
          "name": "_role",
          "type": "string"
        }
      ],
      "name": "deleteAdminOrProfessor",
      "outputs": [],
      "stateMutability": "nonpayable",
      "type": "function"
    },
    {
      "inputs": [
        {
          "internalType": "string",
          "name": "_name",
          "type": "string"
        },
        {
          "internalType": "string",
          "name": "_description",
          "type": "string"
        },
        {
          "internalType": "string",
          "name": "_category",
          "type": "string"
        },
        {
          "internalType": "uint256",
          "name": "_price",
          "type": "uint256"
        },
        {
          "internalType": "string",
          "name": "_img",
          "type": "string"
        },
        {
          "internalType": "string",
          "name": "_vid",
          "type": "string"
        }
      ],
      "name": "createCourse",
      "outputs": [],
      "stateMutability": "nonpayable",
      "type": "function"
    },
    {
      "inputs": [
        {
          "internalType": "uint256",
          "name": "_courseId",
          "type": "uint256"
        }
      ],
      "name": "enroll",
      "outputs": [],
      "stateMutability": "payable",
      "type": "function",
      "payable": true
    },
    {
      "inputs": [
        {
          "internalType": "uint256",
          "name": "_courseId",
          "type": "uint256"
        },
        {
          "internalType": "address",
          "name": "_student",
          "type": "address"
        }
      ],
      "name": "issueCertificate",
      "outputs": [],
      "stateMutability": "nonpayable",
      "type": "function"
    },
    {
      "inputs": [
        {
          "internalType": "address",
          "name": "_professorAddress",
          "type": "address"
        }
      ],
      "name": "addProfessor",
      "outputs": [],
      "stateMutability": "nonpayable",
      "type": "function"
    },
    {
      "inputs": [
        {
          "internalType": "address",
          "name": "_adminAddress",
          "type": "address"
        }
      ],
      "name": "addAdmin",
      "outputs": [],
      "stateMutability": "nonpayable",
      "type": "function"
    },
    {
      "inputs": [
        {
          "internalType": "address",
          "name": "_professorAddress",
          "type": "address"
        },
        {
          "internalType": "bool",
          "name": "_isProfessor",
          "type": "bool"
        }
      ],
      "name": "updateProfessor",
      "outputs": [],
      "stateMutability": "nonpayable",
      "type": "function"
    },
    {
      "inputs": [
        {
          "internalType": "address",
          "name": "_adminAddress",
          "type": "address"
        },
        {
          "internalType": "bool",
          "name": "_isAdmin",
          "type": "bool"
        }
      ],
      "name": "updateAdmin",
      "outputs": [],
      "stateMutability": "nonpayable",
      "type": "function"
    },
    {
      "inputs": [],
      "name": "withdraw",
      "outputs": [],
      "stateMutability": "nonpayable",
      "type": "function"
    },
    {
      "inputs": [
        {
          "internalType": "uint256",
          "name": "_idCourse",
          "type": "uint256"
        }
      ],
      "name": "removeCourse",
      "outputs": [],
      "stateMutability": "nonpayable",
      "type": "function"
    },
    {
      "inputs": [
        {
          "internalType": "uint256",
          "name": "_courseId",
          "type": "uint256"
        },
        {
          "internalType": "address",
          "name": "_student",
          "type": "address"
        }
      ],
      "name": "removeStudentFromCourse",
      "outputs": [],
      "stateMutability": "nonpayable",
      "type": "function"
    },
    {
      "inputs": [
        {
          "internalType": "string",
          "name": "_nombre",
          "type": "string"
        },
        {
          "internalType": "uint256",
          "name": "_edad",
          "type": "uint256"
        },
        {
          "internalType": "string",
          "name": "_correo",
          "type": "string"
        },
        {
          "internalType": "string",
          "name": "_role",
          "type": "string"
        }
      ],
      "name": "addUser",
      "outputs": [],
      "stateMutability": "nonpayable",
      "type": "function"
    },
    {
      "inputs": [
        {
          "internalType": "address",
          "name": "_usuario",
          "type": "address"
        }
      ],
      "name": "obtenerUsuario",
      "outputs": [
        {
          "internalType": "string",
          "name": "nombre",
          "type": "string"
        },
        {
          "internalType": "uint256",
          "name": "edad",
          "type": "uint256"
        },
        {
          "internalType": "string",
          "name": "correo",
          "type": "string"
        },
        {
          "internalType": "string",
          "name": "rol",
          "type": "string"
        }
      ],
      "stateMutability": "view",
      "type": "function",
      "constant": true
    },
    {
      "inputs": [],
      "name": "removeUser",
      "outputs": [],
      "stateMutability": "nonpayable",
      "type": "function"
    }
  ],
  "bytecode": "0x60806040525f6007555f60085534801562000018575f80fd5b50336040518060400160405280601181526020017f436f7572736543657274696669636174650000000000000000000000000000008152506040518060400160405280600581526020017f4343455254000000000000000000000000000000000000000000000000000000815250815f90816200009691906200045d565b508060019081620000a891906200045d565b5050505f73ffffffffffffffffffffffffffffffffffffffff168173ffffffffffffffffffffffffffffffffffffffff16036200011e575f6040517f1e4fbdf700000000000000000000000000000000000000000000000000000000815260040162000115919062000584565b60405180910390fd5b6200012f816200013660201b60201c565b506200059f565b5f60065f9054906101000a900473ffffffffffffffffffffffffffffffffffffffff1690508160065f6101000a81548173ffffffffffffffffffffffffffffffffffffffff021916908373ffffffffffffffffffffffffffffffffffffffff1602179055508173ffffffffffffffffffffffffffffffffffffffff168173ffffffffffffffffffffffffffffffffffffffff167f8be0079c531659141344cd1fd0a4f28419497f9722a3daafe3b4186f6b6457e060405160405180910390a35050565b5f81519050919050565b7f4e487b71000000000000000000000000000000000000000000000000000000005f52604160045260245ffd5b7f4e487b71000000000000000000000000000000000000000000000000000000005f52602260045260245ffd5b5f60028204905060018216806200027557607f821691505b6020821081036200028b576200028a62000230565b5b50919050565b5f819050815f5260205f209050919050565b5f6020601f8301049050919050565b5f82821b905092915050565b5f60088302620002ef7fffffffffffffffffffffffffffffffffffffffffffffffffffffffffffffffff82620002b2565b620002fb8683620002b2565b95508019841693508086168417925050509392505050565b5f819050919050565b5f819050919050565b5f620003456200033f620003398462000313565b6200031c565b62000313565b9050919050565b5f819050919050565b620003608362000325565b620003786200036f826200034c565b848454620002be565b825550505050565b5f90565b6200038e62000380565b6200039b81848462000355565b505050565b5b81811015620003c257620003b65f8262000384565b600181019050620003a1565b5050565b601f8211156200041157620003db8162000291565b620003e684620002a3565b81016020851015620003f6578190505b6200040e6200040585620002a3565b830182620003a0565b50505b505050565b5f82821c905092915050565b5f620004335f198460080262000416565b1980831691505092915050565b5f6200044d838362000422565b9150826002028217905092915050565b6200046882620001f9565b67ffffffffffffffff81111562000484576200048362000203565b5b6200049082546200025d565b6200049d828285620003c6565b5f60209050601f831160018114620004d3575f8415620004be578287015190505b620004ca858262000440565b86555062000539565b601f198416620004e38662000291565b5f5b828110156200050c57848901518255600182019150602085019450602081019050620004e5565b868310156200052c578489015162000528601f89168262000422565b8355505b6001600288020188555050505b505050505050565b5f73ffffffffffffffffffffffffffffffffffffffff82169050919050565b5f6200056c8262000541565b9050919050565b6200057e8162000560565b82525050565b5f602082019050620005995f83018462000573565b92915050565b61577280620005ad5f395ff3fe608060405260043610610224575f3560e01c8063715018a611610122578063c87b56dd116100aa578063eda6c2d71161006e578063eda6c2d71461081f578063f2fde38b1461085d578063f3bd994a14610885578063f57d585b146108ad578063f944f4c7146108c957610224565b8063c87b56dd1461071a578063c9b2338d14610756578063cd1e9e2b1461077e578063df3addfa146107bb578063e985e9c5146107e357610224565b806395d89b41116100f157806395d89b411461063557806396f979d21461065f57806397e22966146106a2578063a22cb465146106ca578063b88d4fde146106f257610224565b8063715018a6146105a557806381a1edb1146105bb5780638da5cb5b146105e35780638fe8b3911461060d57610224565b8063429b62e5116101b0578063663b3e2211610174578063663b3e22146104b4578063670a6fd9146104f15780636b08d36314610519578063704802751461054157806370a082311461056957610224565b8063429b62e5146103a85780634b24691f146103e55780634f78c5991461040f5780636352211e1461044e578063660551591461048a57610224565b806323b872dd116101f757806323b872dd146102f25780632c233e151461031a5780633ccfd60b146103425780634268edaa1461035857806342842e0e1461038057610224565b806301ffc9a71461022857806306fdde0314610264578063081812fc1461028e578063095ea7b3146102ca575b5f80fd5b348015610233575f80fd5b5061024e600480360381019061024991906140e1565b6108df565b60405161025b9190614126565b60405180910390f35b34801561026f575f80fd5b506102786109c0565b60405161028591906141c9565b60405180910390f35b348015610299575f80fd5b506102b460048036038101906102af919061421c565b610a4f565b6040516102c19190614286565b60405180910390f35b3480156102d5575f80fd5b506102f060048036038101906102eb91906142c9565b610a6a565b005b3480156102fd575f80fd5b5061031860048036038101906103139190614307565b610a80565b005b348015610325575f80fd5b50610340600480360381019061033b9190614483565b610b7f565b005b34801561034d575f80fd5b50610356610d19565b005b348015610363575f80fd5b5061037e60048036038101906103799190614598565b610d6e565b005b34801561038b575f80fd5b506103a660048036038101906103a19190614307565b610e81565b005b3480156103b3575f80fd5b506103ce60048036038101906103c99190614598565b610ea0565b6040516103dc9291906145c3565b60405180910390f35b3480156103f0575f80fd5b506103f9610eeb565b60405161040691906145f9565b60405180910390f35b34801561041a575f80fd5b5061043560048036038101906104309190614598565b610ef1565b6040516104459493929190614612565b60405180910390f35b348015610459575f80fd5b50610474600480360381019061046f919061421c565b6110f5565b6040516104819190614286565b60405180910390f35b348015610495575f80fd5b5061049e611106565b6040516104ab91906145f9565b60405180910390f35b3480156104bf575f80fd5b506104da60048036038101906104d5919061421c565b61110c565b6040516104e892919061466a565b60405180910390f35b3480156104fc575f80fd5b50610517600480360381019061051291906146bb565b61114b565b005b348015610524575f80fd5b5061053f600480360381019061053a91906146f9565b61127a565b005b34801561054c575f80fd5b5061056760048036038101906105629190614598565b6113b3565b005b348015610574575f80fd5b5061058f600480360381019061058a9190614598565b6114c6565b60405161059c91906145f9565b60405180910390f35b3480156105b0575f80fd5b506105b961157c565b005b3480156105c6575f80fd5b506105e160048036038101906105dc9190614737565b61158f565b005b3480156105ee575f80fd5b506105f7611861565b6040516106049190614286565b60405180910390f35b348015610618575f80fd5b50610633600480360381019061062e91906146f9565b611889565b005b348015610640575f80fd5b50610649611b27565b60405161065691906141c9565b60405180910390f35b34801561066a575f80fd5b506106856004803603810190610680919061421c565b611bb7565b60405161069998979695949392919061477e565b60405180910390f35b3480156106ad575f80fd5b506106c860048036038101906106c391906146bb565b611ea5565b005b3480156106d5575f80fd5b506106f060048036038101906106eb91906146bb565b611fd4565b005b3480156106fd575f80fd5b50610718600480360381019061071391906148bb565b611fea565b005b348015610725575f80fd5b50610740600480360381019061073b919061421c565b612007565b60405161074d91906141c9565b60405180910390f35b348015610761575f80fd5b5061077c6004803603810190610777919061493b565b61206d565b005b348015610789575f80fd5b506107a4600480360381019061079f9190614598565b612441565b6040516107b29291906145c3565b60405180910390f35b3480156107c6575f80fd5b506107e160048036038101906107dc919061421c565b61248c565b005b3480156107ee575f80fd5b50610809600480360381019061080491906149f3565b61256e565b6040516108169190614126565b60405180910390f35b34801561082a575f80fd5b50610845600480360381019061084091906146f9565b6125fc565b60405161085493929190614a31565b60405180910390f35b348015610868575f80fd5b50610883600480360381019061087e9190614598565b612664565b005b348015610890575f80fd5b506108ab60048036038101906108a69190614737565b6126e8565b005b6108c760048036038101906108c2919061421c565b612954565b005b3480156108d4575f80fd5b506108dd612ee0565b005b5f7f80ac58cd000000000000000000000000000000000000000000000000000000007bffffffffffffffffffffffffffffffffffffffffffffffffffffffff1916827bffffffffffffffffffffffffffffffffffffffffffffffffffffffff191614806109a957507f5b5e139f000000000000000000000000000000000000000000000000000000007bffffffffffffffffffffffffffffffffffffffffffffffffffffffff1916827bffffffffffffffffffffffffffffffffffffffffffffffffffffffff1916145b806109b957506109b88261319b565b5b9050919050565b60605f80546109ce90614a93565b80601f01602080910402602001604051908101604052809291908181526020018280546109fa90614a93565b8015610a455780601f10610a1c57610100808354040283529160200191610a45565b820191905f5260205f20905b815481529060010190602001808311610a2857829003601f168201915b5050505050905090565b5f610a5982613204565b50610a638261328a565b9050919050565b610a7c8282610a776132c3565b6132ca565b5050565b5f73ffffffffffffffffffffffffffffffffffffffff168273ffffffffffffffffffffffffffffffffffffffff1603610af0575f6040517f64a0ae92000000000000000000000000000000000000000000000000000000008152600401610ae79190614286565b60405180910390fd5b5f610b038383610afe6132c3565b6132dc565b90508373ffffffffffffffffffffffffffffffffffffffff168173ffffffffffffffffffffffffffffffffffffffff1614610b79578382826040517f64283d7b000000000000000000000000000000000000000000000000000000008152600401610b7093929190614ac3565b60405180910390fd5b50505050565b610b876134e7565b5f8311610bc9576040517f08c379a0000000000000000000000000000000000000000000000000000000008152600401610bc090614b68565b60405180910390fd5b604051806101000160405280600754815260200187815260200186815260200185815260200184815260200160011515815260200183815260200182815250600a5f60075481526020019081526020015f205f820151815f01556020820151816001019081610c389190614d23565b506040820151816002019081610c4e9190614d23565b506060820151816003019081610c649190614d23565b506080820151816004015560a0820151816005015f6101000a81548160ff02191690831515021790555060c0820151816006019081610ca39190614d23565b5060e0820151816007019081610cb99190614d23565b5090505060075f815480929190610ccf90614e1f565b91905055507f642f95fc4f73850f9892227ccee20fac4904ba0645894b644766d21a1a8d82056007548785604051610d0993929190614e66565b60405180910390a1505050505050565b610d216134e7565b610d29611861565b73ffffffffffffffffffffffffffffffffffffffff166108fc4790811502906040515f60405180830381858888f19350505050158015610d6b573d5f803e3d5ffd5b50565b610d766134e7565b60405180604001604052808273ffffffffffffffffffffffffffffffffffffffff16815260200160011515815250600c5f8373ffffffffffffffffffffffffffffffffffffffff1673ffffffffffffffffffffffffffffffffffffffff1681526020019081526020015f205f820151815f015f6101000a81548173ffffffffffffffffffffffffffffffffffffffff021916908373ffffffffffffffffffffffffffffffffffffffff1602179055506020820151815f0160146101000a81548160ff0219169083151502179055509050507fc314a8ab46f679df157d309facb47ada7dbb5e5e6f33f130257acb39c8237c4081604051610e769190614286565b60405180910390a150565b610e9b83838360405180602001604052805f815250611fea565b505050565b600d602052805f5260405f205f91509050805f015f9054906101000a900473ffffffffffffffffffffffffffffffffffffffff1690805f0160149054906101000a900460ff16905082565b60085481565b60605f6060805f60095f8773ffffffffffffffffffffffffffffffffffffffff1673ffffffffffffffffffffffffffffffffffffffff1681526020019081526020015f209050805f0181600101548260020183600301838054610f5390614a93565b80601f0160208091040260200160405190810160405280929190818152602001828054610f7f90614a93565b8015610fca5780601f10610fa157610100808354040283529160200191610fca565b820191905f5260205f20905b815481529060010190602001808311610fad57829003601f168201915b50505050509350818054610fdd90614a93565b80601f016020809104026020016040519081016040528092919081815260200182805461100990614a93565b80156110545780601f1061102b57610100808354040283529160200191611054565b820191905f5260205f20905b81548152906001019060200180831161103757829003601f168201915b5050505050915080805461106790614a93565b80601f016020809104026020016040519081016040528092919081815260200182805461109390614a93565b80156110de5780601f106110b5576101008083540402835291602001916110de565b820191905f5260205f20905b8154815290600101906020018083116110c157829003601f168201915b505050505090509450945094509450509193509193565b5f6110ff82613204565b9050919050565b60075481565b600e602052805f5260405f205f91509050805f015490806001015f9054906101000a900473ffffffffffffffffffffffffffffffffffffffff16905082565b6111536134e7565b8173ffffffffffffffffffffffffffffffffffffffff16600d5f8473ffffffffffffffffffffffffffffffffffffffff1673ffffffffffffffffffffffffffffffffffffffff1681526020019081526020015f205f015f9054906101000a900473ffffffffffffffffffffffffffffffffffffffff1673ffffffffffffffffffffffffffffffffffffffff161461121f576040517f08c379a000000000000000000000000000000000000000000000000000000000815260040161121690614eec565b60405180910390fd5b80600d5f8473ffffffffffffffffffffffffffffffffffffffff1673ffffffffffffffffffffffffffffffffffffffff1681526020019081526020015f205f0160146101000a81548160ff0219169083151502179055505050565b600b5f8381526020019081526020015f205f8273ffffffffffffffffffffffffffffffffffffffff1673ffffffffffffffffffffffffffffffffffffffff1681526020019081526020015f205f0160149054906101000a900460ff16611315576040517f08c379a000000000000000000000000000000000000000000000000000000000815260040161130c90614f54565b60405180910390fd5b600b5f8381526020019081526020015f205f8273ffffffffffffffffffffffffffffffffffffffff1673ffffffffffffffffffffffffffffffffffffffff1681526020019081526020015f205f8082015f6101000a81549073ffffffffffffffffffffffffffffffffffffffff02191690555f820160146101000a81549060ff02191690555f820160156101000a81549060ff021916905550505050565b6113bb6134e7565b60405180604001604052808273ffffffffffffffffffffffffffffffffffffffff16815260200160011515815250600d5f8373ffffffffffffffffffffffffffffffffffffffff1673ffffffffffffffffffffffffffffffffffffffff1681526020019081526020015f205f820151815f015f6101000a81548173ffffffffffffffffffffffffffffffffffffffff021916908373ffffffffffffffffffffffffffffffffffffffff1602179055506020820151815f0160146101000a81548160ff0219169083151502179055509050507f44d6d25963f097ad14f29f06854a01f575648a1ef82f30e562ccd3889717e339816040516114bb9190614286565b60405180910390a150565b5f8073ffffffffffffffffffffffffffffffffffffffff168273ffffffffffffffffffffffffffffffffffffffff1603611537575f6040517f89c62b6400000000000000000000000000000000000000000000000000000000815260040161152e9190614286565b60405180910390fd5b60035f8373ffffffffffffffffffffffffffffffffffffffff1673ffffffffffffffffffffffffffffffffffffffff1681526020019081526020015f20549050919050565b6115846134e7565b61158d5f61356e565b565b5f816040516020016115a19190614fac565b6040516020818303038152906040528051906020012090506040516020016115c89061500c565b6040516020818303038152906040528051906020012081036116ed57600c5f3373ffffffffffffffffffffffffffffffffffffffff1673ffffffffffffffffffffffffffffffffffffffff1681526020019081526020015f205f0160149054906101000a900460ff16611670576040517f08c379a00000000000000000000000000000000000000000000000000000000081526004016116679061506a565b60405180910390fd5b600c5f3373ffffffffffffffffffffffffffffffffffffffff1673ffffffffffffffffffffffffffffffffffffffff1681526020019081526020015f205f8082015f6101000a81549073ffffffffffffffffffffffffffffffffffffffff02191690555f820160146101000a81549060ff0219169055505061185d565b6040516020016116fc906150d2565b60405160208183030381529060405280519060200120810361182157600d5f3373ffffffffffffffffffffffffffffffffffffffff1673ffffffffffffffffffffffffffffffffffffffff1681526020019081526020015f205f0160149054906101000a900460ff166117a4576040517f08c379a000000000000000000000000000000000000000000000000000000000815260040161179b90615130565b60405180910390fd5b600d5f3373ffffffffffffffffffffffffffffffffffffffff1673ffffffffffffffffffffffffffffffffffffffff1681526020019081526020015f205f8082015f6101000a81549073ffffffffffffffffffffffffffffffffffffffff02191690555f820160146101000a81549060ff0219169055505061185c565b6040517f08c379a000000000000000000000000000000000000000000000000000000000815260040161185390615198565b60405180910390fd5b5b5050565b5f60065f9054906101000a900473ffffffffffffffffffffffffffffffffffffffff16905090565b6118916134e7565b600b5f8381526020019081526020015f205f8273ffffffffffffffffffffffffffffffffffffffff1673ffffffffffffffffffffffffffffffffffffffff1681526020019081526020015f205f0160149054906101000a900460ff1661192c576040517f08c379a000000000000000000000000000000000000000000000000000000000815260040161192390614f54565b60405180910390fd5b5f1515600b5f8481526020019081526020015f205f8373ffffffffffffffffffffffffffffffffffffffff1673ffffffffffffffffffffffffffffffffffffffff1681526020019081526020015f205f0160159054906101000a900460ff161515146119cd576040517f08c379a00000000000000000000000000000000000000000000000000000000081526004016119c490615200565b60405180910390fd5b6119d981600854613631565b6001600b5f8481526020019081526020015f205f8373ffffffffffffffffffffffffffffffffffffffff1673ffffffffffffffffffffffffffffffffffffffff1681526020019081526020015f205f0160156101000a81548160ff021916908315150217905550604051806040016040528060085481526020018273ffffffffffffffffffffffffffffffffffffffff16815250600e5f60085481526020019081526020015f205f820151815f01556020820151816001015f6101000a81548173ffffffffffffffffffffffffffffffffffffffff021916908373ffffffffffffffffffffffffffffffffffffffff1602179055509050507ffec61b9ec0e29047dbeea981617649d79f187d172cfd492695a3d0bfee28883e81600854604051611b0492919061521e565b60405180910390a160085f815480929190611b1e90614e1f565b91905055505050565b606060018054611b3690614a93565b80601f0160208091040260200160405190810160405280929190818152602001828054611b6290614a93565b8015611bad5780601f10611b8457610100808354040283529160200191611bad565b820191905f5260205f20905b815481529060010190602001808311611b9057829003601f168201915b5050505050905090565b600a602052805f5260405f205f91509050805f015490806001018054611bdc90614a93565b80601f0160208091040260200160405190810160405280929190818152602001828054611c0890614a93565b8015611c535780601f10611c2a57610100808354040283529160200191611c53565b820191905f5260205f20905b815481529060010190602001808311611c3657829003601f168201915b505050505090806002018054611c6890614a93565b80601f0160208091040260200160405190810160405280929190818152602001828054611c9490614a93565b8015611cdf5780601f10611cb657610100808354040283529160200191611cdf565b820191905f5260205f20905b815481529060010190602001808311611cc257829003601f168201915b505050505090806003018054611cf490614a93565b80601f0160208091040260200160405190810160405280929190818152602001828054611d2090614a93565b8015611d6b5780601f10611d4257610100808354040283529160200191611d6b565b820191905f5260205f20905b815481529060010190602001808311611d4e57829003601f168201915b505050505090806004015490806005015f9054906101000a900460ff1690806006018054611d9890614a93565b80601f0160208091040260200160405190810160405280929190818152602001828054611dc490614a93565b8015611e0f5780601f10611de657610100808354040283529160200191611e0f565b820191905f5260205f20905b815481529060010190602001808311611df257829003601f168201915b505050505090806007018054611e2490614a93565b80601f0160208091040260200160405190810160405280929190818152602001828054611e5090614a93565b8015611e9b5780601f10611e7257610100808354040283529160200191611e9b565b820191905f5260205f20905b815481529060010190602001808311611e7e57829003601f168201915b5050505050905088565b611ead6134e7565b8173ffffffffffffffffffffffffffffffffffffffff16600c5f8473ffffffffffffffffffffffffffffffffffffffff1673ffffffffffffffffffffffffffffffffffffffff1681526020019081526020015f205f015f9054906101000a900473ffffffffffffffffffffffffffffffffffffffff1673ffffffffffffffffffffffffffffffffffffffff1614611f79576040517f08c379a0000000000000000000000000000000000000000000000000000000008152600401611f709061528f565b60405180910390fd5b80600c5f8473ffffffffffffffffffffffffffffffffffffffff1673ffffffffffffffffffffffffffffffffffffffff1681526020019081526020015f205f0160146101000a81548160ff0219169083151502179055505050565b611fe6611fdf6132c3565b838361364e565b5050565b611ff5848484610a80565b612001848484846137b7565b50505050565b606061201282613204565b505f61201c613969565b90505f81511161203a5760405180602001604052805f815250612065565b806120448461397f565b6040516020016120559291906152ad565b6040516020818303038152906040525b915050919050565b5f60095f3373ffffffffffffffffffffffffffffffffffffffff1673ffffffffffffffffffffffffffffffffffffffff1681526020019081526020015f205f0180546120b890614a93565b9050146120fa576040517f08c379a00000000000000000000000000000000000000000000000000000000081526004016120f19061531a565b60405180910390fd5b5f8160405160200161210c9190614fac565b604051602081830303815290604052805190602001209050604051602001612133906150d2565b60405160208183030381529060405280519060200120811415801561217c57506040516020016121629061500c565b604051602081830303815290604052805190602001208114155b80156121ac575060405160200161219290615382565b604051602081830303815290604052805190602001208114155b156121ec576040517f08c379a00000000000000000000000000000000000000000000000000000000081526004016121e3906153e0565b60405180910390fd5b60405180608001604052808681526020018581526020018481526020018381525060095f3373ffffffffffffffffffffffffffffffffffffffff1673ffffffffffffffffffffffffffffffffffffffff1681526020019081526020015f205f820151815f01908161225d9190614d23565b5060208201518160010155604082015181600201908161227d9190614d23565b5060608201518160030190816122939190614d23565b509050505f60095f3373ffffffffffffffffffffffffffffffffffffffff1673ffffffffffffffffffffffffffffffffffffffff1681526020019081526020015f2060030180546122e390614a93565b9050146123e6576040516020016122f990615382565b6040516020818303038152906040528051906020012081146123e5576123e460095f3373ffffffffffffffffffffffffffffffffffffffff1673ffffffffffffffffffffffffffffffffffffffff1681526020019081526020015f20600301805461236390614a93565b80601f016020809104026020016040519081016040528092919081815260200182805461238f90614a93565b80156123da5780601f106123b1576101008083540402835291602001916123da565b820191905f5260205f20905b8154815290600101906020018083116123bd57829003601f168201915b50505050506126e8565b5b5b3373ffffffffffffffffffffffffffffffffffffffff167f93c49eb1f13ebf39cf4e8e4121a855c3ec5b9690af4c714ecd1381bc485bc0c6868686866040516124329493929190614612565b60405180910390a25050505050565b600c602052805f5260405f205f91509050805f015f9054906101000a900473ffffffffffffffffffffffffffffffffffffffff1690805f0160149054906101000a900460ff16905082565b600a5f8281526020019081526020015f206005015f9054906101000a900460ff166124ec576040517f08c379a00000000000000000000000000000000000000000000000000000000081526004016124e390615448565b60405180910390fd5b600a5f8281526020019081526020015f205f8082015f9055600182015f6125139190614023565b600282015f6125229190614023565b600382015f6125319190614023565b600482015f9055600582015f6101000a81549060ff0219169055600682015f61255a9190614023565b600782015f6125699190614023565b505050565b5f60055f8473ffffffffffffffffffffffffffffffffffffffff1673ffffffffffffffffffffffffffffffffffffffff1681526020019081526020015f205f8373ffffffffffffffffffffffffffffffffffffffff1673ffffffffffffffffffffffffffffffffffffffff1681526020019081526020015f205f9054906101000a900460ff16905092915050565b600b602052815f5260405f20602052805f5260405f205f9150915050805f015f9054906101000a900473ffffffffffffffffffffffffffffffffffffffff1690805f0160149054906101000a900460ff1690805f0160159054906101000a900460ff16905083565b61266c6134e7565b5f73ffffffffffffffffffffffffffffffffffffffff168173ffffffffffffffffffffffffffffffffffffffff16036126dc575f6040517f1e4fbdf70000000000000000000000000000000000000000000000000000000081526004016126d39190614286565b60405180910390fd5b6126e58161356e565b50565b5f816040516020016126fa9190614fac565b6040516020818303038152906040528051906020012090506040516020016127219061500c565b6040516020818303038152906040528051906020012081036128135760405180604001604052803373ffffffffffffffffffffffffffffffffffffffff16815260200160011515815250600c5f3373ffffffffffffffffffffffffffffffffffffffff1673ffffffffffffffffffffffffffffffffffffffff1681526020019081526020015f205f820151815f015f6101000a81548173ffffffffffffffffffffffffffffffffffffffff021916908373ffffffffffffffffffffffffffffffffffffffff1602179055506020820151815f0160146101000a81548160ff021916908315150217905550905050612950565b604051602001612822906150d2565b6040516020818303038152906040528051906020012081036129145760405180604001604052803373ffffffffffffffffffffffffffffffffffffffff16815260200160011515815250600d5f3373ffffffffffffffffffffffffffffffffffffffff1673ffffffffffffffffffffffffffffffffffffffff1681526020019081526020015f205f820151815f015f6101000a81548173ffffffffffffffffffffffffffffffffffffffff021916908373ffffffffffffffffffffffffffffffffffffffff1602179055506020820151815f0160146101000a81548160ff02191690831515021790555090505061294f565b6040517f08c379a000000000000000000000000000000000000000000000000000000000815260040161294690615198565b60405180910390fd5b5b5050565b5f600a5f8381526020019081526020015f20604051806101000160405290815f820154815260200160018201805461298b90614a93565b80601f01602080910402602001604051908101604052809291908181526020018280546129b790614a93565b8015612a025780601f106129d957610100808354040283529160200191612a02565b820191905f5260205f20905b8154815290600101906020018083116129e557829003601f168201915b50505050508152602001600282018054612a1b90614a93565b80601f0160208091040260200160405190810160405280929190818152602001828054612a4790614a93565b8015612a925780601f10612a6957610100808354040283529160200191612a92565b820191905f5260205f20905b815481529060010190602001808311612a7557829003601f168201915b50505050508152602001600382018054612aab90614a93565b80601f0160208091040260200160405190810160405280929190818152602001828054612ad790614a93565b8015612b225780601f10612af957610100808354040283529160200191612b22565b820191905f5260205f20905b815481529060010190602001808311612b0557829003601f168201915b5050505050815260200160048201548152602001600582015f9054906101000a900460ff16151515158152602001600682018054612b5f90614a93565b80601f0160208091040260200160405190810160405280929190818152602001828054612b8b90614a93565b8015612bd65780601f10612bad57610100808354040283529160200191612bd6565b820191905f5260205f20905b815481529060010190602001808311612bb957829003601f168201915b50505050508152602001600782018054612bef90614a93565b80601f0160208091040260200160405190810160405280929190818152602001828054612c1b90614a93565b8015612c665780601f10612c3d57610100808354040283529160200191612c66565b820191905f5260205f20905b815481529060010190602001808311612c4957829003601f168201915b50505050508152505090508060a00151612cb5576040517f08c379a0000000000000000000000000000000000000000000000000000000008152600401612cac90615448565b60405180910390fd5b80608001513414612cfb576040517f08c379a0000000000000000000000000000000000000000000000000000000008152600401612cf2906154b0565b60405180910390fd5b5f1515600b5f8481526020019081526020015f205f3373ffffffffffffffffffffffffffffffffffffffff1673ffffffffffffffffffffffffffffffffffffffff1681526020019081526020015f205f0160149054906101000a900460ff16151514612d9c576040517f08c379a0000000000000000000000000000000000000000000000000000000008152600401612d9390615518565b60405180910390fd5b60405180606001604052803373ffffffffffffffffffffffffffffffffffffffff1681526020016001151581526020015f1515815250600b5f8481526020019081526020015f205f3373ffffffffffffffffffffffffffffffffffffffff1673ffffffffffffffffffffffffffffffffffffffff1681526020019081526020015f205f820151815f015f6101000a81548173ffffffffffffffffffffffffffffffffffffffff021916908373ffffffffffffffffffffffffffffffffffffffff1602179055506020820151815f0160146101000a81548160ff0219169083151502179055506040820151815f0160156101000a81548160ff0219169083151502179055509050507f0729bef4a0569fb1fa09db94121e32114ae18918357d5324c3dd31440b83149e8233604051612ed492919061466a565b60405180910390a15050565b5f60095f3373ffffffffffffffffffffffffffffffffffffffff1673ffffffffffffffffffffffffffffffffffffffff1681526020019081526020015f205f018054612f2b90614a93565b905003612f6d576040517f08c379a0000000000000000000000000000000000000000000000000000000008152600401612f6490615580565b60405180910390fd5b5f60095f3373ffffffffffffffffffffffffffffffffffffffff1673ffffffffffffffffffffffffffffffffffffffff1681526020019081526020015f206003018054612fb990614a93565b905014613126575f60095f3373ffffffffffffffffffffffffffffffffffffffff1673ffffffffffffffffffffffffffffffffffffffff1681526020019081526020015f20600301604051602001613011919061561e565b60405160208183030381529060405280519060200120905060405160200161303890615382565b6040516020818303038152906040528051906020012081146131245761312360095f3373ffffffffffffffffffffffffffffffffffffffff1673ffffffffffffffffffffffffffffffffffffffff1681526020019081526020015f2060030180546130a290614a93565b80601f01602080910402602001604051908101604052809291908181526020018280546130ce90614a93565b80156131195780601f106130f057610100808354040283529160200191613119565b820191905f5260205f20905b8154815290600101906020018083116130fc57829003601f168201915b505050505061158f565b5b505b60095f3373ffffffffffffffffffffffffffffffffffffffff1673ffffffffffffffffffffffffffffffffffffffff1681526020019081526020015f205f8082015f6131729190614023565b600182015f9055600282015f6131889190614023565b600382015f6131979190614023565b5050565b5f7f01ffc9a7000000000000000000000000000000000000000000000000000000007bffffffffffffffffffffffffffffffffffffffffffffffffffffffff1916827bffffffffffffffffffffffffffffffffffffffffffffffffffffffff1916149050919050565b5f8061320f83613a49565b90505f73ffffffffffffffffffffffffffffffffffffffff168173ffffffffffffffffffffffffffffffffffffffff160361328157826040517f7e27328900000000000000000000000000000000000000000000000000000000815260040161327891906145f9565b60405180910390fd5b80915050919050565b5f60045f8381526020019081526020015f205f9054906101000a900473ffffffffffffffffffffffffffffffffffffffff169050919050565b5f33905090565b6132d78383836001613a82565b505050565b5f806132e784613a49565b90505f73ffffffffffffffffffffffffffffffffffffffff168373ffffffffffffffffffffffffffffffffffffffff161461332857613327818486613c41565b5b5f73ffffffffffffffffffffffffffffffffffffffff168173ffffffffffffffffffffffffffffffffffffffff16146133b3576133675f855f80613a82565b600160035f8373ffffffffffffffffffffffffffffffffffffffff1673ffffffffffffffffffffffffffffffffffffffff1681526020019081526020015f205f82825403925050819055505b5f73ffffffffffffffffffffffffffffffffffffffff168573ffffffffffffffffffffffffffffffffffffffff161461343257600160035f8773ffffffffffffffffffffffffffffffffffffffff1673ffffffffffffffffffffffffffffffffffffffff1681526020019081526020015f205f82825401925050819055505b8460025f8681526020019081526020015f205f6101000a81548173ffffffffffffffffffffffffffffffffffffffff021916908373ffffffffffffffffffffffffffffffffffffffff160217905550838573ffffffffffffffffffffffffffffffffffffffff168273ffffffffffffffffffffffffffffffffffffffff167fddf252ad1be2c89b69c2b068fc378daa952ba7f163c4a11628f55a4df523b3ef60405160405180910390a4809150509392505050565b6134ef6132c3565b73ffffffffffffffffffffffffffffffffffffffff1661350d611861565b73ffffffffffffffffffffffffffffffffffffffff161461356c576135306132c3565b6040517f118cdaa70000000000000000000000000000000000000000000000000000000081526004016135639190614286565b60405180910390fd5b565b5f60065f9054906101000a900473ffffffffffffffffffffffffffffffffffffffff1690508160065f6101000a81548173ffffffffffffffffffffffffffffffffffffffff021916908373ffffffffffffffffffffffffffffffffffffffff1602179055508173ffffffffffffffffffffffffffffffffffffffff168173ffffffffffffffffffffffffffffffffffffffff167f8be0079c531659141344cd1fd0a4f28419497f9722a3daafe3b4186f6b6457e060405160405180910390a35050565b61364a828260405180602001604052805f815250613d04565b5050565b5f73ffffffffffffffffffffffffffffffffffffffff168273ffffffffffffffffffffffffffffffffffffffff16036136be57816040517f5b08ba180000000000000000000000000000000000000000000000000000000081526004016136b59190614286565b60405180910390fd5b8060055f8573ffffffffffffffffffffffffffffffffffffffff1673ffffffffffffffffffffffffffffffffffffffff1681526020019081526020015f205f8473ffffffffffffffffffffffffffffffffffffffff1673ffffffffffffffffffffffffffffffffffffffff1681526020019081526020015f205f6101000a81548160ff0219169083151502179055508173ffffffffffffffffffffffffffffffffffffffff168373ffffffffffffffffffffffffffffffffffffffff167f17307eab39ab6107e8899845ad3d59bd9653f200f220920489ca2b5937696c31836040516137aa9190614126565b60405180910390a3505050565b5f8373ffffffffffffffffffffffffffffffffffffffff163b1115613963578273ffffffffffffffffffffffffffffffffffffffff1663150b7a026137fa6132c3565b8685856040518563ffffffff1660e01b815260040161381c9493929190615686565b6020604051808303815f875af192505050801561385757506040513d601f19601f8201168201806040525081019061385491906156e4565b60015b6138d8573d805f8114613885576040519150601f19603f3d011682016040523d82523d5f602084013e61388a565b606091505b505f8151036138d057836040517f64a0ae920000000000000000000000000000000000000000000000000000000081526004016138c79190614286565b60405180910390fd5b805181602001fd5b63150b7a0260e01b7bffffffffffffffffffffffffffffffffffffffffffffffffffffffff1916817bffffffffffffffffffffffffffffffffffffffffffffffffffffffff19161461396157836040517f64a0ae920000000000000000000000000000000000000000000000000000000081526004016139589190614286565b60405180910390fd5b505b50505050565b606060405180602001604052805f815250905090565b60605f600161398d84613d1f565b0190505f8167ffffffffffffffff8111156139ab576139aa61435f565b5b6040519080825280601f01601f1916602001820160405280156139dd5781602001600182028036833780820191505090505b5090505f82602001820190505b600115613a3e578080600190039150507f3031323334353637383961626364656600000000000000000000000000000000600a86061a8153600a8581613a3357613a3261570f565b5b0494505f85036139ea575b819350505050919050565b5f60025f8381526020019081526020015f205f9054906101000a900473ffffffffffffffffffffffffffffffffffffffff169050919050565b8080613aba57505f73ffffffffffffffffffffffffffffffffffffffff168273ffffffffffffffffffffffffffffffffffffffff1614155b15613bec575f613ac984613204565b90505f73ffffffffffffffffffffffffffffffffffffffff168373ffffffffffffffffffffffffffffffffffffffff1614158015613b3357508273ffffffffffffffffffffffffffffffffffffffff168173ffffffffffffffffffffffffffffffffffffffff1614155b8015613b465750613b44818461256e565b155b15613b8857826040517fa9fbf51f000000000000000000000000000000000000000000000000000000008152600401613b7f9190614286565b60405180910390fd5b8115613bea57838573ffffffffffffffffffffffffffffffffffffffff168273ffffffffffffffffffffffffffffffffffffffff167f8c5be1e5ebec7d5bd14f71427d1e84f3dd0314c0f7b2291e5b200ac8c7c3b92560405160405180910390a45b505b8360045f8581526020019081526020015f205f6101000a81548173ffffffffffffffffffffffffffffffffffffffff021916908373ffffffffffffffffffffffffffffffffffffffff16021790555050505050565b613c4c838383613e70565b613cff575f73ffffffffffffffffffffffffffffffffffffffff168373ffffffffffffffffffffffffffffffffffffffff1603613cc057806040517f7e273289000000000000000000000000000000000000000000000000000000008152600401613cb791906145f9565b60405180910390fd5b81816040517f177e802f000000000000000000000000000000000000000000000000000000008152600401613cf692919061521e565b60405180910390fd5b505050565b613d0e8383613f30565b613d1a5f8484846137b7565b505050565b5f805f90507a184f03e93ff9f4daa797ed6e38ed64bf6a1f0100000000000000008310613d7b577a184f03e93ff9f4daa797ed6e38ed64bf6a1f0100000000000000008381613d7157613d7061570f565b5b0492506040810190505b6d04ee2d6d415b85acef81000000008310613db8576d04ee2d6d415b85acef81000000008381613dae57613dad61570f565b5b0492506020810190505b662386f26fc100008310613de757662386f26fc100008381613ddd57613ddc61570f565b5b0492506010810190505b6305f5e1008310613e10576305f5e1008381613e0657613e0561570f565b5b0492506008810190505b6127108310613e35576127108381613e2b57613e2a61570f565b5b0492506004810190505b60648310613e585760648381613e4e57613e4d61570f565b5b0492506002810190505b600a8310613e67576001810190505b80915050919050565b5f8073ffffffffffffffffffffffffffffffffffffffff168373ffffffffffffffffffffffffffffffffffffffff1614158015613f2757508273ffffffffffffffffffffffffffffffffffffffff168473ffffffffffffffffffffffffffffffffffffffff161480613ee85750613ee7848461256e565b5b80613f2657508273ffffffffffffffffffffffffffffffffffffffff16613f0e8361328a565b73ffffffffffffffffffffffffffffffffffffffff16145b5b90509392505050565b5f73ffffffffffffffffffffffffffffffffffffffff168273ffffffffffffffffffffffffffffffffffffffff1603613fa0575f6040517f64a0ae92000000000000000000000000000000000000000000000000000000008152600401613f979190614286565b60405180910390fd5b5f613fac83835f6132dc565b90505f73ffffffffffffffffffffffffffffffffffffffff168173ffffffffffffffffffffffffffffffffffffffff161461401e575f6040517f73c6ac6e0000000000000000000000000000000000000000000000000000000081526004016140159190614286565b60405180910390fd5b505050565b50805461402f90614a93565b5f825580601f10614040575061405d565b601f0160209004905f5260205f209081019061405c9190614060565b5b50565b5b80821115614077575f815f905550600101614061565b5090565b5f604051905090565b5f80fd5b5f80fd5b5f7fffffffff0000000000000000000000000000000000000000000000000000000082169050919050565b6140c08161408c565b81146140ca575f80fd5b50565b5f813590506140db816140b7565b92915050565b5f602082840312156140f6576140f5614084565b5b5f614103848285016140cd565b91505092915050565b5f8115159050919050565b6141208161410c565b82525050565b5f6020820190506141395f830184614117565b92915050565b5f81519050919050565b5f82825260208201905092915050565b5f5b8381101561417657808201518184015260208101905061415b565b5f8484015250505050565b5f601f19601f8301169050919050565b5f61419b8261413f565b6141a58185614149565b93506141b5818560208601614159565b6141be81614181565b840191505092915050565b5f6020820190508181035f8301526141e18184614191565b905092915050565b5f819050919050565b6141fb816141e9565b8114614205575f80fd5b50565b5f81359050614216816141f2565b92915050565b5f6020828403121561423157614230614084565b5b5f61423e84828501614208565b91505092915050565b5f73ffffffffffffffffffffffffffffffffffffffff82169050919050565b5f61427082614247565b9050919050565b61428081614266565b82525050565b5f6020820190506142995f830184614277565b92915050565b6142a881614266565b81146142b2575f80fd5b50565b5f813590506142c38161429f565b92915050565b5f80604083850312156142df576142de614084565b5b5f6142ec858286016142b5565b92505060206142fd85828601614208565b9150509250929050565b5f805f6060848603121561431e5761431d614084565b5b5f61432b868287016142b5565b935050602061433c868287016142b5565b925050604061434d86828701614208565b9150509250925092565b5f80fd5b5f80fd5b7f4e487b71000000000000000000000000000000000000000000000000000000005f52604160045260245ffd5b61439582614181565b810181811067ffffffffffffffff821117156143b4576143b361435f565b5b80604052505050565b5f6143c661407b565b90506143d2828261438c565b919050565b5f67ffffffffffffffff8211156143f1576143f061435f565b5b6143fa82614181565b9050602081019050919050565b828183375f83830152505050565b5f614427614422846143d7565b6143bd565b9050828152602081018484840111156144435761444261435b565b5b61444e848285614407565b509392505050565b5f82601f83011261446a57614469614357565b5b813561447a848260208601614415565b91505092915050565b5f805f805f8060c0878903121561449d5761449c614084565b5b5f87013567ffffffffffffffff8111156144ba576144b9614088565b5b6144c689828a01614456565b965050602087013567ffffffffffffffff8111156144e7576144e6614088565b5b6144f389828a01614456565b955050604087013567ffffffffffffffff81111561451457614513614088565b5b61452089828a01614456565b945050606061453189828a01614208565b935050608087013567ffffffffffffffff81111561455257614551614088565b5b61455e89828a01614456565b92505060a087013567ffffffffffffffff81111561457f5761457e614088565b5b61458b89828a01614456565b9150509295509295509295565b5f602082840312156145ad576145ac614084565b5b5f6145ba848285016142b5565b91505092915050565b5f6040820190506145d65f830185614277565b6145e36020830184614117565b9392505050565b6145f3816141e9565b82525050565b5f60208201905061460c5f8301846145ea565b92915050565b5f6080820190508181035f83015261462a8187614191565b905061463960208301866145ea565b818103604083015261464b8185614191565b9050818103606083015261465f8184614191565b905095945050505050565b5f60408201905061467d5f8301856145ea565b61468a6020830184614277565b9392505050565b61469a8161410c565b81146146a4575f80fd5b50565b5f813590506146b581614691565b92915050565b5f80604083850312156146d1576146d0614084565b5b5f6146de858286016142b5565b92505060206146ef858286016146a7565b9150509250929050565b5f806040838503121561470f5761470e614084565b5b5f61471c85828601614208565b925050602061472d858286016142b5565b9150509250929050565b5f6020828403121561474c5761474b614084565b5b5f82013567ffffffffffffffff81111561476957614768614088565b5b61477584828501614456565b91505092915050565b5f610100820190506147925f83018b6145ea565b81810360208301526147a4818a614191565b905081810360408301526147b88189614191565b905081810360608301526147cc8188614191565b90506147db60808301876145ea565b6147e860a0830186614117565b81810360c08301526147fa8185614191565b905081810360e083015261480e8184614191565b90509998505050505050505050565b5f67ffffffffffffffff8211156148375761483661435f565b5b61484082614181565b9050602081019050919050565b5f61485f61485a8461481d565b6143bd565b90508281526020810184848401111561487b5761487a61435b565b5b614886848285614407565b509392505050565b5f82601f8301126148a2576148a1614357565b5b81356148b284826020860161484d565b91505092915050565b5f805f80608085870312156148d3576148d2614084565b5b5f6148e0878288016142b5565b94505060206148f1878288016142b5565b935050604061490287828801614208565b925050606085013567ffffffffffffffff81111561492357614922614088565b5b61492f8782880161488e565b91505092959194509250565b5f805f806080858703121561495357614952614084565b5b5f85013567ffffffffffffffff8111156149705761496f614088565b5b61497c87828801614456565b945050602061498d87828801614208565b935050604085013567ffffffffffffffff8111156149ae576149ad614088565b5b6149ba87828801614456565b925050606085013567ffffffffffffffff8111156149db576149da614088565b5b6149e787828801614456565b91505092959194509250565b5f8060408385031215614a0957614a08614084565b5b5f614a16858286016142b5565b9250506020614a27858286016142b5565b9150509250929050565b5f606082019050614a445f830186614277565b614a516020830185614117565b614a5e6040830184614117565b949350505050565b7f4e487b71000000000000000000000000000000000000000000000000000000005f52602260045260245ffd5b5f6002820490506001821680614aaa57607f821691505b602082108103614abd57614abc614a66565b5b50919050565b5f606082019050614ad65f830186614277565b614ae360208301856145ea565b614af06040830184614277565b949350505050565b7f456c2070726563696f206465626520736572206d61796f7220717565206365725f8201527f6f00000000000000000000000000000000000000000000000000000000000000602082015250565b5f614b52602183614149565b9150614b5d82614af8565b604082019050919050565b5f6020820190508181035f830152614b7f81614b46565b9050919050565b5f819050815f5260205f209050919050565b5f6020601f8301049050919050565b5f82821b905092915050565b5f60088302614be27fffffffffffffffffffffffffffffffffffffffffffffffffffffffffffffffff82614ba7565b614bec8683614ba7565b95508019841693508086168417925050509392505050565b5f819050919050565b5f614c27614c22614c1d846141e9565b614c04565b6141e9565b9050919050565b5f819050919050565b614c4083614c0d565b614c54614c4c82614c2e565b848454614bb3565b825550505050565b5f90565b614c68614c5c565b614c73818484614c37565b505050565b5b81811015614c9657614c8b5f82614c60565b600181019050614c79565b5050565b601f821115614cdb57614cac81614b86565b614cb584614b98565b81016020851015614cc4578190505b614cd8614cd085614b98565b830182614c78565b50505b505050565b5f82821c905092915050565b5f614cfb5f1984600802614ce0565b1980831691505092915050565b5f614d138383614cec565b9150826002028217905092915050565b614d2c8261413f565b67ffffffffffffffff811115614d4557614d4461435f565b5b614d4f8254614a93565b614d5a828285614c9a565b5f60209050601f831160018114614d8b575f8415614d79578287015190505b614d838582614d08565b865550614dea565b601f198416614d9986614b86565b5f5b82811015614dc057848901518255600182019150602085019450602081019050614d9b565b86831015614ddd5784890151614dd9601f891682614cec565b8355505b6001600288020188555050505b505050505050565b7f4e487b71000000000000000000000000000000000000000000000000000000005f52601160045260245ffd5b5f614e29826141e9565b91507fffffffffffffffffffffffffffffffffffffffffffffffffffffffffffffffff8203614e5b57614e5a614df2565b5b600182019050919050565b5f606082019050614e795f8301866145ea565b8181036020830152614e8b8185614191565b9050614e9a60408301846145ea565b949350505050565b7f41646d696e6973747261646f72206e6f206578697374652e00000000000000005f82015250565b5f614ed6601883614149565b9150614ee182614ea2565b602082019050919050565b5f6020820190508181035f830152614f0381614eca565b9050919050565b7f456c20657374756469616e7465206e6f206573746120696e73637269746f2e005f82015250565b5f614f3e601f83614149565b9150614f4982614f0a565b602082019050919050565b5f6020820190508181035f830152614f6b81614f32565b9050919050565b5f81905092915050565b5f614f868261413f565b614f908185614f72565b9350614fa0818560208601614159565b80840191505092915050565b5f614fb78284614f7c565b915081905092915050565b7f50726f666573736f7200000000000000000000000000000000000000000000005f82015250565b5f614ff6600983614f72565b915061500182614fc2565b600982019050919050565b5f61501682614fea565b9150819050919050565b7f4e6f20657320756e2070726f6665736f722e00000000000000000000000000005f82015250565b5f615054601283614149565b915061505f82615020565b602082019050919050565b5f6020820190508181035f83015261508181615048565b9050919050565b7f41646d696e0000000000000000000000000000000000000000000000000000005f82015250565b5f6150bc600583614f72565b91506150c782615088565b600582019050919050565b5f6150dc826150b0565b9150819050919050565b7f4e6f20657320756e2061646d696e0000000000000000000000000000000000005f82015250565b5f61511a600e83614149565b9150615125826150e6565b602082019050919050565b5f6020820190508181035f8301526151478161510e565b9050919050565b7f526f6c206e6f2076616c69646f2e0000000000000000000000000000000000005f82015250565b5f615182600e83614149565b915061518d8261514e565b602082019050919050565b5f6020820190508181035f8301526151af81615176565b9050919050565b7f436572746966696361646f20796120656d697469646f2e0000000000000000005f82015250565b5f6151ea601783614149565b91506151f5826151b6565b602082019050919050565b5f6020820190508181035f830152615217816151de565b9050919050565b5f6040820190506152315f830185614277565b61523e60208301846145ea565b9392505050565b7f50726f6665736f72206e6f206578697374652e000000000000000000000000005f82015250565b5f615279601383614149565b915061528482615245565b602082019050919050565b5f6020820190508181035f8301526152a68161526d565b9050919050565b5f6152b88285614f7c565b91506152c48284614f7c565b91508190509392505050565b7f456c207573756172696f207961206578697374650000000000000000000000005f82015250565b5f615304601483614149565b915061530f826152d0565b602082019050919050565b5f6020820190508181035f830152615331816152f8565b9050919050565b7f53747564656e74000000000000000000000000000000000000000000000000005f82015250565b5f61536c600783614f72565b915061537782615338565b600782019050919050565b5f61538c82615360565b9150819050919050565b7f456c20726f6c206e6f2065732076616c69646f000000000000000000000000005f82015250565b5f6153ca601383614149565b91506153d582615396565b602082019050919050565b5f6020820190508181035f8301526153f7816153be565b9050919050565b7f456c20637572736f206e6f20657374612061637469766f2e00000000000000005f82015250565b5f615432601883614149565b915061543d826153fe565b602082019050919050565b5f6020820190508181035f83015261545f81615426565b9050919050565b7f5061676f20696e636f72726563746f2e000000000000000000000000000000005f82015250565b5f61549a601083614149565b91506154a582615466565b602082019050919050565b5f6020820190508181035f8301526154c78161548e565b9050919050565b7f5961206573746120696e73637269746f2e0000000000000000000000000000005f82015250565b5f615502601183614149565b915061550d826154ce565b602082019050919050565b5f6020820190508181035f83015261552f816154f6565b9050919050565b7f456c207573756172696f206e6f206578697374650000000000000000000000005f82015250565b5f61556a601483614149565b915061557582615536565b602082019050919050565b5f6020820190508181035f8301526155978161555e565b9050919050565b5f81546155aa81614a93565b6155b48186614f72565b9450600182165f81146155ce57600181146155e357615615565b60ff1983168652811515820286019350615615565b6155ec85614b86565b5f5b8381101561560d578154818901526001820191506020810190506155ee565b838801955050505b50505092915050565b5f615629828461559e565b915081905092915050565b5f81519050919050565b5f82825260208201905092915050565b5f61565882615634565b615662818561563e565b9350615672818560208601614159565b61567b81614181565b840191505092915050565b5f6080820190506156995f830187614277565b6156a66020830186614277565b6156b360408301856145ea565b81810360608301526156c5818461564e565b905095945050505050565b5f815190506156de816140b7565b92915050565b5f602082840312156156f9576156f8614084565b5b5f615706848285016156d0565b91505092915050565b7f4e487b71000000000000000000000000000000000000000000000000000000005f52601260045260245ffdfea2646970667358221220cee66e526c5f8da22b412a09b5bab1626f1c73a93ca0d7ec9a1be9700315e54364736f6c63430008150033",
  "immutableReferences": {},
  "source": "// SPDX-License-Identifier: MIT\r\npragma solidity ^0.8.21;\r\n\r\nimport \"@openzeppelin/contracts/token/ERC721/ERC721.sol\";\r\nimport \"@openzeppelin/contracts/access/Ownable.sol\";\r\n\r\ncontract CourseEnrollment is ERC721, Ownable{\r\n    struct Course {\r\n        uint id;\r\n        string name;\r\n        string description;\r\n        string category;\r\n        uint price;\r\n        bool isActive;\r\n        string courseImg;\r\n        string courseVid; \r\n    }\r\n\r\n    struct Student {\r\n        address studentAddress;\r\n        bool isEnrolled;\r\n        bool isCertified;\r\n    }\r\n\r\n    struct Certificate {\r\n        uint tokenId;\r\n        address studentAddress;\r\n    }\r\n\r\n    struct Professor {\r\n        address professorAddress;\r\n        bool isProfessor;\r\n    }\r\n\r\n    struct Admin {\r\n        address adminAddress;\r\n        bool isAdmin;\r\n    }\r\n\r\n    struct User {\r\n        string nombre;\r\n        uint edad;\r\n        string correo;\r\n        string rol;\r\n    }\r\n\r\n\r\n    uint public courseCount = 0;\r\n    uint public certificateTokenId = 0;\r\n\r\n\r\n    mapping(address => User) private users;\r\n    mapping(uint => Course) public courses;\r\n    mapping(uint => mapping(address => Student)) public enrolledStudents;\r\n    mapping(address => Professor) public professors;\r\n    mapping(address => Admin) public admins;\r\n    mapping(uint => Certificate) public certificates;\r\n\r\n    event UserAdded(address indexed usuario, string nombre, uint edad, string correo, string rol);\r\n    event CourseCreated(uint courseId, string courseName, uint price);\r\n    event StudentEnrolled(uint courseId, address student);\r\n    event CertificateIssued(address student, uint tokenId);\r\n    event ProfessorAdded(address professorAddress);\r\n    event AdminAdded(address adminAddress);\r\n\r\n    constructor() ERC721(\"CourseCertificate\", \"CCERT\") Ownable(msg.sender){\r\n    }\r\n\r\n    function asignRoleToUser(string memory _role) public {\r\n        bytes32 roleHash = keccak256(abi.encodePacked(_role));\r\n        if (roleHash == keccak256(abi.encodePacked(\"Professor\"))) {\r\n            professors[msg.sender] = Professor(msg.sender, true);\r\n        } else if (roleHash == keccak256(abi.encodePacked(\"Admin\"))) {\r\n            admins[msg.sender] = Admin(msg.sender, true);\r\n        } else {\r\n            revert(\"Rol no valido.\");\r\n        }\r\n    }\r\n\r\n    function deleteAdminOrProfessor(string memory _role) public {\r\n        bytes32 roleHash = keccak256(abi.encodePacked(_role));\r\n        if (roleHash == keccak256(abi.encodePacked(\"Professor\"))) {\r\n            require(professors[msg.sender].isProfessor, \"No es un profesor.\");\r\n            delete professors[msg.sender];\r\n        } else if (roleHash == keccak256(abi.encodePacked(\"Admin\"))) {\r\n            require(admins[msg.sender].isAdmin, \"No es un admin\");\r\n            delete admins[msg.sender];\r\n        } else {\r\n            revert(\"Rol no valido.\");\r\n        }\r\n    }\r\n\r\n    // Crear un nuevo curso\r\n    function createCourse(string memory _name, string memory _description, string memory _category, uint _price, string memory _img, string memory _vid) public onlyOwner {\r\n        require(_price > 0, \"El precio debe ser mayor que cero\");\r\n        courses[courseCount] = Course(courseCount, _name, _description, _category, _price, true, _img, _vid);\r\n        courseCount++;\r\n        emit CourseCreated(courseCount, _name, _price);\r\n    }\r\n\r\n    // Inscripcin de estudiantes\r\n    function enroll(uint _courseId) public payable {\r\n        Course memory course = courses[_courseId];\r\n        require(course.isActive, \"El curso no esta activo.\");\r\n        require(msg.value == course.price, \"Pago incorrecto.\");\r\n        require(enrolledStudents[_courseId][msg.sender].isEnrolled == false, \"Ya esta inscrito.\");\r\n\r\n        enrolledStudents[_courseId][msg.sender] = Student(msg.sender, true, false);\r\n\r\n        emit StudentEnrolled(_courseId, msg.sender);\r\n    }\r\n\r\n    // Emitir certificado al completar el curso\r\n    function issueCertificate(uint _courseId, address _student) public onlyOwner {\r\n        require(enrolledStudents[_courseId][_student].isEnrolled, \"El estudiante no esta inscrito.\");\r\n        require(enrolledStudents[_courseId][_student].isCertified == false, \"Certificado ya emitido.\");\r\n\r\n        // Emitir el NFT como certificado\r\n        _safeMint(_student, certificateTokenId);\r\n        enrolledStudents[_courseId][_student].isCertified = true;\r\n        certificates[certificateTokenId] = Certificate(certificateTokenId, _student);\r\n\r\n        emit CertificateIssued(_student, certificateTokenId);\r\n        certificateTokenId++;\r\n    }\r\n\r\n    // Agregar un nuevo profesor\r\n    function addProfessor(address _professorAddress) public onlyOwner {\r\n        professors[_professorAddress] = Professor(_professorAddress, true);\r\n        emit ProfessorAdded(_professorAddress);\r\n    }\r\n\r\n    // Agregar un nuevo administrador\r\n    function addAdmin(address _adminAddress) public onlyOwner {\r\n        admins[_adminAddress] = Admin(_adminAddress, true);\r\n        emit AdminAdded(_adminAddress);\r\n    }\r\n\r\n    // Modificar la informacin de un profesor\r\n    function updateProfessor(address _professorAddress, bool _isProfessor) public onlyOwner {\r\n        require(professors[_professorAddress].professorAddress == _professorAddress, \"Profesor no existe.\");\r\n        professors[_professorAddress].isProfessor = _isProfessor;\r\n    }\r\n\r\n    // Modificar la informacin de un administrador\r\n    function updateAdmin(address _adminAddress, bool _isAdmin) public onlyOwner {\r\n        require(admins[_adminAddress].adminAddress == _adminAddress, \"Administrador no existe.\");\r\n        admins[_adminAddress].isAdmin = _isAdmin;\r\n    }\r\n\r\n    // Retirar fondos del contrato (solo el propietario)\r\n    function withdraw() public onlyOwner {\r\n        payable(owner()).transfer(address(this).balance);\r\n    }\r\n\r\n    function removeCourse(uint _idCourse) public {\r\n        require (courses[_idCourse].isActive, \"El curso no esta activo.\");\r\n        delete courses[_idCourse];\r\n    }\r\n\r\n    function removeStudentFromCourse(uint _courseId, address _student) public {\r\n        require(enrolledStudents[_courseId][_student].isEnrolled, \"El estudiante no esta inscrito.\");\r\n        delete enrolledStudents[_courseId][_student];\r\n    }\r\n\r\n\r\n    function addUser(string memory _nombre, uint _edad, string memory _correo, string memory _role) public {\r\n\r\n        // Verifica si el usuario ya existe\r\n        require(bytes(users[msg.sender].nombre).length == 0, \"El usuario ya existe\");\r\n\r\n        // Verifica si el rol es vlido\r\n        bytes32 rolHash = keccak256(abi.encodePacked(_role));\r\n        if (rolHash != keccak256(abi.encodePacked(\"Admin\")) &&\r\n            rolHash != keccak256(abi.encodePacked(\"Professor\")) &&\r\n            rolHash != keccak256(abi.encodePacked(\"Student\"))) {\r\n            revert(\"El rol no es valido\");\r\n        }\r\n        \r\n\r\n        // Agrega el usuario al mapeo usando la direccin del remitente como clave\r\n        \r\n        users[msg.sender] = User(_nombre, _edad, _correo, _role);\r\n        \r\n        if (bytes(users[msg.sender].rol).length != 0) {\r\n            if (rolHash != keccak256(abi.encodePacked(\"Student\"))) {\r\n                asignRoleToUser(users[msg.sender].rol);\r\n            }\r\n        }\r\n        \r\n        // Emitir un evento para notificar que se ha agregado un nuevo usuario\r\n        emit UserAdded(msg.sender, _nombre, _edad, _correo, _role);\r\n    }\r\n    \r\n    // Funcin para obtener la informacin de un usuario\r\n    function obtenerUsuario(address _usuario) public view returns (string memory nombre, uint edad, string memory correo, string memory rol) {\r\n        User storage user = users[_usuario];\r\n        return (user.nombre, user.edad, user.correo, user.rol);\r\n    }\r\n\r\n    function removeUser() public {\r\n        require(bytes(users[msg.sender].nombre).length != 0, \"El usuario no existe\");\r\n\r\n        // Llama a deleteAdminOrProfessor solo si el usuario tiene un rol vlido\r\n        if (bytes(users[msg.sender].rol).length != 0) {\r\n            // Verifica si el rol es vlido antes de llamar a deleteAdminOrProfessor\r\n            bytes32 rolHash = keccak256(abi.encodePacked(users[msg.sender].rol));\r\n            if (rolHash != keccak256(abi.encodePacked(\"Student\"))) {\r\n                deleteAdminOrProfessor(users[msg.sender].rol);\r\n            }\r\n            \r\n        }\r\n        \r\n        delete users[msg.sender];\r\n    }\r\n}",
  "sourcePath": "F:\\CodigoPropio\\Solidity\\Hackaton\\hackaton-api\\contracts\\CourseEnrollment.sol",
  "compiler": {
    "name": "solc",
    "version": "0.8.21+commit.d9974bed.Emscripten.clang"
  },
  "schemaVersion": "3.4.16",
  "updatedAt": "2024-09-08T15:35:06.447Z",
  "networkType": "ethereum",
  "devdoc": {
    "errors": {
      "ERC721IncorrectOwner(address,uint256,address)": [
        {
          "details": "Indicates an error related to the ownership over a particular token. Used in transfers.",
          "params": {
            "owner": "Address of the current owner of a token.",
            "sender": "Address whose tokens are being transferred.",
            "tokenId": "Identifier number of a token."
          }
        }
      ],
      "ERC721InsufficientApproval(address,uint256)": [
        {
          "details": "Indicates a failure with the `operator`s approval. Used in transfers.",
          "params": {
            "operator": "Address that may be allowed to operate on tokens without being their owner.",
            "tokenId": "Identifier number of a token."
          }
        }
      ],
      "ERC721InvalidApprover(address)": [
        {
          "details": "Indicates a failure with the `approver` of a token to be approved. Used in approvals.",
          "params": {
            "approver": "Address initiating an approval operation."
          }
        }
      ],
      "ERC721InvalidOperator(address)": [
        {
          "details": "Indicates a failure with the `operator` to be approved. Used in approvals.",
          "params": {
            "operator": "Address that may be allowed to operate on tokens without being their owner."
          }
        }
      ],
      "ERC721InvalidOwner(address)": [
        {
          "details": "Indicates that an address can't be an owner. For example, `address(0)` is a forbidden owner in EIP-20. Used in balance queries.",
          "params": {
            "owner": "Address of the current owner of a token."
          }
        }
      ],
      "ERC721InvalidReceiver(address)": [
        {
          "details": "Indicates a failure with the token `receiver`. Used in transfers.",
          "params": {
            "receiver": "Address to which tokens are being transferred."
          }
        }
      ],
      "ERC721InvalidSender(address)": [
        {
          "details": "Indicates a failure with the token `sender`. Used in transfers.",
          "params": {
            "sender": "Address whose tokens are being transferred."
          }
        }
      ],
      "ERC721NonexistentToken(uint256)": [
        {
          "details": "Indicates a `tokenId` whose `owner` is the zero address.",
          "params": {
            "tokenId": "Identifier number of a token."
          }
        }
      ],
      "OwnableInvalidOwner(address)": [
        {
          "details": "The owner is not a valid owner account. (eg. `address(0)`)"
        }
      ],
      "OwnableUnauthorizedAccount(address)": [
        {
          "details": "The caller account is not authorized to perform an operation."
        }
      ]
    },
    "events": {
      "Approval(address,address,uint256)": {
        "details": "Emitted when `owner` enables `approved` to manage the `tokenId` token."
      },
      "ApprovalForAll(address,address,bool)": {
        "details": "Emitted when `owner` enables or disables (`approved`) `operator` to manage all of its assets."
      },
      "Transfer(address,address,uint256)": {
        "details": "Emitted when `tokenId` token is transferred from `from` to `to`."
      }
    },
    "kind": "dev",
    "methods": {
      "approve(address,uint256)": {
        "details": "See {IERC721-approve}."
      },
      "balanceOf(address)": {
        "details": "See {IERC721-balanceOf}."
      },
      "getApproved(uint256)": {
        "details": "See {IERC721-getApproved}."
      },
      "isApprovedForAll(address,address)": {
        "details": "See {IERC721-isApprovedForAll}."
      },
      "name()": {
        "details": "See {IERC721Metadata-name}."
      },
      "owner()": {
        "details": "Returns the address of the current owner."
      },
      "ownerOf(uint256)": {
        "details": "See {IERC721-ownerOf}."
      },
      "renounceOwnership()": {
        "details": "Leaves the contract without owner. It will not be possible to call `onlyOwner` functions. Can only be called by the current owner. NOTE: Renouncing ownership will leave the contract without an owner, thereby disabling any functionality that is only available to the owner."
      },
      "safeTransferFrom(address,address,uint256)": {
        "details": "See {IERC721-safeTransferFrom}."
      },
      "safeTransferFrom(address,address,uint256,bytes)": {
        "details": "See {IERC721-safeTransferFrom}."
      },
      "setApprovalForAll(address,bool)": {
        "details": "See {IERC721-setApprovalForAll}."
      },
      "supportsInterface(bytes4)": {
        "details": "See {IERC165-supportsInterface}."
      },
      "symbol()": {
        "details": "See {IERC721Metadata-symbol}."
      },
      "tokenURI(uint256)": {
        "details": "See {IERC721Metadata-tokenURI}."
      },
      "transferFrom(address,address,uint256)": {
        "details": "See {IERC721-transferFrom}."
      },
      "transferOwnership(address)": {
        "details": "Transfers ownership of the contract to a new account (`newOwner`). Can only be called by the current owner."
      }
    },
    "version": 1
  },
  "userdoc": {
    "kind": "user",
    "methods": {},
    "version": 1
  }
}