{
  "contractName": "CourseEnrollment",
  "abi": [
    {
      "inputs": [],
      "stateMutability": "nonpayable",
      "type": "constructor"
    },
    {
      "inputs": [
        {
          "internalType": "address",
          "name": "sender",
          "type": "address"
        },
        {
          "internalType": "uint256",
          "name": "tokenId",
          "type": "uint256"
        },
        {
          "internalType": "address",
          "name": "owner",
          "type": "address"
        }
      ],
      "name": "ERC721IncorrectOwner",
      "type": "error"
    },
    {
      "inputs": [
        {
          "internalType": "address",
          "name": "operator",
          "type": "address"
        },
        {
          "internalType": "uint256",
          "name": "tokenId",
          "type": "uint256"
        }
      ],
      "name": "ERC721InsufficientApproval",
      "type": "error"
    },
    {
      "inputs": [
        {
          "internalType": "address",
          "name": "approver",
          "type": "address"
        }
      ],
      "name": "ERC721InvalidApprover",
      "type": "error"
    },
    {
      "inputs": [
        {
          "internalType": "address",
          "name": "operator",
          "type": "address"
        }
      ],
      "name": "ERC721InvalidOperator",
      "type": "error"
    },
    {
      "inputs": [
        {
          "internalType": "address",
          "name": "owner",
          "type": "address"
        }
      ],
      "name": "ERC721InvalidOwner",
      "type": "error"
    },
    {
      "inputs": [
        {
          "internalType": "address",
          "name": "receiver",
          "type": "address"
        }
      ],
      "name": "ERC721InvalidReceiver",
      "type": "error"
    },
    {
      "inputs": [
        {
          "internalType": "address",
          "name": "sender",
          "type": "address"
        }
      ],
      "name": "ERC721InvalidSender",
      "type": "error"
    },
    {
      "inputs": [
        {
          "internalType": "uint256",
          "name": "tokenId",
          "type": "uint256"
        }
      ],
      "name": "ERC721NonexistentToken",
      "type": "error"
    },
    {
      "inputs": [
        {
          "internalType": "address",
          "name": "owner",
          "type": "address"
        }
      ],
      "name": "OwnableInvalidOwner",
      "type": "error"
    },
    {
      "inputs": [
        {
          "internalType": "address",
          "name": "account",
          "type": "address"
        }
      ],
      "name": "OwnableUnauthorizedAccount",
      "type": "error"
    },
    {
      "anonymous": false,
      "inputs": [
        {
          "indexed": false,
          "internalType": "address",
          "name": "adminAddress",
          "type": "address"
        }
      ],
      "name": "AdminAdded",
      "type": "event"
    },
    {
      "anonymous": false,
      "inputs": [
        {
          "indexed": true,
          "internalType": "address",
          "name": "owner",
          "type": "address"
        },
        {
          "indexed": true,
          "internalType": "address",
          "name": "approved",
          "type": "address"
        },
        {
          "indexed": true,
          "internalType": "uint256",
          "name": "tokenId",
          "type": "uint256"
        }
      ],
      "name": "Approval",
      "type": "event"
    },
    {
      "anonymous": false,
      "inputs": [
        {
          "indexed": true,
          "internalType": "address",
          "name": "owner",
          "type": "address"
        },
        {
          "indexed": true,
          "internalType": "address",
          "name": "operator",
          "type": "address"
        },
        {
          "indexed": false,
          "internalType": "bool",
          "name": "approved",
          "type": "bool"
        }
      ],
      "name": "ApprovalForAll",
      "type": "event"
    },
    {
      "anonymous": false,
      "inputs": [
        {
          "indexed": false,
          "internalType": "address",
          "name": "student",
          "type": "address"
        },
        {
          "indexed": false,
          "internalType": "uint256",
          "name": "tokenId",
          "type": "uint256"
        }
      ],
      "name": "CertificateIssued",
      "type": "event"
    },
    {
      "anonymous": false,
      "inputs": [
        {
          "indexed": false,
          "internalType": "uint256",
          "name": "courseId",
          "type": "uint256"
        },
        {
          "indexed": false,
          "internalType": "string",
          "name": "courseName",
          "type": "string"
        },
        {
          "indexed": false,
          "internalType": "uint256",
          "name": "price",
          "type": "uint256"
        },
        {
          "indexed": false,
          "internalType": "uint256",
          "name": "seats",
          "type": "uint256"
        }
      ],
      "name": "CourseCreated",
      "type": "event"
    },
    {
      "anonymous": false,
      "inputs": [
        {
          "indexed": true,
          "internalType": "address",
          "name": "previousOwner",
          "type": "address"
        },
        {
          "indexed": true,
          "internalType": "address",
          "name": "newOwner",
          "type": "address"
        }
      ],
      "name": "OwnershipTransferred",
      "type": "event"
    },
    {
      "anonymous": false,
      "inputs": [
        {
          "indexed": false,
          "internalType": "address",
          "name": "professorAddress",
          "type": "address"
        }
      ],
      "name": "ProfessorAdded",
      "type": "event"
    },
    {
      "anonymous": false,
      "inputs": [
        {
          "indexed": false,
          "internalType": "uint256",
          "name": "courseId",
          "type": "uint256"
        },
        {
          "indexed": false,
          "internalType": "address",
          "name": "student",
          "type": "address"
        }
      ],
      "name": "StudentEnrolled",
      "type": "event"
    },
    {
      "anonymous": false,
      "inputs": [
        {
          "indexed": true,
          "internalType": "address",
          "name": "from",
          "type": "address"
        },
        {
          "indexed": true,
          "internalType": "address",
          "name": "to",
          "type": "address"
        },
        {
          "indexed": true,
          "internalType": "uint256",
          "name": "tokenId",
          "type": "uint256"
        }
      ],
      "name": "Transfer",
      "type": "event"
    },
    {
      "anonymous": false,
      "inputs": [
        {
          "indexed": true,
          "internalType": "address",
          "name": "usuario",
          "type": "address"
        },
        {
          "indexed": false,
          "internalType": "string",
          "name": "nombre",
          "type": "string"
        },
        {
          "indexed": false,
          "internalType": "uint256",
          "name": "edad",
          "type": "uint256"
        },
        {
          "indexed": false,
          "internalType": "string",
          "name": "correo",
          "type": "string"
        },
        {
          "indexed": false,
          "internalType": "string",
          "name": "rol",
          "type": "string"
        }
      ],
      "name": "UserAdded",
      "type": "event"
    },
    {
      "inputs": [
        {
          "internalType": "address",
          "name": "",
          "type": "address"
        }
      ],
      "name": "admins",
      "outputs": [
        {
          "internalType": "address",
          "name": "adminAddress",
          "type": "address"
        },
        {
          "internalType": "bool",
          "name": "isAdmin",
          "type": "bool"
        }
      ],
      "stateMutability": "view",
      "type": "function",
      "constant": true
    },
    {
      "inputs": [
        {
          "internalType": "address",
          "name": "to",
          "type": "address"
        },
        {
          "internalType": "uint256",
          "name": "tokenId",
          "type": "uint256"
        }
      ],
      "name": "approve",
      "outputs": [],
      "stateMutability": "nonpayable",
      "type": "function"
    },
    {
      "inputs": [
        {
          "internalType": "address",
          "name": "owner",
          "type": "address"
        }
      ],
      "name": "balanceOf",
      "outputs": [
        {
          "internalType": "uint256",
          "name": "",
          "type": "uint256"
        }
      ],
      "stateMutability": "view",
      "type": "function",
      "constant": true
    },
    {
      "inputs": [],
      "name": "certificateTokenId",
      "outputs": [
        {
          "internalType": "uint256",
          "name": "",
          "type": "uint256"
        }
      ],
      "stateMutability": "view",
      "type": "function",
      "constant": true
    },
    {
      "inputs": [
        {
          "internalType": "uint256",
          "name": "",
          "type": "uint256"
        }
      ],
      "name": "certificates",
      "outputs": [
        {
          "internalType": "uint256",
          "name": "tokenId",
          "type": "uint256"
        },
        {
          "internalType": "address",
          "name": "studentAddress",
          "type": "address"
        }
      ],
      "stateMutability": "view",
      "type": "function",
      "constant": true
    },
    {
      "inputs": [],
      "name": "courseCount",
      "outputs": [
        {
          "internalType": "uint256",
          "name": "",
          "type": "uint256"
        }
      ],
      "stateMutability": "view",
      "type": "function",
      "constant": true
    },
    {
      "inputs": [
        {
          "internalType": "uint256",
          "name": "",
          "type": "uint256"
        }
      ],
      "name": "courses",
      "outputs": [
        {
          "internalType": "uint256",
          "name": "id",
          "type": "uint256"
        },
        {
          "internalType": "string",
          "name": "name",
          "type": "string"
        },
        {
          "internalType": "string",
          "name": "description",
          "type": "string"
        },
        {
          "internalType": "string",
          "name": "category",
          "type": "string"
        },
        {
          "internalType": "uint256",
          "name": "price",
          "type": "uint256"
        },
        {
          "internalType": "uint256",
          "name": "seats",
          "type": "uint256"
        },
        {
          "internalType": "bool",
          "name": "isActive",
          "type": "bool"
        }
      ],
      "stateMutability": "view",
      "type": "function",
      "constant": true
    },
    {
      "inputs": [
        {
          "internalType": "uint256",
          "name": "",
          "type": "uint256"
        },
        {
          "internalType": "address",
          "name": "",
          "type": "address"
        }
      ],
      "name": "enrolledStudents",
      "outputs": [
        {
          "internalType": "address",
          "name": "studentAddress",
          "type": "address"
        },
        {
          "internalType": "bool",
          "name": "isEnrolled",
          "type": "bool"
        },
        {
          "internalType": "bool",
          "name": "isCertified",
          "type": "bool"
        }
      ],
      "stateMutability": "view",
      "type": "function",
      "constant": true
    },
    {
      "inputs": [
        {
          "internalType": "uint256",
          "name": "tokenId",
          "type": "uint256"
        }
      ],
      "name": "getApproved",
      "outputs": [
        {
          "internalType": "address",
          "name": "",
          "type": "address"
        }
      ],
      "stateMutability": "view",
      "type": "function",
      "constant": true
    },
    {
      "inputs": [
        {
          "internalType": "address",
          "name": "owner",
          "type": "address"
        },
        {
          "internalType": "address",
          "name": "operator",
          "type": "address"
        }
      ],
      "name": "isApprovedForAll",
      "outputs": [
        {
          "internalType": "bool",
          "name": "",
          "type": "bool"
        }
      ],
      "stateMutability": "view",
      "type": "function",
      "constant": true
    },
    {
      "inputs": [],
      "name": "name",
      "outputs": [
        {
          "internalType": "string",
          "name": "",
          "type": "string"
        }
      ],
      "stateMutability": "view",
      "type": "function",
      "constant": true
    },
    {
      "inputs": [],
      "name": "owner",
      "outputs": [
        {
          "internalType": "address",
          "name": "",
          "type": "address"
        }
      ],
      "stateMutability": "view",
      "type": "function",
      "constant": true
    },
    {
      "inputs": [
        {
          "internalType": "uint256",
          "name": "tokenId",
          "type": "uint256"
        }
      ],
      "name": "ownerOf",
      "outputs": [
        {
          "internalType": "address",
          "name": "",
          "type": "address"
        }
      ],
      "stateMutability": "view",
      "type": "function",
      "constant": true
    },
    {
      "inputs": [
        {
          "internalType": "address",
          "name": "",
          "type": "address"
        }
      ],
      "name": "professors",
      "outputs": [
        {
          "internalType": "address",
          "name": "professorAddress",
          "type": "address"
        },
        {
          "internalType": "bool",
          "name": "isProfessor",
          "type": "bool"
        }
      ],
      "stateMutability": "view",
      "type": "function",
      "constant": true
    },
    {
      "inputs": [],
      "name": "renounceOwnership",
      "outputs": [],
      "stateMutability": "nonpayable",
      "type": "function"
    },
    {
      "inputs": [
        {
          "internalType": "address",
          "name": "from",
          "type": "address"
        },
        {
          "internalType": "address",
          "name": "to",
          "type": "address"
        },
        {
          "internalType": "uint256",
          "name": "tokenId",
          "type": "uint256"
        }
      ],
      "name": "safeTransferFrom",
      "outputs": [],
      "stateMutability": "nonpayable",
      "type": "function"
    },
    {
      "inputs": [
        {
          "internalType": "address",
          "name": "from",
          "type": "address"
        },
        {
          "internalType": "address",
          "name": "to",
          "type": "address"
        },
        {
          "internalType": "uint256",
          "name": "tokenId",
          "type": "uint256"
        },
        {
          "internalType": "bytes",
          "name": "data",
          "type": "bytes"
        }
      ],
      "name": "safeTransferFrom",
      "outputs": [],
      "stateMutability": "nonpayable",
      "type": "function"
    },
    {
      "inputs": [
        {
          "internalType": "address",
          "name": "operator",
          "type": "address"
        },
        {
          "internalType": "bool",
          "name": "approved",
          "type": "bool"
        }
      ],
      "name": "setApprovalForAll",
      "outputs": [],
      "stateMutability": "nonpayable",
      "type": "function"
    },
    {
      "inputs": [
        {
          "internalType": "bytes4",
          "name": "interfaceId",
          "type": "bytes4"
        }
      ],
      "name": "supportsInterface",
      "outputs": [
        {
          "internalType": "bool",
          "name": "",
          "type": "bool"
        }
      ],
      "stateMutability": "view",
      "type": "function",
      "constant": true
    },
    {
      "inputs": [],
      "name": "symbol",
      "outputs": [
        {
          "internalType": "string",
          "name": "",
          "type": "string"
        }
      ],
      "stateMutability": "view",
      "type": "function",
      "constant": true
    },
    {
      "inputs": [
        {
          "internalType": "uint256",
          "name": "tokenId",
          "type": "uint256"
        }
      ],
      "name": "tokenURI",
      "outputs": [
        {
          "internalType": "string",
          "name": "",
          "type": "string"
        }
      ],
      "stateMutability": "view",
      "type": "function",
      "constant": true
    },
    {
      "inputs": [
        {
          "internalType": "address",
          "name": "from",
          "type": "address"
        },
        {
          "internalType": "address",
          "name": "to",
          "type": "address"
        },
        {
          "internalType": "uint256",
          "name": "tokenId",
          "type": "uint256"
        }
      ],
      "name": "transferFrom",
      "outputs": [],
      "stateMutability": "nonpayable",
      "type": "function"
    },
    {
      "inputs": [
        {
          "internalType": "address",
          "name": "newOwner",
          "type": "address"
        }
      ],
      "name": "transferOwnership",
      "outputs": [],
      "stateMutability": "nonpayable",
      "type": "function"
    },
    {
      "inputs": [
        {
          "internalType": "string",
          "name": "_role",
          "type": "string"
        }
      ],
      "name": "asignRoleToUser",
      "outputs": [],
      "stateMutability": "nonpayable",
      "type": "function"
    },
    {
      "inputs": [
        {
          "internalType": "string",
          "name": "_role",
          "type": "string"
        }
      ],
      "name": "deleteAdminOrProfessor",
      "outputs": [],
      "stateMutability": "nonpayable",
      "type": "function"
    },
    {
      "inputs": [
        {
          "internalType": "string",
          "name": "_name",
          "type": "string"
        },
        {
          "internalType": "string",
          "name": "_description",
          "type": "string"
        },
        {
          "internalType": "string",
          "name": "_category",
          "type": "string"
        },
        {
          "internalType": "uint256",
          "name": "_price",
          "type": "uint256"
        },
        {
          "internalType": "uint256",
          "name": "_seats",
          "type": "uint256"
        }
      ],
      "name": "createCourse",
      "outputs": [],
      "stateMutability": "nonpayable",
      "type": "function"
    },
    {
      "inputs": [
        {
          "internalType": "uint256",
          "name": "_courseId",
          "type": "uint256"
        }
      ],
      "name": "enroll",
      "outputs": [],
      "stateMutability": "payable",
      "type": "function",
      "payable": true
    },
    {
      "inputs": [
        {
          "internalType": "uint256",
          "name": "_courseId",
          "type": "uint256"
        },
        {
          "internalType": "address",
          "name": "_student",
          "type": "address"
        }
      ],
      "name": "issueCertificate",
      "outputs": [],
      "stateMutability": "nonpayable",
      "type": "function"
    },
    {
      "inputs": [
        {
          "internalType": "address",
          "name": "_professorAddress",
          "type": "address"
        }
      ],
      "name": "addProfessor",
      "outputs": [],
      "stateMutability": "nonpayable",
      "type": "function"
    },
    {
      "inputs": [
        {
          "internalType": "address",
          "name": "_adminAddress",
          "type": "address"
        }
      ],
      "name": "addAdmin",
      "outputs": [],
      "stateMutability": "nonpayable",
      "type": "function"
    },
    {
      "inputs": [
        {
          "internalType": "address",
          "name": "_professorAddress",
          "type": "address"
        },
        {
          "internalType": "bool",
          "name": "_isProfessor",
          "type": "bool"
        }
      ],
      "name": "updateProfessor",
      "outputs": [],
      "stateMutability": "nonpayable",
      "type": "function"
    },
    {
      "inputs": [
        {
          "internalType": "address",
          "name": "_adminAddress",
          "type": "address"
        },
        {
          "internalType": "bool",
          "name": "_isAdmin",
          "type": "bool"
        }
      ],
      "name": "updateAdmin",
      "outputs": [],
      "stateMutability": "nonpayable",
      "type": "function"
    },
    {
      "inputs": [],
      "name": "withdraw",
      "outputs": [],
      "stateMutability": "nonpayable",
      "type": "function"
    },
    {
      "inputs": [
        {
          "internalType": "uint256",
          "name": "_idCourse",
          "type": "uint256"
        }
      ],
      "name": "removeCourse",
      "outputs": [],
      "stateMutability": "nonpayable",
      "type": "function"
    },
    {
      "inputs": [
        {
          "internalType": "uint256",
          "name": "_courseId",
          "type": "uint256"
        },
        {
          "internalType": "address",
          "name": "_student",
          "type": "address"
        }
      ],
      "name": "removeStudentFromCourse",
      "outputs": [],
      "stateMutability": "nonpayable",
      "type": "function"
    },
    {
      "inputs": [
        {
          "internalType": "string",
          "name": "_nombre",
          "type": "string"
        },
        {
          "internalType": "uint256",
          "name": "_edad",
          "type": "uint256"
        },
        {
          "internalType": "string",
          "name": "_correo",
          "type": "string"
        },
        {
          "internalType": "string",
          "name": "_role",
          "type": "string"
        }
      ],
      "name": "addUser",
      "outputs": [],
      "stateMutability": "nonpayable",
      "type": "function"
    },
    {
      "inputs": [
        {
          "internalType": "address",
          "name": "_usuario",
          "type": "address"
        }
      ],
      "name": "obtenerUsuario",
      "outputs": [
        {
          "internalType": "string",
          "name": "nombre",
          "type": "string"
        },
        {
          "internalType": "uint256",
          "name": "edad",
          "type": "uint256"
        },
        {
          "internalType": "string",
          "name": "correo",
          "type": "string"
        }
      ],
      "stateMutability": "view",
      "type": "function",
      "constant": true
    },
    {
      "inputs": [],
      "name": "removeUser",
      "outputs": [],
      "stateMutability": "nonpayable",
      "type": "function"
    }
  ],
  "bytecode": "0x60806040525f6007555f60085534801562000018575f80fd5b50336040518060400160405280601181526020017f436f7572736543657274696669636174650000000000000000000000000000008152506040518060400160405280600581526020017f4343455254000000000000000000000000000000000000000000000000000000815250815f90816200009691906200045d565b508060019081620000a891906200045d565b5050505f73ffffffffffffffffffffffffffffffffffffffff168173ffffffffffffffffffffffffffffffffffffffff16036200011e575f6040517f1e4fbdf700000000000000000000000000000000000000000000000000000000815260040162000115919062000584565b60405180910390fd5b6200012f816200013660201b60201c565b506200059f565b5f60065f9054906101000a900473ffffffffffffffffffffffffffffffffffffffff1690508160065f6101000a81548173ffffffffffffffffffffffffffffffffffffffff021916908373ffffffffffffffffffffffffffffffffffffffff1602179055508173ffffffffffffffffffffffffffffffffffffffff168173ffffffffffffffffffffffffffffffffffffffff167f8be0079c531659141344cd1fd0a4f28419497f9722a3daafe3b4186f6b6457e060405160405180910390a35050565b5f81519050919050565b7f4e487b71000000000000000000000000000000000000000000000000000000005f52604160045260245ffd5b7f4e487b71000000000000000000000000000000000000000000000000000000005f52602260045260245ffd5b5f60028204905060018216806200027557607f821691505b6020821081036200028b576200028a62000230565b5b50919050565b5f819050815f5260205f209050919050565b5f6020601f8301049050919050565b5f82821b905092915050565b5f60088302620002ef7fffffffffffffffffffffffffffffffffffffffffffffffffffffffffffffffff82620002b2565b620002fb8683620002b2565b95508019841693508086168417925050509392505050565b5f819050919050565b5f819050919050565b5f620003456200033f620003398462000313565b6200031c565b62000313565b9050919050565b5f819050919050565b620003608362000325565b620003786200036f826200034c565b848454620002be565b825550505050565b5f90565b6200038e62000380565b6200039b81848462000355565b505050565b5b81811015620003c257620003b65f8262000384565b600181019050620003a1565b5050565b601f8211156200041157620003db8162000291565b620003e684620002a3565b81016020851015620003f6578190505b6200040e6200040585620002a3565b830182620003a0565b50505b505050565b5f82821c905092915050565b5f620004335f198460080262000416565b1980831691505092915050565b5f6200044d838362000422565b9150826002028217905092915050565b6200046882620001f9565b67ffffffffffffffff81111562000484576200048362000203565b5b6200049082546200025d565b6200049d828285620003c6565b5f60209050601f831160018114620004d3575f8415620004be578287015190505b620004ca858262000440565b86555062000539565b601f198416620004e38662000291565b5f5b828110156200050c57848901518255600182019150602085019450602081019050620004e5565b868310156200052c578489015162000528601f89168262000422565b8355505b6001600288020188555050505b505050505050565b5f73ffffffffffffffffffffffffffffffffffffffff82169050919050565b5f6200056c8262000541565b9050919050565b6200057e8162000560565b82525050565b5f602082019050620005995f83018462000573565b92915050565b6153f880620005ad5f395ff3fe608060405260043610610224575f3560e01c8063715018a611610122578063c87b56dd116100aa578063eda6c2d71161006e578063eda6c2d71461081d578063f2fde38b1461085b578063f3bd994a14610883578063f57d585b146108ab578063f944f4c7146108c757610224565b8063c87b56dd14610718578063c9b2338d14610754578063cd1e9e2b1461077c578063df3addfa146107b9578063e985e9c5146107e157610224565b806395d89b41116100f157806395d89b411461063457806396f979d21461065e57806397e22966146106a0578063a22cb465146106c8578063b88d4fde146106f057610224565b8063715018a6146105a457806381a1edb1146105ba5780638da5cb5b146105e25780638fe8b3911461060c57610224565b8063429b62e5116101b0578063663b3e2211610174578063663b3e22146104b3578063670a6fd9146104f05780636b08d36314610518578063704802751461054057806370a082311461056857610224565b8063429b62e5146103a85780634b24691f146103e55780634f78c5991461040f5780636352211e1461044d578063660551591461048957610224565b8063095ea7b3116101f7578063095ea7b3146102f257806323b872dd1461031a5780633ccfd60b146103425780634268edaa1461035857806342842e0e1461038057610224565b806301ffc9a71461022857806304e92c9e1461026457806306fdde031461028c578063081812fc146102b6575b5f80fd5b348015610233575f80fd5b5061024e60048036038101906102499190613d52565b6108dd565b60405161025b9190613d97565b60405180910390f35b34801561026f575f80fd5b5061028a60048036038101906102859190613f1f565b6109be565b005b348015610297575f80fd5b506102a0610b72565b6040516102ad9190614064565b60405180910390f35b3480156102c1575f80fd5b506102dc60048036038101906102d79190614084565b610c01565b6040516102e991906140ee565b60405180910390f35b3480156102fd575f80fd5b5061031860048036038101906103139190614131565b610c1c565b005b348015610325575f80fd5b50610340600480360381019061033b919061416f565b610c32565b005b34801561034d575f80fd5b50610356610d31565b005b348015610363575f80fd5b5061037e600480360381019061037991906141bf565b610d86565b005b34801561038b575f80fd5b506103a660048036038101906103a1919061416f565b610e99565b005b3480156103b3575f80fd5b506103ce60048036038101906103c991906141bf565b610eb8565b6040516103dc9291906141ea565b60405180910390f35b3480156103f0575f80fd5b506103f9610f03565b6040516104069190614220565b60405180910390f35b34801561041a575f80fd5b50610435600480360381019061043091906141bf565b610f09565b60405161044493929190614239565b60405180910390f35b348015610458575f80fd5b50610473600480360381019061046e9190614084565b61107c565b60405161048091906140ee565b60405180910390f35b348015610494575f80fd5b5061049d61108d565b6040516104aa9190614220565b60405180910390f35b3480156104be575f80fd5b506104d960048036038101906104d49190614084565b611093565b6040516104e792919061427c565b60405180910390f35b3480156104fb575f80fd5b50610516600480360381019061051191906142cd565b6110d2565b005b348015610523575f80fd5b5061053e6004803603810190610539919061430b565b611201565b005b34801561054b575f80fd5b50610566600480360381019061056191906141bf565b61133a565b005b348015610573575f80fd5b5061058e600480360381019061058991906141bf565b61144d565b60405161059b9190614220565b60405180910390f35b3480156105af575f80fd5b506105b8611503565b005b3480156105c5575f80fd5b506105e060048036038101906105db9190614349565b611516565b005b3480156105ed575f80fd5b506105f66117f0565b60405161060391906140ee565b60405180910390f35b348015610617575f80fd5b50610632600480360381019061062d919061430b565b611818565b005b34801561063f575f80fd5b50610648611ab6565b6040516106559190614064565b60405180910390f35b348015610669575f80fd5b50610684600480360381019061067f9190614084565b611b46565b6040516106979796959493929190614390565b60405180910390f35b3480156106ab575f80fd5b506106c660048036038101906106c191906142cd565b611d22565b005b3480156106d3575f80fd5b506106ee60048036038101906106e991906142cd565b611e51565b005b3480156106fb575f80fd5b50610716600480360381019061071191906144b0565b611e67565b005b348015610723575f80fd5b5061073e60048036038101906107399190614084565b611e84565b60405161074b9190614064565b60405180910390f35b34801561075f575f80fd5b5061077a60048036038101906107759190614530565b611eea565b005b348015610787575f80fd5b506107a2600480360381019061079d91906141bf565b612292565b6040516107b09291906141ea565b60405180910390f35b3480156107c4575f80fd5b506107df60048036038101906107da9190614084565b6122dd565b005b3480156107ec575f80fd5b50610807600480360381019061080291906145e8565b6123a8565b6040516108149190613d97565b60405180910390f35b348015610828575f80fd5b50610843600480360381019061083e919061430b565b612436565b60405161085293929190614626565b60405180910390f35b348015610866575f80fd5b50610881600480360381019061087c91906141bf565b61249e565b005b34801561088e575f80fd5b506108a960048036038101906108a49190614349565b612522565b005b6108c560048036038101906108c09190614084565b61278e565b005b3480156108d2575f80fd5b506108db612c74565b005b5f7f80ac58cd000000000000000000000000000000000000000000000000000000007bffffffffffffffffffffffffffffffffffffffffffffffffffffffff1916827bffffffffffffffffffffffffffffffffffffffffffffffffffffffff191614806109a757507f5b5e139f000000000000000000000000000000000000000000000000000000007bffffffffffffffffffffffffffffffffffffffffffffffffffffffff1916827bffffffffffffffffffffffffffffffffffffffffffffffffffffffff1916145b806109b757506109b682612e0c565b5b9050919050565b6109c6612e75565b5f8211610a08576040517f08c379a00000000000000000000000000000000000000000000000000000000081526004016109ff906146cb565b60405180910390fd5b5f8111610a4a576040517f08c379a0000000000000000000000000000000000000000000000000000000008152600401610a4190614759565b60405180910390fd5b6040518060e00160405280600754815260200186815260200185815260200184815260200183815260200182815260200160011515815250600a5f60075481526020019081526020015f205f820151815f01556020820151816001019081610ab29190614971565b506040820151816002019081610ac89190614971565b506060820151816003019081610ade9190614971565b506080820151816004015560a0820151816005015560c0820151816006015f6101000a81548160ff02191690831515021790555090505060075f815480929190610b2790614a6d565b91905055507f62a03295cf3254097619e4c525c459f4c5385f131ff770541e79b7e63ac9d3a1600754868484604051610b639493929190614ab4565b60405180910390a15050505050565b60605f8054610b80906147a4565b80601f0160208091040260200160405190810160405280929190818152602001828054610bac906147a4565b8015610bf75780601f10610bce57610100808354040283529160200191610bf7565b820191905f5260205f20905b815481529060010190602001808311610bda57829003601f168201915b5050505050905090565b5f610c0b82612efc565b50610c1582612f82565b9050919050565b610c2e8282610c29612fbb565b612fc2565b5050565b5f73ffffffffffffffffffffffffffffffffffffffff168273ffffffffffffffffffffffffffffffffffffffff1603610ca2575f6040517f64a0ae92000000000000000000000000000000000000000000000000000000008152600401610c9991906140ee565b60405180910390fd5b5f610cb58383610cb0612fbb565b612fd4565b90508373ffffffffffffffffffffffffffffffffffffffff168173ffffffffffffffffffffffffffffffffffffffff1614610d2b578382826040517f64283d7b000000000000000000000000000000000000000000000000000000008152600401610d2293929190614afe565b60405180910390fd5b50505050565b610d39612e75565b610d416117f0565b73ffffffffffffffffffffffffffffffffffffffff166108fc4790811502906040515f60405180830381858888f19350505050158015610d83573d5f803e3d5ffd5b50565b610d8e612e75565b60405180604001604052808273ffffffffffffffffffffffffffffffffffffffff16815260200160011515815250600c5f8373ffffffffffffffffffffffffffffffffffffffff1673ffffffffffffffffffffffffffffffffffffffff1681526020019081526020015f205f820151815f015f6101000a81548173ffffffffffffffffffffffffffffffffffffffff021916908373ffffffffffffffffffffffffffffffffffffffff1602179055506020820151815f0160146101000a81548160ff0219169083151502179055509050507fc314a8ab46f679df157d309facb47ada7dbb5e5e6f33f130257acb39c8237c4081604051610e8e91906140ee565b60405180910390a150565b610eb383838360405180602001604052805f815250611e67565b505050565b600d602052805f5260405f205f91509050805f015f9054906101000a900473ffffffffffffffffffffffffffffffffffffffff1690805f0160149054906101000a900460ff16905082565b60085481565b60605f60605f60095f8673ffffffffffffffffffffffffffffffffffffffff1673ffffffffffffffffffffffffffffffffffffffff1681526020019081526020015f209050805f01816001015482600201828054610f66906147a4565b80601f0160208091040260200160405190810160405280929190818152602001828054610f92906147a4565b8015610fdd5780601f10610fb457610100808354040283529160200191610fdd565b820191905f5260205f20905b815481529060010190602001808311610fc057829003601f168201915b50505050509250808054610ff0906147a4565b80601f016020809104026020016040519081016040528092919081815260200182805461101c906147a4565b80156110675780601f1061103e57610100808354040283529160200191611067565b820191905f5260205f20905b81548152906001019060200180831161104a57829003601f168201915b50505050509050935093509350509193909250565b5f61108682612efc565b9050919050565b60075481565b600e602052805f5260405f205f91509050805f015490806001015f9054906101000a900473ffffffffffffffffffffffffffffffffffffffff16905082565b6110da612e75565b8173ffffffffffffffffffffffffffffffffffffffff16600d5f8473ffffffffffffffffffffffffffffffffffffffff1673ffffffffffffffffffffffffffffffffffffffff1681526020019081526020015f205f015f9054906101000a900473ffffffffffffffffffffffffffffffffffffffff1673ffffffffffffffffffffffffffffffffffffffff16146111a6576040517f08c379a000000000000000000000000000000000000000000000000000000000815260040161119d90614b7d565b60405180910390fd5b80600d5f8473ffffffffffffffffffffffffffffffffffffffff1673ffffffffffffffffffffffffffffffffffffffff1681526020019081526020015f205f0160146101000a81548160ff0219169083151502179055505050565b600b5f8381526020019081526020015f205f8273ffffffffffffffffffffffffffffffffffffffff1673ffffffffffffffffffffffffffffffffffffffff1681526020019081526020015f205f0160149054906101000a900460ff1661129c576040517f08c379a000000000000000000000000000000000000000000000000000000000815260040161129390614be5565b60405180910390fd5b600b5f8381526020019081526020015f205f8273ffffffffffffffffffffffffffffffffffffffff1673ffffffffffffffffffffffffffffffffffffffff1681526020019081526020015f205f8082015f6101000a81549073ffffffffffffffffffffffffffffffffffffffff02191690555f820160146101000a81549060ff02191690555f820160156101000a81549060ff021916905550505050565b611342612e75565b60405180604001604052808273ffffffffffffffffffffffffffffffffffffffff16815260200160011515815250600d5f8373ffffffffffffffffffffffffffffffffffffffff1673ffffffffffffffffffffffffffffffffffffffff1681526020019081526020015f205f820151815f015f6101000a81548173ffffffffffffffffffffffffffffffffffffffff021916908373ffffffffffffffffffffffffffffffffffffffff1602179055506020820151815f0160146101000a81548160ff0219169083151502179055509050507f44d6d25963f097ad14f29f06854a01f575648a1ef82f30e562ccd3889717e3398160405161144291906140ee565b60405180910390a150565b5f8073ffffffffffffffffffffffffffffffffffffffff168273ffffffffffffffffffffffffffffffffffffffff16036114be575f6040517f89c62b640000000000000000000000000000000000000000000000000000000081526004016114b591906140ee565b60405180910390fd5b60035f8373ffffffffffffffffffffffffffffffffffffffff1673ffffffffffffffffffffffffffffffffffffffff1681526020019081526020015f20549050919050565b61150b612e75565b6115145f6131df565b565b61151e612c74565b5f816040516020016115309190614c3d565b60405160208183030381529060405280519060200120905060405160200161155790614c9d565b60405160208183030381529060405280519060200120810361167c57600c5f3373ffffffffffffffffffffffffffffffffffffffff1673ffffffffffffffffffffffffffffffffffffffff1681526020019081526020015f205f0160149054906101000a900460ff166115ff576040517f08c379a00000000000000000000000000000000000000000000000000000000081526004016115f690614cfb565b60405180910390fd5b600c5f3373ffffffffffffffffffffffffffffffffffffffff1673ffffffffffffffffffffffffffffffffffffffff1681526020019081526020015f205f8082015f6101000a81549073ffffffffffffffffffffffffffffffffffffffff02191690555f820160146101000a81549060ff021916905550506117ec565b60405160200161168b90614d63565b6040516020818303038152906040528051906020012081036117b057600d5f3373ffffffffffffffffffffffffffffffffffffffff1673ffffffffffffffffffffffffffffffffffffffff1681526020019081526020015f205f0160149054906101000a900460ff16611733576040517f08c379a000000000000000000000000000000000000000000000000000000000815260040161172a90614dc1565b60405180910390fd5b600d5f3373ffffffffffffffffffffffffffffffffffffffff1673ffffffffffffffffffffffffffffffffffffffff1681526020019081526020015f205f8082015f6101000a81549073ffffffffffffffffffffffffffffffffffffffff02191690555f820160146101000a81549060ff021916905550506117eb565b6040517f08c379a00000000000000000000000000000000000000000000000000000000081526004016117e290614e29565b60405180910390fd5b5b5050565b5f60065f9054906101000a900473ffffffffffffffffffffffffffffffffffffffff16905090565b611820612e75565b600b5f8381526020019081526020015f205f8273ffffffffffffffffffffffffffffffffffffffff1673ffffffffffffffffffffffffffffffffffffffff1681526020019081526020015f205f0160149054906101000a900460ff166118bb576040517f08c379a00000000000000000000000000000000000000000000000000000000081526004016118b290614be5565b60405180910390fd5b5f1515600b5f8481526020019081526020015f205f8373ffffffffffffffffffffffffffffffffffffffff1673ffffffffffffffffffffffffffffffffffffffff1681526020019081526020015f205f0160159054906101000a900460ff1615151461195c576040517f08c379a000000000000000000000000000000000000000000000000000000000815260040161195390614e91565b60405180910390fd5b611968816008546132a2565b6001600b5f8481526020019081526020015f205f8373ffffffffffffffffffffffffffffffffffffffff1673ffffffffffffffffffffffffffffffffffffffff1681526020019081526020015f205f0160156101000a81548160ff021916908315150217905550604051806040016040528060085481526020018273ffffffffffffffffffffffffffffffffffffffff16815250600e5f60085481526020019081526020015f205f820151815f01556020820151816001015f6101000a81548173ffffffffffffffffffffffffffffffffffffffff021916908373ffffffffffffffffffffffffffffffffffffffff1602179055509050507ffec61b9ec0e29047dbeea981617649d79f187d172cfd492695a3d0bfee28883e81600854604051611a93929190614eaf565b60405180910390a160085f815480929190611aad90614a6d565b91905055505050565b606060018054611ac5906147a4565b80601f0160208091040260200160405190810160405280929190818152602001828054611af1906147a4565b8015611b3c5780601f10611b1357610100808354040283529160200191611b3c565b820191905f5260205f20905b815481529060010190602001808311611b1f57829003601f168201915b5050505050905090565b600a602052805f5260405f205f91509050805f015490806001018054611b6b906147a4565b80601f0160208091040260200160405190810160405280929190818152602001828054611b97906147a4565b8015611be25780601f10611bb957610100808354040283529160200191611be2565b820191905f5260205f20905b815481529060010190602001808311611bc557829003601f168201915b505050505090806002018054611bf7906147a4565b80601f0160208091040260200160405190810160405280929190818152602001828054611c23906147a4565b8015611c6e5780601f10611c4557610100808354040283529160200191611c6e565b820191905f5260205f20905b815481529060010190602001808311611c5157829003601f168201915b505050505090806003018054611c83906147a4565b80601f0160208091040260200160405190810160405280929190818152602001828054611caf906147a4565b8015611cfa5780601f10611cd157610100808354040283529160200191611cfa565b820191905f5260205f20905b815481529060010190602001808311611cdd57829003601f168201915b505050505090806004015490806005015490806006015f9054906101000a900460ff16905087565b611d2a612e75565b8173ffffffffffffffffffffffffffffffffffffffff16600c5f8473ffffffffffffffffffffffffffffffffffffffff1673ffffffffffffffffffffffffffffffffffffffff1681526020019081526020015f205f015f9054906101000a900473ffffffffffffffffffffffffffffffffffffffff1673ffffffffffffffffffffffffffffffffffffffff1614611df6576040517f08c379a0000000000000000000000000000000000000000000000000000000008152600401611ded90614f20565b60405180910390fd5b80600c5f8473ffffffffffffffffffffffffffffffffffffffff1673ffffffffffffffffffffffffffffffffffffffff1681526020019081526020015f205f0160146101000a81548160ff0219169083151502179055505050565b611e63611e5c612fbb565b83836132bf565b5050565b611e72848484610c32565b611e7e84848484613428565b50505050565b6060611e8f82612efc565b505f611e996135da565b90505f815111611eb75760405180602001604052805f815250611ee2565b80611ec1846135f0565b604051602001611ed2929190614f3e565b6040516020818303038152906040525b915050919050565b5f60095f3373ffffffffffffffffffffffffffffffffffffffff1673ffffffffffffffffffffffffffffffffffffffff1681526020019081526020015f205f018054611f35906147a4565b905014611f77576040517f08c379a0000000000000000000000000000000000000000000000000000000008152600401611f6e90614fab565b60405180910390fd5b5f81604051602001611f899190614c3d565b604051602081830303815290604052805190602001209050604051602001611fb090614d63565b604051602081830303815290604052805190602001208114158015611ff95750604051602001611fdf90614c9d565b604051602081830303815290604052805190602001208114155b8015612029575060405160200161200f90615013565b604051602081830303815290604052805190602001208114155b15612069576040517f08c379a000000000000000000000000000000000000000000000000000000000815260040161206090615071565b60405180910390fd5b5f60095f3373ffffffffffffffffffffffffffffffffffffffff1673ffffffffffffffffffffffffffffffffffffffff1681526020019081526020015f2060030180546120b5906147a4565b90501461218c5761218b60095f3373ffffffffffffffffffffffffffffffffffffffff1673ffffffffffffffffffffffffffffffffffffffff1681526020019081526020015f20600301805461210a906147a4565b80601f0160208091040260200160405190810160405280929190818152602001828054612136906147a4565b80156121815780601f1061215857610100808354040283529160200191612181565b820191905f5260205f20905b81548152906001019060200180831161216457829003601f168201915b5050505050612522565b5b60405180608001604052808681526020018581526020018481526020018381525060095f3373ffffffffffffffffffffffffffffffffffffffff1673ffffffffffffffffffffffffffffffffffffffff1681526020019081526020015f205f820151815f0190816121fd9190614971565b5060208201518160010155604082015181600201908161221d9190614971565b5060608201518160030190816122339190614971565b509050503373ffffffffffffffffffffffffffffffffffffffff167f93c49eb1f13ebf39cf4e8e4121a855c3ec5b9690af4c714ecd1381bc485bc0c686868686604051612283949392919061508f565b60405180910390a25050505050565b600c602052805f5260405f205f91509050805f015f9054906101000a900473ffffffffffffffffffffffffffffffffffffffff1690805f0160149054906101000a900460ff16905082565b600a5f8281526020019081526020015f206006015f9054906101000a900460ff1661233d576040517f08c379a000000000000000000000000000000000000000000000000000000000815260040161233490615131565b60405180910390fd5b600a5f8281526020019081526020015f205f8082015f9055600182015f6123649190613c94565b600282015f6123739190613c94565b600382015f6123829190613c94565b600482015f9055600582015f9055600682015f6101000a81549060ff0219169055505050565b5f60055f8473ffffffffffffffffffffffffffffffffffffffff1673ffffffffffffffffffffffffffffffffffffffff1681526020019081526020015f205f8373ffffffffffffffffffffffffffffffffffffffff1673ffffffffffffffffffffffffffffffffffffffff1681526020019081526020015f205f9054906101000a900460ff16905092915050565b600b602052815f5260405f20602052805f5260405f205f9150915050805f015f9054906101000a900473ffffffffffffffffffffffffffffffffffffffff1690805f0160149054906101000a900460ff1690805f0160159054906101000a900460ff16905083565b6124a6612e75565b5f73ffffffffffffffffffffffffffffffffffffffff168173ffffffffffffffffffffffffffffffffffffffff1603612516575f6040517f1e4fbdf700000000000000000000000000000000000000000000000000000000815260040161250d91906140ee565b60405180910390fd5b61251f816131df565b50565b5f816040516020016125349190614c3d565b60405160208183030381529060405280519060200120905060405160200161255b90614c9d565b60405160208183030381529060405280519060200120810361264d5760405180604001604052803373ffffffffffffffffffffffffffffffffffffffff16815260200160011515815250600c5f3373ffffffffffffffffffffffffffffffffffffffff1673ffffffffffffffffffffffffffffffffffffffff1681526020019081526020015f205f820151815f015f6101000a81548173ffffffffffffffffffffffffffffffffffffffff021916908373ffffffffffffffffffffffffffffffffffffffff1602179055506020820151815f0160146101000a81548160ff02191690831515021790555090505061278a565b60405160200161265c90614d63565b60405160208183030381529060405280519060200120810361274e5760405180604001604052803373ffffffffffffffffffffffffffffffffffffffff16815260200160011515815250600d5f3373ffffffffffffffffffffffffffffffffffffffff1673ffffffffffffffffffffffffffffffffffffffff1681526020019081526020015f205f820151815f015f6101000a81548173ffffffffffffffffffffffffffffffffffffffff021916908373ffffffffffffffffffffffffffffffffffffffff1602179055506020820151815f0160146101000a81548160ff021916908315150217905550905050612789565b6040517f08c379a000000000000000000000000000000000000000000000000000000000815260040161278090614e29565b60405180910390fd5b5b5050565b5f600a5f8381526020019081526020015f206040518060e00160405290815f82015481526020016001820180546127c4906147a4565b80601f01602080910402602001604051908101604052809291908181526020018280546127f0906147a4565b801561283b5780601f106128125761010080835404028352916020019161283b565b820191905f5260205f20905b81548152906001019060200180831161281e57829003601f168201915b50505050508152602001600282018054612854906147a4565b80601f0160208091040260200160405190810160405280929190818152602001828054612880906147a4565b80156128cb5780601f106128a2576101008083540402835291602001916128cb565b820191905f5260205f20905b8154815290600101906020018083116128ae57829003601f168201915b505050505081526020016003820180546128e4906147a4565b80601f0160208091040260200160405190810160405280929190818152602001828054612910906147a4565b801561295b5780601f106129325761010080835404028352916020019161295b565b820191905f5260205f20905b81548152906001019060200180831161293e57829003601f168201915b505050505081526020016004820154815260200160058201548152602001600682015f9054906101000a900460ff16151515158152505090508060c001516129d8576040517f08c379a00000000000000000000000000000000000000000000000000000000081526004016129cf90615131565b60405180910390fd5b80608001513414612a1e576040517f08c379a0000000000000000000000000000000000000000000000000000000008152600401612a1590615199565b60405180910390fd5b5f1515600b5f8481526020019081526020015f205f3373ffffffffffffffffffffffffffffffffffffffff1673ffffffffffffffffffffffffffffffffffffffff1681526020019081526020015f205f0160149054906101000a900460ff16151514612abf576040517f08c379a0000000000000000000000000000000000000000000000000000000008152600401612ab690615201565b60405180910390fd5b5f8160a0015111612b05576040517f08c379a0000000000000000000000000000000000000000000000000000000008152600401612afc90615269565b60405180910390fd5b60405180606001604052803373ffffffffffffffffffffffffffffffffffffffff1681526020016001151581526020015f1515815250600b5f8481526020019081526020015f205f3373ffffffffffffffffffffffffffffffffffffffff1673ffffffffffffffffffffffffffffffffffffffff1681526020019081526020015f205f820151815f015f6101000a81548173ffffffffffffffffffffffffffffffffffffffff021916908373ffffffffffffffffffffffffffffffffffffffff1602179055506020820151815f0160146101000a81548160ff0219169083151502179055506040820151815f0160156101000a81548160ff0219169083151502179055509050506001600a5f8481526020019081526020015f206005015f828254612c309190615287565b925050819055507f0729bef4a0569fb1fa09db94121e32114ae18918357d5324c3dd31440b83149e8233604051612c6892919061427c565b60405180910390a15050565b5f60095f3373ffffffffffffffffffffffffffffffffffffffff1673ffffffffffffffffffffffffffffffffffffffff1681526020019081526020015f206003018054612cc0906147a4565b905014612d9757612d9660095f3373ffffffffffffffffffffffffffffffffffffffff1673ffffffffffffffffffffffffffffffffffffffff1681526020019081526020015f206003018054612d15906147a4565b80601f0160208091040260200160405190810160405280929190818152602001828054612d41906147a4565b8015612d8c5780601f10612d6357610100808354040283529160200191612d8c565b820191905f5260205f20905b815481529060010190602001808311612d6f57829003601f168201915b5050505050611516565b5b60095f3373ffffffffffffffffffffffffffffffffffffffff1673ffffffffffffffffffffffffffffffffffffffff1681526020019081526020015f205f8082015f612de39190613c94565b600182015f9055600282015f612df99190613c94565b600382015f612e089190613c94565b5050565b5f7f01ffc9a7000000000000000000000000000000000000000000000000000000007bffffffffffffffffffffffffffffffffffffffffffffffffffffffff1916827bffffffffffffffffffffffffffffffffffffffffffffffffffffffff1916149050919050565b612e7d612fbb565b73ffffffffffffffffffffffffffffffffffffffff16612e9b6117f0565b73ffffffffffffffffffffffffffffffffffffffff1614612efa57612ebe612fbb565b6040517f118cdaa7000000000000000000000000000000000000000000000000000000008152600401612ef191906140ee565b60405180910390fd5b565b5f80612f07836136ba565b90505f73ffffffffffffffffffffffffffffffffffffffff168173ffffffffffffffffffffffffffffffffffffffff1603612f7957826040517f7e273289000000000000000000000000000000000000000000000000000000008152600401612f709190614220565b60405180910390fd5b80915050919050565b5f60045f8381526020019081526020015f205f9054906101000a900473ffffffffffffffffffffffffffffffffffffffff169050919050565b5f33905090565b612fcf83838360016136f3565b505050565b5f80612fdf846136ba565b90505f73ffffffffffffffffffffffffffffffffffffffff168373ffffffffffffffffffffffffffffffffffffffff16146130205761301f8184866138b2565b5b5f73ffffffffffffffffffffffffffffffffffffffff168173ffffffffffffffffffffffffffffffffffffffff16146130ab5761305f5f855f806136f3565b600160035f8373ffffffffffffffffffffffffffffffffffffffff1673ffffffffffffffffffffffffffffffffffffffff1681526020019081526020015f205f82825403925050819055505b5f73ffffffffffffffffffffffffffffffffffffffff168573ffffffffffffffffffffffffffffffffffffffff161461312a57600160035f8773ffffffffffffffffffffffffffffffffffffffff1673ffffffffffffffffffffffffffffffffffffffff1681526020019081526020015f205f82825401925050819055505b8460025f8681526020019081526020015f205f6101000a81548173ffffffffffffffffffffffffffffffffffffffff021916908373ffffffffffffffffffffffffffffffffffffffff160217905550838573ffffffffffffffffffffffffffffffffffffffff168273ffffffffffffffffffffffffffffffffffffffff167fddf252ad1be2c89b69c2b068fc378daa952ba7f163c4a11628f55a4df523b3ef60405160405180910390a4809150509392505050565b5f60065f9054906101000a900473ffffffffffffffffffffffffffffffffffffffff1690508160065f6101000a81548173ffffffffffffffffffffffffffffffffffffffff021916908373ffffffffffffffffffffffffffffffffffffffff1602179055508173ffffffffffffffffffffffffffffffffffffffff168173ffffffffffffffffffffffffffffffffffffffff167f8be0079c531659141344cd1fd0a4f28419497f9722a3daafe3b4186f6b6457e060405160405180910390a35050565b6132bb828260405180602001604052805f815250613975565b5050565b5f73ffffffffffffffffffffffffffffffffffffffff168273ffffffffffffffffffffffffffffffffffffffff160361332f57816040517f5b08ba1800000000000000000000000000000000000000000000000000000000815260040161332691906140ee565b60405180910390fd5b8060055f8573ffffffffffffffffffffffffffffffffffffffff1673ffffffffffffffffffffffffffffffffffffffff1681526020019081526020015f205f8473ffffffffffffffffffffffffffffffffffffffff1673ffffffffffffffffffffffffffffffffffffffff1681526020019081526020015f205f6101000a81548160ff0219169083151502179055508173ffffffffffffffffffffffffffffffffffffffff168373ffffffffffffffffffffffffffffffffffffffff167f17307eab39ab6107e8899845ad3d59bd9653f200f220920489ca2b5937696c318360405161341b9190613d97565b60405180910390a3505050565b5f8373ffffffffffffffffffffffffffffffffffffffff163b11156135d4578273ffffffffffffffffffffffffffffffffffffffff1663150b7a0261346b612fbb565b8685856040518563ffffffff1660e01b815260040161348d949392919061530c565b6020604051808303815f875af19250505080156134c857506040513d601f19601f820116820180604052508101906134c5919061536a565b60015b613549573d805f81146134f6576040519150601f19603f3d011682016040523d82523d5f602084013e6134fb565b606091505b505f81510361354157836040517f64a0ae9200000000000000000000000000000000000000000000000000000000815260040161353891906140ee565b60405180910390fd5b805181602001fd5b63150b7a0260e01b7bffffffffffffffffffffffffffffffffffffffffffffffffffffffff1916817bffffffffffffffffffffffffffffffffffffffffffffffffffffffff1916146135d257836040517f64a0ae920000000000000000000000000000000000000000000000000000000081526004016135c991906140ee565b60405180910390fd5b505b50505050565b606060405180602001604052805f815250905090565b60605f60016135fe84613990565b0190505f8167ffffffffffffffff81111561361c5761361b613dc8565b5b6040519080825280601f01601f19166020018201604052801561364e5781602001600182028036833780820191505090505b5090505f82602001820190505b6001156136af578080600190039150507f3031323334353637383961626364656600000000000000000000000000000000600a86061a8153600a85816136a4576136a3615395565b5b0494505f850361365b575b819350505050919050565b5f60025f8381526020019081526020015f205f9054906101000a900473ffffffffffffffffffffffffffffffffffffffff169050919050565b808061372b57505f73ffffffffffffffffffffffffffffffffffffffff168273ffffffffffffffffffffffffffffffffffffffff1614155b1561385d575f61373a84612efc565b90505f73ffffffffffffffffffffffffffffffffffffffff168373ffffffffffffffffffffffffffffffffffffffff16141580156137a457508273ffffffffffffffffffffffffffffffffffffffff168173ffffffffffffffffffffffffffffffffffffffff1614155b80156137b757506137b581846123a8565b155b156137f957826040517fa9fbf51f0000000000000000000000000000000000000000000000000000000081526004016137f091906140ee565b60405180910390fd5b811561385b57838573ffffffffffffffffffffffffffffffffffffffff168273ffffffffffffffffffffffffffffffffffffffff167f8c5be1e5ebec7d5bd14f71427d1e84f3dd0314c0f7b2291e5b200ac8c7c3b92560405160405180910390a45b505b8360045f8581526020019081526020015f205f6101000a81548173ffffffffffffffffffffffffffffffffffffffff021916908373ffffffffffffffffffffffffffffffffffffffff16021790555050505050565b6138bd838383613ae1565b613970575f73ffffffffffffffffffffffffffffffffffffffff168373ffffffffffffffffffffffffffffffffffffffff160361393157806040517f7e2732890000000000000000000000000000000000000000000000000000000081526004016139289190614220565b60405180910390fd5b81816040517f177e802f000000000000000000000000000000000000000000000000000000008152600401613967929190614eaf565b60405180910390fd5b505050565b61397f8383613ba1565b61398b5f848484613428565b505050565b5f805f90507a184f03e93ff9f4daa797ed6e38ed64bf6a1f01000000000000000083106139ec577a184f03e93ff9f4daa797ed6e38ed64bf6a1f01000000000000000083816139e2576139e1615395565b5b0492506040810190505b6d04ee2d6d415b85acef81000000008310613a29576d04ee2d6d415b85acef81000000008381613a1f57613a1e615395565b5b0492506020810190505b662386f26fc100008310613a5857662386f26fc100008381613a4e57613a4d615395565b5b0492506010810190505b6305f5e1008310613a81576305f5e1008381613a7757613a76615395565b5b0492506008810190505b6127108310613aa6576127108381613a9c57613a9b615395565b5b0492506004810190505b60648310613ac95760648381613abf57613abe615395565b5b0492506002810190505b600a8310613ad8576001810190505b80915050919050565b5f8073ffffffffffffffffffffffffffffffffffffffff168373ffffffffffffffffffffffffffffffffffffffff1614158015613b9857508273ffffffffffffffffffffffffffffffffffffffff168473ffffffffffffffffffffffffffffffffffffffff161480613b595750613b5884846123a8565b5b80613b9757508273ffffffffffffffffffffffffffffffffffffffff16613b7f83612f82565b73ffffffffffffffffffffffffffffffffffffffff16145b5b90509392505050565b5f73ffffffffffffffffffffffffffffffffffffffff168273ffffffffffffffffffffffffffffffffffffffff1603613c11575f6040517f64a0ae92000000000000000000000000000000000000000000000000000000008152600401613c0891906140ee565b60405180910390fd5b5f613c1d83835f612fd4565b90505f73ffffffffffffffffffffffffffffffffffffffff168173ffffffffffffffffffffffffffffffffffffffff1614613c8f575f6040517f73c6ac6e000000000000000000000000000000000000000000000000000000008152600401613c8691906140ee565b60405180910390fd5b505050565b508054613ca0906147a4565b5f825580601f10613cb15750613cce565b601f0160209004905f5260205f2090810190613ccd9190613cd1565b5b50565b5b80821115613ce8575f815f905550600101613cd2565b5090565b5f604051905090565b5f80fd5b5f80fd5b5f7fffffffff0000000000000000000000000000000000000000000000000000000082169050919050565b613d3181613cfd565b8114613d3b575f80fd5b50565b5f81359050613d4c81613d28565b92915050565b5f60208284031215613d6757613d66613cf5565b5b5f613d7484828501613d3e565b91505092915050565b5f8115159050919050565b613d9181613d7d565b82525050565b5f602082019050613daa5f830184613d88565b92915050565b5f80fd5b5f80fd5b5f601f19601f8301169050919050565b7f4e487b71000000000000000000000000000000000000000000000000000000005f52604160045260245ffd5b613dfe82613db8565b810181811067ffffffffffffffff82111715613e1d57613e1c613dc8565b5b80604052505050565b5f613e2f613cec565b9050613e3b8282613df5565b919050565b5f67ffffffffffffffff821115613e5a57613e59613dc8565b5b613e6382613db8565b9050602081019050919050565b828183375f83830152505050565b5f613e90613e8b84613e40565b613e26565b905082815260208101848484011115613eac57613eab613db4565b5b613eb7848285613e70565b509392505050565b5f82601f830112613ed357613ed2613db0565b5b8135613ee3848260208601613e7e565b91505092915050565b5f819050919050565b613efe81613eec565b8114613f08575f80fd5b50565b5f81359050613f1981613ef5565b92915050565b5f805f805f60a08688031215613f3857613f37613cf5565b5b5f86013567ffffffffffffffff811115613f5557613f54613cf9565b5b613f6188828901613ebf565b955050602086013567ffffffffffffffff811115613f8257613f81613cf9565b5b613f8e88828901613ebf565b945050604086013567ffffffffffffffff811115613faf57613fae613cf9565b5b613fbb88828901613ebf565b9350506060613fcc88828901613f0b565b9250506080613fdd88828901613f0b565b9150509295509295909350565b5f81519050919050565b5f82825260208201905092915050565b5f5b83811015614021578082015181840152602081019050614006565b5f8484015250505050565b5f61403682613fea565b6140408185613ff4565b9350614050818560208601614004565b61405981613db8565b840191505092915050565b5f6020820190508181035f83015261407c818461402c565b905092915050565b5f6020828403121561409957614098613cf5565b5b5f6140a684828501613f0b565b91505092915050565b5f73ffffffffffffffffffffffffffffffffffffffff82169050919050565b5f6140d8826140af565b9050919050565b6140e8816140ce565b82525050565b5f6020820190506141015f8301846140df565b92915050565b614110816140ce565b811461411a575f80fd5b50565b5f8135905061412b81614107565b92915050565b5f806040838503121561414757614146613cf5565b5b5f6141548582860161411d565b925050602061416585828601613f0b565b9150509250929050565b5f805f6060848603121561418657614185613cf5565b5b5f6141938682870161411d565b93505060206141a48682870161411d565b92505060406141b586828701613f0b565b9150509250925092565b5f602082840312156141d4576141d3613cf5565b5b5f6141e18482850161411d565b91505092915050565b5f6040820190506141fd5f8301856140df565b61420a6020830184613d88565b9392505050565b61421a81613eec565b82525050565b5f6020820190506142335f830184614211565b92915050565b5f6060820190508181035f830152614251818661402c565b90506142606020830185614211565b8181036040830152614272818461402c565b9050949350505050565b5f60408201905061428f5f830185614211565b61429c60208301846140df565b9392505050565b6142ac81613d7d565b81146142b6575f80fd5b50565b5f813590506142c7816142a3565b92915050565b5f80604083850312156142e3576142e2613cf5565b5b5f6142f08582860161411d565b9250506020614301858286016142b9565b9150509250929050565b5f806040838503121561432157614320613cf5565b5b5f61432e85828601613f0b565b925050602061433f8582860161411d565b9150509250929050565b5f6020828403121561435e5761435d613cf5565b5b5f82013567ffffffffffffffff81111561437b5761437a613cf9565b5b61438784828501613ebf565b91505092915050565b5f60e0820190506143a35f83018a614211565b81810360208301526143b5818961402c565b905081810360408301526143c9818861402c565b905081810360608301526143dd818761402c565b90506143ec6080830186614211565b6143f960a0830185614211565b61440660c0830184613d88565b98975050505050505050565b5f67ffffffffffffffff82111561442c5761442b613dc8565b5b61443582613db8565b9050602081019050919050565b5f61445461444f84614412565b613e26565b9050828152602081018484840111156144705761446f613db4565b5b61447b848285613e70565b509392505050565b5f82601f83011261449757614496613db0565b5b81356144a7848260208601614442565b91505092915050565b5f805f80608085870312156144c8576144c7613cf5565b5b5f6144d58782880161411d565b94505060206144e68782880161411d565b93505060406144f787828801613f0b565b925050606085013567ffffffffffffffff81111561451857614517613cf9565b5b61452487828801614483565b91505092959194509250565b5f805f806080858703121561454857614547613cf5565b5b5f85013567ffffffffffffffff81111561456557614564613cf9565b5b61457187828801613ebf565b945050602061458287828801613f0b565b935050604085013567ffffffffffffffff8111156145a3576145a2613cf9565b5b6145af87828801613ebf565b925050606085013567ffffffffffffffff8111156145d0576145cf613cf9565b5b6145dc87828801613ebf565b91505092959194509250565b5f80604083850312156145fe576145fd613cf5565b5b5f61460b8582860161411d565b925050602061461c8582860161411d565b9150509250929050565b5f6060820190506146395f8301866140df565b6146466020830185613d88565b6146536040830184613d88565b949350505050565b7f456c2070726563696f206465626520736572206d61796f7220717565206365725f8201527f6f00000000000000000000000000000000000000000000000000000000000000602082015250565b5f6146b5602183613ff4565b91506146c08261465b565b604082019050919050565b5f6020820190508181035f8301526146e2816146a9565b9050919050565b7f456c206e756d65726f20646520617369656e746f73206465626520736572206d5f8201527f61796f7220717565206365726f00000000000000000000000000000000000000602082015250565b5f614743602d83613ff4565b915061474e826146e9565b604082019050919050565b5f6020820190508181035f83015261477081614737565b9050919050565b7f4e487b71000000000000000000000000000000000000000000000000000000005f52602260045260245ffd5b5f60028204905060018216806147bb57607f821691505b6020821081036147ce576147cd614777565b5b50919050565b5f819050815f5260205f209050919050565b5f6020601f8301049050919050565b5f82821b905092915050565b5f600883026148307fffffffffffffffffffffffffffffffffffffffffffffffffffffffffffffffff826147f5565b61483a86836147f5565b95508019841693508086168417925050509392505050565b5f819050919050565b5f61487561487061486b84613eec565b614852565b613eec565b9050919050565b5f819050919050565b61488e8361485b565b6148a261489a8261487c565b848454614801565b825550505050565b5f90565b6148b66148aa565b6148c1818484614885565b505050565b5b818110156148e4576148d95f826148ae565b6001810190506148c7565b5050565b601f821115614929576148fa816147d4565b614903846147e6565b81016020851015614912578190505b61492661491e856147e6565b8301826148c6565b50505b505050565b5f82821c905092915050565b5f6149495f198460080261492e565b1980831691505092915050565b5f614961838361493a565b9150826002028217905092915050565b61497a82613fea565b67ffffffffffffffff81111561499357614992613dc8565b5b61499d82546147a4565b6149a88282856148e8565b5f60209050601f8311600181146149d9575f84156149c7578287015190505b6149d18582614956565b865550614a38565b601f1984166149e7866147d4565b5f5b82811015614a0e578489015182556001820191506020850194506020810190506149e9565b86831015614a2b5784890151614a27601f89168261493a565b8355505b6001600288020188555050505b505050505050565b7f4e487b71000000000000000000000000000000000000000000000000000000005f52601160045260245ffd5b5f614a7782613eec565b91507fffffffffffffffffffffffffffffffffffffffffffffffffffffffffffffffff8203614aa957614aa8614a40565b5b600182019050919050565b5f608082019050614ac75f830187614211565b8181036020830152614ad9818661402c565b9050614ae86040830185614211565b614af56060830184614211565b95945050505050565b5f606082019050614b115f8301866140df565b614b1e6020830185614211565b614b2b60408301846140df565b949350505050565b7f41646d696e6973747261646f72206e6f206578697374652e00000000000000005f82015250565b5f614b67601883613ff4565b9150614b7282614b33565b602082019050919050565b5f6020820190508181035f830152614b9481614b5b565b9050919050565b7f456c20657374756469616e7465206e6f206573746120696e73637269746f2e005f82015250565b5f614bcf601f83613ff4565b9150614bda82614b9b565b602082019050919050565b5f6020820190508181035f830152614bfc81614bc3565b9050919050565b5f81905092915050565b5f614c1782613fea565b614c218185614c03565b9350614c31818560208601614004565b80840191505092915050565b5f614c488284614c0d565b915081905092915050565b7f50726f666573736f7200000000000000000000000000000000000000000000005f82015250565b5f614c87600983614c03565b9150614c9282614c53565b600982019050919050565b5f614ca782614c7b565b9150819050919050565b7f4e6f20657320756e2070726f6665736f722e00000000000000000000000000005f82015250565b5f614ce5601283613ff4565b9150614cf082614cb1565b602082019050919050565b5f6020820190508181035f830152614d1281614cd9565b9050919050565b7f41646d696e0000000000000000000000000000000000000000000000000000005f82015250565b5f614d4d600583614c03565b9150614d5882614d19565b600582019050919050565b5f614d6d82614d41565b9150819050919050565b7f4e6f20657320756e2061646d696e2e00000000000000000000000000000000005f82015250565b5f614dab600f83613ff4565b9150614db682614d77565b602082019050919050565b5f6020820190508181035f830152614dd881614d9f565b9050919050565b7f526f6c206e6f2076616c69646f2e0000000000000000000000000000000000005f82015250565b5f614e13600e83613ff4565b9150614e1e82614ddf565b602082019050919050565b5f6020820190508181035f830152614e4081614e07565b9050919050565b7f436572746966696361646f20796120656d697469646f2e0000000000000000005f82015250565b5f614e7b601783613ff4565b9150614e8682614e47565b602082019050919050565b5f6020820190508181035f830152614ea881614e6f565b9050919050565b5f604082019050614ec25f8301856140df565b614ecf6020830184614211565b9392505050565b7f50726f6665736f72206e6f206578697374652e000000000000000000000000005f82015250565b5f614f0a601383613ff4565b9150614f1582614ed6565b602082019050919050565b5f6020820190508181035f830152614f3781614efe565b9050919050565b5f614f498285614c0d565b9150614f558284614c0d565b91508190509392505050565b7f456c207573756172696f207961206578697374650000000000000000000000005f82015250565b5f614f95601483613ff4565b9150614fa082614f61565b602082019050919050565b5f6020820190508181035f830152614fc281614f89565b9050919050565b7f53747564656e74000000000000000000000000000000000000000000000000005f82015250565b5f614ffd600783614c03565b915061500882614fc9565b600782019050919050565b5f61501d82614ff1565b9150819050919050565b7f456c20726f6c206e6f2065732076616c69646f000000000000000000000000005f82015250565b5f61505b601383613ff4565b915061506682615027565b602082019050919050565b5f6020820190508181035f8301526150888161504f565b9050919050565b5f6080820190508181035f8301526150a7818761402c565b90506150b66020830186614211565b81810360408301526150c8818561402c565b905081810360608301526150dc818461402c565b905095945050505050565b7f456c20637572736f206e6f20657374612061637469766f2e00000000000000005f82015250565b5f61511b601883613ff4565b9150615126826150e7565b602082019050919050565b5f6020820190508181035f8301526151488161510f565b9050919050565b7f5061676f20696e636f72726563746f2e000000000000000000000000000000005f82015250565b5f615183601083613ff4565b915061518e8261514f565b602082019050919050565b5f6020820190508181035f8301526151b081615177565b9050919050565b7f5961206573746120696e73637269746f2e0000000000000000000000000000005f82015250565b5f6151eb601183613ff4565b91506151f6826151b7565b602082019050919050565b5f6020820190508181035f830152615218816151df565b9050919050565b7f4e6f20686179206375706f7320646973706f6e69626c65732e000000000000005f82015250565b5f615253601983613ff4565b915061525e8261521f565b602082019050919050565b5f6020820190508181035f83015261528081615247565b9050919050565b5f61529182613eec565b915061529c83613eec565b92508282039050818111156152b4576152b3614a40565b5b92915050565b5f81519050919050565b5f82825260208201905092915050565b5f6152de826152ba565b6152e881856152c4565b93506152f8818560208601614004565b61530181613db8565b840191505092915050565b5f60808201905061531f5f8301876140df565b61532c60208301866140df565b6153396040830185614211565b818103606083015261534b81846152d4565b905095945050505050565b5f8151905061536481613d28565b92915050565b5f6020828403121561537f5761537e613cf5565b5b5f61538c84828501615356565b91505092915050565b7f4e487b71000000000000000000000000000000000000000000000000000000005f52601260045260245ffdfea26469706673582212203282c9ae19c9029ec4542c1c19c9577379202c3b295502fa3274ffdb65d8f42f64736f6c63430008150033",
  "immutableReferences": {},
  "source": "// SPDX-License-Identifier: MIT\npragma solidity ^0.8.21;\n\nimport \"@openzeppelin/contracts/token/ERC721/ERC721.sol\";\nimport \"@openzeppelin/contracts/access/Ownable.sol\";\n\ncontract CourseEnrollment is ERC721, Ownable{\n    struct Course {\n        uint id;\n        string name;\n        string description;\n        string category;\n        uint price;\n        uint seats;\n        bool isActive;\n    }\n\n    struct Student {\n        address studentAddress;\n        bool isEnrolled;\n        bool isCertified;\n    }\n\n    struct Certificate {\n        uint tokenId;\n        address studentAddress;\n    }\n\n    struct Professor {\n        address professorAddress;\n        bool isProfessor;\n    }\n\n    struct Admin {\n        address adminAddress;\n        bool isAdmin;\n    }\n\n    struct User {\n        string nombre;\n        uint edad;\n        string correo;\n        string rol;\n    }\n\n\n    uint public courseCount = 0;\n    uint public certificateTokenId = 0;\n\n\n    mapping(address => User) private users;\n    mapping(uint => Course) public courses;\n    mapping(uint => mapping(address => Student)) public enrolledStudents;\n    mapping(address => Professor) public professors;\n    mapping(address => Admin) public admins;\n    mapping(uint => Certificate) public certificates;\n\n    event UserAdded(address indexed usuario, string nombre, uint edad, string correo, string rol);\n    event CourseCreated(uint courseId, string courseName, uint price, uint seats);\n    event StudentEnrolled(uint courseId, address student);\n    event CertificateIssued(address student, uint tokenId);\n    event ProfessorAdded(address professorAddress);\n    event AdminAdded(address adminAddress);\n\n    constructor() ERC721(\"CourseCertificate\", \"CCERT\") Ownable(msg.sender){\n    }\n\n    function asignRoleToUser(string memory _role) public {\n        bytes32 roleHash = keccak256(abi.encodePacked(_role));\n        if (roleHash == keccak256(abi.encodePacked(\"Professor\"))) {\n            professors[msg.sender] = Professor(msg.sender, true);\n        } else if (roleHash == keccak256(abi.encodePacked(\"Admin\"))) {\n            admins[msg.sender] = Admin(msg.sender, true);\n        } else {\n            revert(\"Rol no valido.\");\n        }\n    }\n\n    function deleteAdminOrProfessor(string memory _role) public {\n        removeUser();\n        bytes32 roleHash = keccak256(abi.encodePacked(_role));\n        if (roleHash == keccak256(abi.encodePacked(\"Professor\"))) {\n            require (professors[msg.sender].isProfessor, \"No es un profesor.\");\n            delete professors[msg.sender];\n        } else if (roleHash == keccak256(abi.encodePacked(\"Admin\"))) {\n            require (admins[msg.sender].isAdmin, \"No es un admin.\");\n            delete admins[msg.sender];\n        } else {\n            revert(\"Rol no valido.\");\n        }\n    }\n\n\n    // Crear un nuevo curso\n    function createCourse(string memory _name, string memory _description, string memory _category, uint _price, uint _seats) public onlyOwner {\n        require(_price > 0, \"El precio debe ser mayor que cero\");\n        require(_seats > 0, \"El numero de asientos debe ser mayor que cero\");\n        courses[courseCount] = Course(courseCount, _name, _description, _category, _price, _seats, true);\n        courseCount++;\n        emit CourseCreated(courseCount, _name, _price, _seats);\n    }\n\n    // Inscripcin de estudiantes\n    function enroll(uint _courseId) public payable {\n        Course memory course = courses[_courseId];\n        require(course.isActive, \"El curso no esta activo.\");\n        require(msg.value == course.price, \"Pago incorrecto.\");\n        require(enrolledStudents[_courseId][msg.sender].isEnrolled == false, \"Ya esta inscrito.\");\n        require(course.seats > 0, \"No hay cupos disponibles.\");\n\n        enrolledStudents[_courseId][msg.sender] = Student(msg.sender, true, false);\n        courses[_courseId].seats -= 1;\n\n        emit StudentEnrolled(_courseId, msg.sender);\n    }\n\n    // Emitir certificado al completar el curso\n    function issueCertificate(uint _courseId, address _student) public onlyOwner {\n        require(enrolledStudents[_courseId][_student].isEnrolled, \"El estudiante no esta inscrito.\");\n        require(enrolledStudents[_courseId][_student].isCertified == false, \"Certificado ya emitido.\");\n\n        // Emitir el NFT como certificado\n        _safeMint(_student, certificateTokenId);\n        enrolledStudents[_courseId][_student].isCertified = true;\n        certificates[certificateTokenId] = Certificate(certificateTokenId, _student);\n\n        emit CertificateIssued(_student, certificateTokenId);\n        certificateTokenId++;\n    }\n\n    // Agregar un nuevo profesor\n    function addProfessor(address _professorAddress) public onlyOwner {\n        professors[_professorAddress] = Professor(_professorAddress, true);\n        emit ProfessorAdded(_professorAddress);\n    }\n\n    // Agregar un nuevo administrador\n    function addAdmin(address _adminAddress) public onlyOwner {\n        admins[_adminAddress] = Admin(_adminAddress, true);\n        emit AdminAdded(_adminAddress);\n    }\n\n    // Modificar la informacin de un profesor\n    function updateProfessor(address _professorAddress, bool _isProfessor) public onlyOwner {\n        require(professors[_professorAddress].professorAddress == _professorAddress, \"Profesor no existe.\");\n        professors[_professorAddress].isProfessor = _isProfessor;\n    }\n\n    // Modificar la informacin de un administrador\n    function updateAdmin(address _adminAddress, bool _isAdmin) public onlyOwner {\n        require(admins[_adminAddress].adminAddress == _adminAddress, \"Administrador no existe.\");\n        admins[_adminAddress].isAdmin = _isAdmin;\n    }\n\n    // Retirar fondos del contrato (solo el propietario)\n    function withdraw() public onlyOwner {\n        payable(owner()).transfer(address(this).balance);\n    }\n\n    function removeCourse(uint _idCourse) public {\n        require (courses[_idCourse].isActive, \"El curso no esta activo.\");\n        delete courses[_idCourse];\n    }\n\n    function removeStudentFromCourse(uint _courseId, address _student) public {\n        require(enrolledStudents[_courseId][_student].isEnrolled, \"El estudiante no esta inscrito.\");\n        delete enrolledStudents[_courseId][_student];\n    }\n\n\n    function addUser(string memory _nombre, uint _edad, string memory _correo, string memory _role) public {\n\n        // Verifica si el usuario ya existe\n        if (bytes(users[msg.sender].nombre).length != 0) {\n            revert(\"El usuario ya existe\");\n        }\n\n        // Verifica si el rol es vlido\n        bytes32 rolHash = keccak256(abi.encodePacked(_role));\n        if (rolHash != keccak256(abi.encodePacked(\"Admin\")) &&\n            rolHash != keccak256(abi.encodePacked(\"Professor\")) &&\n            rolHash != keccak256(abi.encodePacked(\"Student\"))) {\n            revert(\"El rol no es valido\");\n        }\n        if (bytes(users[msg.sender].rol).length != 0) {\n            asignRoleToUser(users[msg.sender].rol);\n        }\n\n        // Agrega el usuario al mapeo usando la direccin del remitente como clave\n        \n        users[msg.sender] = User(_nombre, _edad, _correo, _role);\n        \n        // Emitir un evento para notificar que se ha agregado un nuevo usuario\n        emit UserAdded(msg.sender, _nombre, _edad, _correo, _role);\n    }\n    \n    // Funcin para obtener la informacin de un usuario\n    function obtenerUsuario(address _usuario) public view returns (string memory nombre, uint edad, string memory correo) {\n        User storage user = users[_usuario];\n        return (user.nombre, user.edad, user.correo);\n    }\n\n    function removeUser() public {\n        if (bytes(users[msg.sender].rol).length != 0) {\n            deleteAdminOrProfessor(users[msg.sender].rol);\n        }\n        delete users[msg.sender];\n    }\n\n}",
  "sourcePath": "/home/hackaton/Desktop/Hackaton/hackaton-api/contracts/CourseEnrollment.sol",
  "compiler": {
    "name": "solc",
    "version": "0.8.21+commit.d9974bed.Emscripten.clang"
  },
  "schemaVersion": "3.4.16",
  "updatedAt": "2024-09-08T00:40:22.876Z",
  "networkType": "ethereum",
  "devdoc": {
    "errors": {
      "ERC721IncorrectOwner(address,uint256,address)": [
        {
          "details": "Indicates an error related to the ownership over a particular token. Used in transfers.",
          "params": {
            "owner": "Address of the current owner of a token.",
            "sender": "Address whose tokens are being transferred.",
            "tokenId": "Identifier number of a token."
          }
        }
      ],
      "ERC721InsufficientApproval(address,uint256)": [
        {
          "details": "Indicates a failure with the `operator`s approval. Used in transfers.",
          "params": {
            "operator": "Address that may be allowed to operate on tokens without being their owner.",
            "tokenId": "Identifier number of a token."
          }
        }
      ],
      "ERC721InvalidApprover(address)": [
        {
          "details": "Indicates a failure with the `approver` of a token to be approved. Used in approvals.",
          "params": {
            "approver": "Address initiating an approval operation."
          }
        }
      ],
      "ERC721InvalidOperator(address)": [
        {
          "details": "Indicates a failure with the `operator` to be approved. Used in approvals.",
          "params": {
            "operator": "Address that may be allowed to operate on tokens without being their owner."
          }
        }
      ],
      "ERC721InvalidOwner(address)": [
        {
          "details": "Indicates that an address can't be an owner. For example, `address(0)` is a forbidden owner in EIP-20. Used in balance queries.",
          "params": {
            "owner": "Address of the current owner of a token."
          }
        }
      ],
      "ERC721InvalidReceiver(address)": [
        {
          "details": "Indicates a failure with the token `receiver`. Used in transfers.",
          "params": {
            "receiver": "Address to which tokens are being transferred."
          }
        }
      ],
      "ERC721InvalidSender(address)": [
        {
          "details": "Indicates a failure with the token `sender`. Used in transfers.",
          "params": {
            "sender": "Address whose tokens are being transferred."
          }
        }
      ],
      "ERC721NonexistentToken(uint256)": [
        {
          "details": "Indicates a `tokenId` whose `owner` is the zero address.",
          "params": {
            "tokenId": "Identifier number of a token."
          }
        }
      ],
      "OwnableInvalidOwner(address)": [
        {
          "details": "The owner is not a valid owner account. (eg. `address(0)`)"
        }
      ],
      "OwnableUnauthorizedAccount(address)": [
        {
          "details": "The caller account is not authorized to perform an operation."
        }
      ]
    },
    "events": {
      "Approval(address,address,uint256)": {
        "details": "Emitted when `owner` enables `approved` to manage the `tokenId` token."
      },
      "ApprovalForAll(address,address,bool)": {
        "details": "Emitted when `owner` enables or disables (`approved`) `operator` to manage all of its assets."
      },
      "Transfer(address,address,uint256)": {
        "details": "Emitted when `tokenId` token is transferred from `from` to `to`."
      }
    },
    "kind": "dev",
    "methods": {
      "approve(address,uint256)": {
        "details": "See {IERC721-approve}."
      },
      "balanceOf(address)": {
        "details": "See {IERC721-balanceOf}."
      },
      "getApproved(uint256)": {
        "details": "See {IERC721-getApproved}."
      },
      "isApprovedForAll(address,address)": {
        "details": "See {IERC721-isApprovedForAll}."
      },
      "name()": {
        "details": "See {IERC721Metadata-name}."
      },
      "owner()": {
        "details": "Returns the address of the current owner."
      },
      "ownerOf(uint256)": {
        "details": "See {IERC721-ownerOf}."
      },
      "renounceOwnership()": {
        "details": "Leaves the contract without owner. It will not be possible to call `onlyOwner` functions. Can only be called by the current owner. NOTE: Renouncing ownership will leave the contract without an owner, thereby disabling any functionality that is only available to the owner."
      },
      "safeTransferFrom(address,address,uint256)": {
        "details": "See {IERC721-safeTransferFrom}."
      },
      "safeTransferFrom(address,address,uint256,bytes)": {
        "details": "See {IERC721-safeTransferFrom}."
      },
      "setApprovalForAll(address,bool)": {
        "details": "See {IERC721-setApprovalForAll}."
      },
      "supportsInterface(bytes4)": {
        "details": "See {IERC165-supportsInterface}."
      },
      "symbol()": {
        "details": "See {IERC721Metadata-symbol}."
      },
      "tokenURI(uint256)": {
        "details": "See {IERC721Metadata-tokenURI}."
      },
      "transferFrom(address,address,uint256)": {
        "details": "See {IERC721-transferFrom}."
      },
      "transferOwnership(address)": {
        "details": "Transfers ownership of the contract to a new account (`newOwner`). Can only be called by the current owner."
      }
    },
    "version": 1
  },
  "userdoc": {
    "kind": "user",
    "methods": {},
    "version": 1
  }
}