{
  "contractName": "CourseManagement",
  "abi": [
    {
      "inputs": [],
      "stateMutability": "nonpayable",
      "type": "constructor"
    },
    {
      "inputs": [
        {
          "internalType": "address",
          "name": "sender",
          "type": "address"
        },
        {
          "internalType": "uint256",
          "name": "tokenId",
          "type": "uint256"
        },
        {
          "internalType": "address",
          "name": "owner",
          "type": "address"
        }
      ],
      "name": "ERC721IncorrectOwner",
      "type": "error"
    },
    {
      "inputs": [
        {
          "internalType": "address",
          "name": "operator",
          "type": "address"
        },
        {
          "internalType": "uint256",
          "name": "tokenId",
          "type": "uint256"
        }
      ],
      "name": "ERC721InsufficientApproval",
      "type": "error"
    },
    {
      "inputs": [
        {
          "internalType": "address",
          "name": "approver",
          "type": "address"
        }
      ],
      "name": "ERC721InvalidApprover",
      "type": "error"
    },
    {
      "inputs": [
        {
          "internalType": "address",
          "name": "operator",
          "type": "address"
        }
      ],
      "name": "ERC721InvalidOperator",
      "type": "error"
    },
    {
      "inputs": [
        {
          "internalType": "address",
          "name": "owner",
          "type": "address"
        }
      ],
      "name": "ERC721InvalidOwner",
      "type": "error"
    },
    {
      "inputs": [
        {
          "internalType": "address",
          "name": "receiver",
          "type": "address"
        }
      ],
      "name": "ERC721InvalidReceiver",
      "type": "error"
    },
    {
      "inputs": [
        {
          "internalType": "address",
          "name": "sender",
          "type": "address"
        }
      ],
      "name": "ERC721InvalidSender",
      "type": "error"
    },
    {
      "inputs": [
        {
          "internalType": "uint256",
          "name": "tokenId",
          "type": "uint256"
        }
      ],
      "name": "ERC721NonexistentToken",
      "type": "error"
    },
    {
      "inputs": [
        {
          "internalType": "address",
          "name": "owner",
          "type": "address"
        }
      ],
      "name": "OwnableInvalidOwner",
      "type": "error"
    },
    {
      "inputs": [
        {
          "internalType": "address",
          "name": "account",
          "type": "address"
        }
      ],
      "name": "OwnableUnauthorizedAccount",
      "type": "error"
    },
    {
      "anonymous": false,
      "inputs": [
        {
          "indexed": true,
          "internalType": "address",
          "name": "owner",
          "type": "address"
        },
        {
          "indexed": true,
          "internalType": "address",
          "name": "approved",
          "type": "address"
        },
        {
          "indexed": true,
          "internalType": "uint256",
          "name": "tokenId",
          "type": "uint256"
        }
      ],
      "name": "Approval",
      "type": "event"
    },
    {
      "anonymous": false,
      "inputs": [
        {
          "indexed": true,
          "internalType": "address",
          "name": "owner",
          "type": "address"
        },
        {
          "indexed": true,
          "internalType": "address",
          "name": "operator",
          "type": "address"
        },
        {
          "indexed": false,
          "internalType": "bool",
          "name": "approved",
          "type": "bool"
        }
      ],
      "name": "ApprovalForAll",
      "type": "event"
    },
    {
      "anonymous": false,
      "inputs": [
        {
          "indexed": false,
          "internalType": "address",
          "name": "student",
          "type": "address"
        },
        {
          "indexed": false,
          "internalType": "uint256",
          "name": "tokenId",
          "type": "uint256"
        }
      ],
      "name": "CertificateIssued",
      "type": "event"
    },
    {
      "anonymous": false,
      "inputs": [
        {
          "indexed": false,
          "internalType": "uint256",
          "name": "tokenId",
          "type": "uint256"
        },
        {
          "indexed": false,
          "internalType": "address",
          "name": "student",
          "type": "address"
        }
      ],
      "name": "CertificateUpdated",
      "type": "event"
    },
    {
      "anonymous": false,
      "inputs": [
        {
          "indexed": false,
          "internalType": "uint256",
          "name": "courseId",
          "type": "uint256"
        },
        {
          "indexed": false,
          "internalType": "string",
          "name": "courseName",
          "type": "string"
        },
        {
          "indexed": false,
          "internalType": "uint256",
          "name": "price",
          "type": "uint256"
        }
      ],
      "name": "CourseCreated",
      "type": "event"
    },
    {
      "anonymous": false,
      "inputs": [
        {
          "indexed": false,
          "internalType": "uint256",
          "name": "courseId",
          "type": "uint256"
        }
      ],
      "name": "CourseRemoved",
      "type": "event"
    },
    {
      "anonymous": false,
      "inputs": [
        {
          "indexed": false,
          "internalType": "uint256",
          "name": "courseId",
          "type": "uint256"
        },
        {
          "indexed": false,
          "internalType": "string",
          "name": "courseName",
          "type": "string"
        },
        {
          "indexed": false,
          "internalType": "uint256",
          "name": "price",
          "type": "uint256"
        }
      ],
      "name": "CourseUpdated",
      "type": "event"
    },
    {
      "anonymous": false,
      "inputs": [
        {
          "indexed": true,
          "internalType": "address",
          "name": "previousOwner",
          "type": "address"
        },
        {
          "indexed": true,
          "internalType": "address",
          "name": "newOwner",
          "type": "address"
        }
      ],
      "name": "OwnershipTransferred",
      "type": "event"
    },
    {
      "anonymous": false,
      "inputs": [
        {
          "indexed": false,
          "internalType": "uint256",
          "name": "courseId",
          "type": "uint256"
        },
        {
          "indexed": false,
          "internalType": "address",
          "name": "student",
          "type": "address"
        }
      ],
      "name": "StudentEnrolled",
      "type": "event"
    },
    {
      "anonymous": false,
      "inputs": [
        {
          "indexed": true,
          "internalType": "address",
          "name": "from",
          "type": "address"
        },
        {
          "indexed": true,
          "internalType": "address",
          "name": "to",
          "type": "address"
        },
        {
          "indexed": true,
          "internalType": "uint256",
          "name": "tokenId",
          "type": "uint256"
        }
      ],
      "name": "Transfer",
      "type": "event"
    },
    {
      "inputs": [
        {
          "internalType": "address",
          "name": "to",
          "type": "address"
        },
        {
          "internalType": "uint256",
          "name": "tokenId",
          "type": "uint256"
        }
      ],
      "name": "approve",
      "outputs": [],
      "stateMutability": "nonpayable",
      "type": "function"
    },
    {
      "inputs": [
        {
          "internalType": "address",
          "name": "owner",
          "type": "address"
        }
      ],
      "name": "balanceOf",
      "outputs": [
        {
          "internalType": "uint256",
          "name": "",
          "type": "uint256"
        }
      ],
      "stateMutability": "view",
      "type": "function"
    },
    {
      "inputs": [],
      "name": "certificateTokenId",
      "outputs": [
        {
          "internalType": "uint256",
          "name": "",
          "type": "uint256"
        }
      ],
      "stateMutability": "view",
      "type": "function"
    },
    {
      "inputs": [
        {
          "internalType": "uint256",
          "name": "",
          "type": "uint256"
        }
      ],
      "name": "certificates",
      "outputs": [
        {
          "internalType": "uint256",
          "name": "tokenId",
          "type": "uint256"
        },
        {
          "internalType": "address",
          "name": "studentAddress",
          "type": "address"
        }
      ],
      "stateMutability": "view",
      "type": "function"
    },
    {
      "inputs": [],
      "name": "courseCount",
      "outputs": [
        {
          "internalType": "uint256",
          "name": "",
          "type": "uint256"
        }
      ],
      "stateMutability": "view",
      "type": "function"
    },
    {
      "inputs": [
        {
          "internalType": "uint256",
          "name": "",
          "type": "uint256"
        }
      ],
      "name": "courses",
      "outputs": [
        {
          "internalType": "uint256",
          "name": "id",
          "type": "uint256"
        },
        {
          "internalType": "string",
          "name": "name",
          "type": "string"
        },
        {
          "internalType": "string",
          "name": "description",
          "type": "string"
        },
        {
          "internalType": "string",
          "name": "category",
          "type": "string"
        },
        {
          "internalType": "uint256",
          "name": "price",
          "type": "uint256"
        },
        {
          "internalType": "bool",
          "name": "isActive",
          "type": "bool"
        },
        {
          "internalType": "string",
          "name": "courseImg",
          "type": "string"
        },
        {
          "internalType": "string",
          "name": "courseVid",
          "type": "string"
        }
      ],
      "stateMutability": "view",
      "type": "function"
    },
    {
      "inputs": [
        {
          "internalType": "uint256",
          "name": "",
          "type": "uint256"
        },
        {
          "internalType": "address",
          "name": "",
          "type": "address"
        }
      ],
      "name": "enrolledStudents",
      "outputs": [
        {
          "internalType": "address",
          "name": "studentAddress",
          "type": "address"
        },
        {
          "internalType": "bool",
          "name": "isEnrolled",
          "type": "bool"
        },
        {
          "internalType": "bool",
          "name": "isCertified",
          "type": "bool"
        }
      ],
      "stateMutability": "view",
      "type": "function"
    },
    {
      "inputs": [
        {
          "internalType": "uint256",
          "name": "tokenId",
          "type": "uint256"
        }
      ],
      "name": "getApproved",
      "outputs": [
        {
          "internalType": "address",
          "name": "",
          "type": "address"
        }
      ],
      "stateMutability": "view",
      "type": "function"
    },
    {
      "inputs": [
        {
          "internalType": "address",
          "name": "owner",
          "type": "address"
        },
        {
          "internalType": "address",
          "name": "operator",
          "type": "address"
        }
      ],
      "name": "isApprovedForAll",
      "outputs": [
        {
          "internalType": "bool",
          "name": "",
          "type": "bool"
        }
      ],
      "stateMutability": "view",
      "type": "function"
    },
    {
      "inputs": [],
      "name": "name",
      "outputs": [
        {
          "internalType": "string",
          "name": "",
          "type": "string"
        }
      ],
      "stateMutability": "view",
      "type": "function"
    },
    {
      "inputs": [],
      "name": "owner",
      "outputs": [
        {
          "internalType": "address",
          "name": "",
          "type": "address"
        }
      ],
      "stateMutability": "view",
      "type": "function"
    },
    {
      "inputs": [
        {
          "internalType": "uint256",
          "name": "tokenId",
          "type": "uint256"
        }
      ],
      "name": "ownerOf",
      "outputs": [
        {
          "internalType": "address",
          "name": "",
          "type": "address"
        }
      ],
      "stateMutability": "view",
      "type": "function"
    },
    {
      "inputs": [],
      "name": "renounceOwnership",
      "outputs": [],
      "stateMutability": "nonpayable",
      "type": "function"
    },
    {
      "inputs": [
        {
          "internalType": "address",
          "name": "from",
          "type": "address"
        },
        {
          "internalType": "address",
          "name": "to",
          "type": "address"
        },
        {
          "internalType": "uint256",
          "name": "tokenId",
          "type": "uint256"
        }
      ],
      "name": "safeTransferFrom",
      "outputs": [],
      "stateMutability": "nonpayable",
      "type": "function"
    },
    {
      "inputs": [
        {
          "internalType": "address",
          "name": "from",
          "type": "address"
        },
        {
          "internalType": "address",
          "name": "to",
          "type": "address"
        },
        {
          "internalType": "uint256",
          "name": "tokenId",
          "type": "uint256"
        },
        {
          "internalType": "bytes",
          "name": "data",
          "type": "bytes"
        }
      ],
      "name": "safeTransferFrom",
      "outputs": [],
      "stateMutability": "nonpayable",
      "type": "function"
    },
    {
      "inputs": [
        {
          "internalType": "address",
          "name": "operator",
          "type": "address"
        },
        {
          "internalType": "bool",
          "name": "approved",
          "type": "bool"
        }
      ],
      "name": "setApprovalForAll",
      "outputs": [],
      "stateMutability": "nonpayable",
      "type": "function"
    },
    {
      "inputs": [
        {
          "internalType": "bytes4",
          "name": "interfaceId",
          "type": "bytes4"
        }
      ],
      "name": "supportsInterface",
      "outputs": [
        {
          "internalType": "bool",
          "name": "",
          "type": "bool"
        }
      ],
      "stateMutability": "view",
      "type": "function"
    },
    {
      "inputs": [],
      "name": "symbol",
      "outputs": [
        {
          "internalType": "string",
          "name": "",
          "type": "string"
        }
      ],
      "stateMutability": "view",
      "type": "function"
    },
    {
      "inputs": [
        {
          "internalType": "uint256",
          "name": "tokenId",
          "type": "uint256"
        }
      ],
      "name": "tokenURI",
      "outputs": [
        {
          "internalType": "string",
          "name": "",
          "type": "string"
        }
      ],
      "stateMutability": "view",
      "type": "function"
    },
    {
      "inputs": [
        {
          "internalType": "address",
          "name": "from",
          "type": "address"
        },
        {
          "internalType": "address",
          "name": "to",
          "type": "address"
        },
        {
          "internalType": "uint256",
          "name": "tokenId",
          "type": "uint256"
        }
      ],
      "name": "transferFrom",
      "outputs": [],
      "stateMutability": "nonpayable",
      "type": "function"
    },
    {
      "inputs": [
        {
          "internalType": "address",
          "name": "newOwner",
          "type": "address"
        }
      ],
      "name": "transferOwnership",
      "outputs": [],
      "stateMutability": "nonpayable",
      "type": "function"
    },
    {
      "inputs": [
        {
          "internalType": "string",
          "name": "_name",
          "type": "string"
        },
        {
          "internalType": "string",
          "name": "_description",
          "type": "string"
        },
        {
          "internalType": "string",
          "name": "_category",
          "type": "string"
        },
        {
          "internalType": "uint256",
          "name": "_price",
          "type": "uint256"
        },
        {
          "internalType": "string",
          "name": "_img",
          "type": "string"
        },
        {
          "internalType": "string",
          "name": "_vid",
          "type": "string"
        }
      ],
      "name": "createCourse",
      "outputs": [],
      "stateMutability": "nonpayable",
      "type": "function"
    },
    {
      "inputs": [
        {
          "internalType": "uint256",
          "name": "_courseId",
          "type": "uint256"
        }
      ],
      "name": "enroll",
      "outputs": [],
      "stateMutability": "payable",
      "type": "function"
    },
    {
      "inputs": [
        {
          "internalType": "uint256",
          "name": "_courseId",
          "type": "uint256"
        }
      ],
      "name": "removeCourse",
      "outputs": [],
      "stateMutability": "nonpayable",
      "type": "function"
    },
    {
      "inputs": [
        {
          "internalType": "uint256",
          "name": "_courseId",
          "type": "uint256"
        },
        {
          "internalType": "address",
          "name": "_student",
          "type": "address"
        }
      ],
      "name": "issueCertificate",
      "outputs": [],
      "stateMutability": "nonpayable",
      "type": "function"
    }
  ],
  "bytecode": "0x60806040525f6007555f60085534801562000018575f80fd5b50336040518060400160405280601181526020017f436f7572736543657274696669636174650000000000000000000000000000008152506040518060400160405280600581526020017f4343455254000000000000000000000000000000000000000000000000000000815250815f90816200009691906200045d565b508060019081620000a891906200045d565b5050505f73ffffffffffffffffffffffffffffffffffffffff168173ffffffffffffffffffffffffffffffffffffffff16036200011e575f6040517f1e4fbdf700000000000000000000000000000000000000000000000000000000815260040162000115919062000584565b60405180910390fd5b6200012f816200013660201b60201c565b506200059f565b5f60065f9054906101000a900473ffffffffffffffffffffffffffffffffffffffff1690508160065f6101000a81548173ffffffffffffffffffffffffffffffffffffffff021916908373ffffffffffffffffffffffffffffffffffffffff1602179055508173ffffffffffffffffffffffffffffffffffffffff168173ffffffffffffffffffffffffffffffffffffffff167f8be0079c531659141344cd1fd0a4f28419497f9722a3daafe3b4186f6b6457e060405160405180910390a35050565b5f81519050919050565b7f4e487b71000000000000000000000000000000000000000000000000000000005f52604160045260245ffd5b7f4e487b71000000000000000000000000000000000000000000000000000000005f52602260045260245ffd5b5f60028204905060018216806200027557607f821691505b6020821081036200028b576200028a62000230565b5b50919050565b5f819050815f5260205f209050919050565b5f6020601f8301049050919050565b5f82821b905092915050565b5f60088302620002ef7fffffffffffffffffffffffffffffffffffffffffffffffffffffffffffffffff82620002b2565b620002fb8683620002b2565b95508019841693508086168417925050509392505050565b5f819050919050565b5f819050919050565b5f620003456200033f620003398462000313565b6200031c565b62000313565b9050919050565b5f819050919050565b620003608362000325565b620003786200036f826200034c565b848454620002be565b825550505050565b5f90565b6200038e62000380565b6200039b81848462000355565b505050565b5b81811015620003c257620003b65f8262000384565b600181019050620003a1565b5050565b601f8211156200041157620003db8162000291565b620003e684620002a3565b81016020851015620003f6578190505b6200040e6200040585620002a3565b830182620003a0565b50505b505050565b5f82821c905092915050565b5f620004335f198460080262000416565b1980831691505092915050565b5f6200044d838362000422565b9150826002028217905092915050565b6200046882620001f9565b67ffffffffffffffff81111562000484576200048362000203565b5b6200049082546200025d565b6200049d828285620003c6565b5f60209050601f831160018114620004d3575f8415620004be578287015190505b620004ca858262000440565b86555062000539565b601f198416620004e38662000291565b5f5b828110156200050c57848901518255600182019150602085019450602081019050620004e5565b868310156200052c578489015162000528601f89168262000422565b8355505b6001600288020188555050505b505050505050565b5f73ffffffffffffffffffffffffffffffffffffffff82169050919050565b5f6200056c8262000541565b9050919050565b6200057e8162000560565b82525050565b5f602082019050620005995f83018462000573565b92915050565b6138ba80620005ad5f395ff3fe608060405260043610610165575f3560e01c8063715018a6116100d0578063b88d4fde11610089578063e985e9c511610063578063e985e9c51461053d578063eda6c2d714610579578063f2fde38b146105b7578063f57d585b146105df57610165565b8063b88d4fde146104b1578063c87b56dd146104d9578063df3addfa1461051557610165565b8063715018a6146103b45780638da5cb5b146103ca5780638fe8b391146103f457806395d89b411461041c57806396f979d214610446578063a22cb4651461048957610165565b806342842e0e1161012257806342842e0e146102835780634b24691f146102ab5780636352211e146102d55780636605515914610311578063663b3e221461033b57806370a082311461037857610165565b806301ffc9a71461016957806306fdde03146101a5578063081812fc146101cf578063095ea7b31461020b57806323b872dd146102335780632c233e151461025b575b5f80fd5b348015610174575f80fd5b5061018f600480360381019061018a91906128ad565b6105fb565b60405161019c91906128f2565b60405180910390f35b3480156101b0575f80fd5b506101b96106dc565b6040516101c69190612995565b60405180910390f35b3480156101da575f80fd5b506101f560048036038101906101f091906129e8565b61076b565b6040516102029190612a52565b60405180910390f35b348015610216575f80fd5b50610231600480360381019061022c9190612a95565b610786565b005b34801561023e575f80fd5b5061025960048036038101906102549190612ad3565b61079c565b005b348015610266575f80fd5b50610281600480360381019061027c9190612c4f565b61089b565b005b34801561028e575f80fd5b506102a960048036038101906102a49190612ad3565b610a35565b005b3480156102b6575f80fd5b506102bf610a54565b6040516102cc9190612d73565b60405180910390f35b3480156102e0575f80fd5b506102fb60048036038101906102f691906129e8565b610a5a565b6040516103089190612a52565b60405180910390f35b34801561031c575f80fd5b50610325610a6b565b6040516103329190612d73565b60405180910390f35b348015610346575f80fd5b50610361600480360381019061035c91906129e8565b610a71565b60405161036f929190612d8c565b60405180910390f35b348015610383575f80fd5b5061039e60048036038101906103999190612db3565b610ab0565b6040516103ab9190612d73565b60405180910390f35b3480156103bf575f80fd5b506103c8610b66565b005b3480156103d5575f80fd5b506103de610b79565b6040516103eb9190612a52565b60405180910390f35b3480156103ff575f80fd5b5061041a60048036038101906104159190612dde565b610ba1565b005b348015610427575f80fd5b50610430610e3a565b60405161043d9190612995565b60405180910390f35b348015610451575f80fd5b5061046c600480360381019061046791906129e8565b610eca565b604051610480989796959493929190612e1c565b60405180910390f35b348015610494575f80fd5b506104af60048036038101906104aa9190612ee5565b6111b8565b005b3480156104bc575f80fd5b506104d760048036038101906104d29190612fc1565b6111ce565b005b3480156104e4575f80fd5b506104ff60048036038101906104fa91906129e8565b6111eb565b60405161050c9190612995565b60405180910390f35b348015610520575f80fd5b5061053b600480360381019061053691906129e8565b611251565b005b348015610548575f80fd5b50610563600480360381019061055e9190613041565b6112be565b60405161057091906128f2565b60405180910390f35b348015610584575f80fd5b5061059f600480360381019061059a9190612dde565b61134c565b6040516105ae9392919061307f565b60405180910390f35b3480156105c2575f80fd5b506105dd60048036038101906105d89190612db3565b6113b4565b005b6105f960048036038101906105f491906129e8565b611438565b005b5f7f80ac58cd000000000000000000000000000000000000000000000000000000007bffffffffffffffffffffffffffffffffffffffffffffffffffffffff1916827bffffffffffffffffffffffffffffffffffffffffffffffffffffffff191614806106c557507f5b5e139f000000000000000000000000000000000000000000000000000000007bffffffffffffffffffffffffffffffffffffffffffffffffffffffff1916827bffffffffffffffffffffffffffffffffffffffffffffffffffffffff1916145b806106d557506106d4826119bf565b5b9050919050565b60605f80546106ea906130e1565b80601f0160208091040260200160405190810160405280929190818152602001828054610716906130e1565b80156107615780601f1061073857610100808354040283529160200191610761565b820191905f5260205f20905b81548152906001019060200180831161074457829003601f168201915b5050505050905090565b5f61077582611a28565b5061077f82611aae565b9050919050565b6107988282610793611ae7565b611aee565b5050565b5f73ffffffffffffffffffffffffffffffffffffffff168273ffffffffffffffffffffffffffffffffffffffff160361080c575f6040517f64a0ae920000000000000000000000000000000000000000000000000000000081526004016108039190612a52565b60405180910390fd5b5f61081f838361081a611ae7565b611b00565b90508373ffffffffffffffffffffffffffffffffffffffff168173ffffffffffffffffffffffffffffffffffffffff1614610895578382826040517f64283d7b00000000000000000000000000000000000000000000000000000000815260040161088c93929190613111565b60405180910390fd5b50505050565b6108a3611d0b565b5f83116108e5576040517f08c379a00000000000000000000000000000000000000000000000000000000081526004016108dc906131b6565b60405180910390fd5b60405180610100016040528060075481526020018781526020018681526020018581526020018481526020016001151581526020018381526020018281525060095f60075481526020019081526020015f205f820151815f015560208201518160010190816109549190613371565b50604082015181600201908161096a9190613371565b5060608201518160030190816109809190613371565b506080820151816004015560a0820151816005015f6101000a81548160ff02191690831515021790555060c08201518160060190816109bf9190613371565b5060e08201518160070190816109d59190613371565b509050507f642f95fc4f73850f9892227ccee20fac4904ba0645894b644766d21a1a8d82056007548785604051610a0e93929190613440565b60405180910390a160075f815480929190610a28906134a9565b9190505550505050505050565b610a4f83838360405180602001604052805f8152506111ce565b505050565b60085481565b5f610a6482611a28565b9050919050565b60075481565b600b602052805f5260405f205f91509050805f015490806001015f9054906101000a900473ffffffffffffffffffffffffffffffffffffffff16905082565b5f8073ffffffffffffffffffffffffffffffffffffffff168273ffffffffffffffffffffffffffffffffffffffff1603610b21575f6040517f89c62b64000000000000000000000000000000000000000000000000000000008152600401610b189190612a52565b60405180910390fd5b60035f8373ffffffffffffffffffffffffffffffffffffffff1673ffffffffffffffffffffffffffffffffffffffff1681526020019081526020015f20549050919050565b610b6e611d0b565b610b775f611d92565b565b5f60065f9054906101000a900473ffffffffffffffffffffffffffffffffffffffff16905090565b610ba9611d0b565b600a5f8381526020019081526020015f205f8273ffffffffffffffffffffffffffffffffffffffff1673ffffffffffffffffffffffffffffffffffffffff1681526020019081526020015f205f0160149054906101000a900460ff16610c44576040517f08c379a0000000000000000000000000000000000000000000000000000000008152600401610c3b9061353a565b60405180910390fd5b600a5f8381526020019081526020015f205f8273ffffffffffffffffffffffffffffffffffffffff1673ffffffffffffffffffffffffffffffffffffffff1681526020019081526020015f205f0160159054906101000a900460ff1615610ce0576040517f08c379a0000000000000000000000000000000000000000000000000000000008152600401610cd7906135a2565b60405180910390fd5b610cec81600854611e55565b6001600a5f8481526020019081526020015f205f8373ffffffffffffffffffffffffffffffffffffffff1673ffffffffffffffffffffffffffffffffffffffff1681526020019081526020015f205f0160156101000a81548160ff021916908315150217905550604051806040016040528060085481526020018273ffffffffffffffffffffffffffffffffffffffff16815250600b5f60085481526020019081526020015f205f820151815f01556020820151816001015f6101000a81548173ffffffffffffffffffffffffffffffffffffffff021916908373ffffffffffffffffffffffffffffffffffffffff1602179055509050507ffec61b9ec0e29047dbeea981617649d79f187d172cfd492695a3d0bfee28883e81600854604051610e179291906135c0565b60405180910390a160085f815480929190610e31906134a9565b91905055505050565b606060018054610e49906130e1565b80601f0160208091040260200160405190810160405280929190818152602001828054610e75906130e1565b8015610ec05780601f10610e9757610100808354040283529160200191610ec0565b820191905f5260205f20905b815481529060010190602001808311610ea357829003601f168201915b5050505050905090565b6009602052805f5260405f205f91509050805f015490806001018054610eef906130e1565b80601f0160208091040260200160405190810160405280929190818152602001828054610f1b906130e1565b8015610f665780601f10610f3d57610100808354040283529160200191610f66565b820191905f5260205f20905b815481529060010190602001808311610f4957829003601f168201915b505050505090806002018054610f7b906130e1565b80601f0160208091040260200160405190810160405280929190818152602001828054610fa7906130e1565b8015610ff25780601f10610fc957610100808354040283529160200191610ff2565b820191905f5260205f20905b815481529060010190602001808311610fd557829003601f168201915b505050505090806003018054611007906130e1565b80601f0160208091040260200160405190810160405280929190818152602001828054611033906130e1565b801561107e5780601f106110555761010080835404028352916020019161107e565b820191905f5260205f20905b81548152906001019060200180831161106157829003601f168201915b505050505090806004015490806005015f9054906101000a900460ff16908060060180546110ab906130e1565b80601f01602080910402602001604051908101604052809291908181526020018280546110d7906130e1565b80156111225780601f106110f957610100808354040283529160200191611122565b820191905f5260205f20905b81548152906001019060200180831161110557829003601f168201915b505050505090806007018054611137906130e1565b80601f0160208091040260200160405190810160405280929190818152602001828054611163906130e1565b80156111ae5780601f10611185576101008083540402835291602001916111ae565b820191905f5260205f20905b81548152906001019060200180831161119157829003601f168201915b5050505050905088565b6111ca6111c3611ae7565b8383611e72565b5050565b6111d984848461079c565b6111e584848484611fdb565b50505050565b60606111f682611a28565b505f61120061218d565b90505f81511161121e5760405180602001604052805f815250611249565b80611228846121a3565b604051602001611239929190613621565b6040516020818303038152906040525b915050919050565b611259611d0b565b5f60095f8381526020019081526020015f206005015f6101000a81548160ff0219169083151502179055507fc411c97a1db41250ce4fb55fc0218b3ff640b65c54edaec827e50b7e606f334c816040516112b39190612d73565b60405180910390a150565b5f60055f8473ffffffffffffffffffffffffffffffffffffffff1673ffffffffffffffffffffffffffffffffffffffff1681526020019081526020015f205f8373ffffffffffffffffffffffffffffffffffffffff1673ffffffffffffffffffffffffffffffffffffffff1681526020019081526020015f205f9054906101000a900460ff16905092915050565b600a602052815f5260405f20602052805f5260405f205f9150915050805f015f9054906101000a900473ffffffffffffffffffffffffffffffffffffffff1690805f0160149054906101000a900460ff1690805f0160159054906101000a900460ff16905083565b6113bc611d0b565b5f73ffffffffffffffffffffffffffffffffffffffff168173ffffffffffffffffffffffffffffffffffffffff160361142c575f6040517f1e4fbdf70000000000000000000000000000000000000000000000000000000081526004016114239190612a52565b60405180910390fd5b61143581611d92565b50565b5f60095f8381526020019081526020015f20604051806101000160405290815f820154815260200160018201805461146f906130e1565b80601f016020809104026020016040519081016040528092919081815260200182805461149b906130e1565b80156114e65780601f106114bd576101008083540402835291602001916114e6565b820191905f5260205f20905b8154815290600101906020018083116114c957829003601f168201915b505050505081526020016002820180546114ff906130e1565b80601f016020809104026020016040519081016040528092919081815260200182805461152b906130e1565b80156115765780601f1061154d57610100808354040283529160200191611576565b820191905f5260205f20905b81548152906001019060200180831161155957829003601f168201915b5050505050815260200160038201805461158f906130e1565b80601f01602080910402602001604051908101604052809291908181526020018280546115bb906130e1565b80156116065780601f106115dd57610100808354040283529160200191611606565b820191905f5260205f20905b8154815290600101906020018083116115e957829003601f168201915b5050505050815260200160048201548152602001600582015f9054906101000a900460ff16151515158152602001600682018054611643906130e1565b80601f016020809104026020016040519081016040528092919081815260200182805461166f906130e1565b80156116ba5780601f10611691576101008083540402835291602001916116ba565b820191905f5260205f20905b81548152906001019060200180831161169d57829003601f168201915b505050505081526020016007820180546116d3906130e1565b80601f01602080910402602001604051908101604052809291908181526020018280546116ff906130e1565b801561174a5780601f106117215761010080835404028352916020019161174a565b820191905f5260205f20905b81548152906001019060200180831161172d57829003601f168201915b50505050508152505090508060a00151611799576040517f08c379a00000000000000000000000000000000000000000000000000000000081526004016117909061368e565b60405180910390fd5b806080015134146117df576040517f08c379a00000000000000000000000000000000000000000000000000000000081526004016117d6906136f6565b60405180910390fd5b600a5f8381526020019081526020015f205f3373ffffffffffffffffffffffffffffffffffffffff1673ffffffffffffffffffffffffffffffffffffffff1681526020019081526020015f205f0160149054906101000a900460ff161561187b576040517f08c379a00000000000000000000000000000000000000000000000000000000081526004016118729061375e565b60405180910390fd5b60405180606001604052803373ffffffffffffffffffffffffffffffffffffffff1681526020016001151581526020015f1515815250600a5f8481526020019081526020015f205f3373ffffffffffffffffffffffffffffffffffffffff1673ffffffffffffffffffffffffffffffffffffffff1681526020019081526020015f205f820151815f015f6101000a81548173ffffffffffffffffffffffffffffffffffffffff021916908373ffffffffffffffffffffffffffffffffffffffff1602179055506020820151815f0160146101000a81548160ff0219169083151502179055506040820151815f0160156101000a81548160ff0219169083151502179055509050507f0729bef4a0569fb1fa09db94121e32114ae18918357d5324c3dd31440b83149e82336040516119b3929190612d8c565b60405180910390a15050565b5f7f01ffc9a7000000000000000000000000000000000000000000000000000000007bffffffffffffffffffffffffffffffffffffffffffffffffffffffff1916827bffffffffffffffffffffffffffffffffffffffffffffffffffffffff1916149050919050565b5f80611a338361226d565b90505f73ffffffffffffffffffffffffffffffffffffffff168173ffffffffffffffffffffffffffffffffffffffff1603611aa557826040517f7e273289000000000000000000000000000000000000000000000000000000008152600401611a9c9190612d73565b60405180910390fd5b80915050919050565b5f60045f8381526020019081526020015f205f9054906101000a900473ffffffffffffffffffffffffffffffffffffffff169050919050565b5f33905090565b611afb83838360016122a6565b505050565b5f80611b0b8461226d565b90505f73ffffffffffffffffffffffffffffffffffffffff168373ffffffffffffffffffffffffffffffffffffffff1614611b4c57611b4b818486612465565b5b5f73ffffffffffffffffffffffffffffffffffffffff168173ffffffffffffffffffffffffffffffffffffffff1614611bd757611b8b5f855f806122a6565b600160035f8373ffffffffffffffffffffffffffffffffffffffff1673ffffffffffffffffffffffffffffffffffffffff1681526020019081526020015f205f82825403925050819055505b5f73ffffffffffffffffffffffffffffffffffffffff168573ffffffffffffffffffffffffffffffffffffffff1614611c5657600160035f8773ffffffffffffffffffffffffffffffffffffffff1673ffffffffffffffffffffffffffffffffffffffff1681526020019081526020015f205f82825401925050819055505b8460025f8681526020019081526020015f205f6101000a81548173ffffffffffffffffffffffffffffffffffffffff021916908373ffffffffffffffffffffffffffffffffffffffff160217905550838573ffffffffffffffffffffffffffffffffffffffff168273ffffffffffffffffffffffffffffffffffffffff167fddf252ad1be2c89b69c2b068fc378daa952ba7f163c4a11628f55a4df523b3ef60405160405180910390a4809150509392505050565b611d13611ae7565b73ffffffffffffffffffffffffffffffffffffffff16611d31610b79565b73ffffffffffffffffffffffffffffffffffffffff1614611d9057611d54611ae7565b6040517f118cdaa7000000000000000000000000000000000000000000000000000000008152600401611d879190612a52565b60405180910390fd5b565b5f60065f9054906101000a900473ffffffffffffffffffffffffffffffffffffffff1690508160065f6101000a81548173ffffffffffffffffffffffffffffffffffffffff021916908373ffffffffffffffffffffffffffffffffffffffff1602179055508173ffffffffffffffffffffffffffffffffffffffff168173ffffffffffffffffffffffffffffffffffffffff167f8be0079c531659141344cd1fd0a4f28419497f9722a3daafe3b4186f6b6457e060405160405180910390a35050565b611e6e828260405180602001604052805f815250612528565b5050565b5f73ffffffffffffffffffffffffffffffffffffffff168273ffffffffffffffffffffffffffffffffffffffff1603611ee257816040517f5b08ba18000000000000000000000000000000000000000000000000000000008152600401611ed99190612a52565b60405180910390fd5b8060055f8573ffffffffffffffffffffffffffffffffffffffff1673ffffffffffffffffffffffffffffffffffffffff1681526020019081526020015f205f8473ffffffffffffffffffffffffffffffffffffffff1673ffffffffffffffffffffffffffffffffffffffff1681526020019081526020015f205f6101000a81548160ff0219169083151502179055508173ffffffffffffffffffffffffffffffffffffffff168373ffffffffffffffffffffffffffffffffffffffff167f17307eab39ab6107e8899845ad3d59bd9653f200f220920489ca2b5937696c3183604051611fce91906128f2565b60405180910390a3505050565b5f8373ffffffffffffffffffffffffffffffffffffffff163b1115612187578273ffffffffffffffffffffffffffffffffffffffff1663150b7a0261201e611ae7565b8685856040518563ffffffff1660e01b815260040161204094939291906137ce565b6020604051808303815f875af192505050801561207b57506040513d601f19601f82011682018060405250810190612078919061382c565b60015b6120fc573d805f81146120a9576040519150601f19603f3d011682016040523d82523d5f602084013e6120ae565b606091505b505f8151036120f457836040517f64a0ae920000000000000000000000000000000000000000000000000000000081526004016120eb9190612a52565b60405180910390fd5b805181602001fd5b63150b7a0260e01b7bffffffffffffffffffffffffffffffffffffffffffffffffffffffff1916817bffffffffffffffffffffffffffffffffffffffffffffffffffffffff19161461218557836040517f64a0ae9200000000000000000000000000000000000000000000000000000000815260040161217c9190612a52565b60405180910390fd5b505b50505050565b606060405180602001604052805f815250905090565b60605f60016121b184612543565b0190505f8167ffffffffffffffff8111156121cf576121ce612b2b565b5b6040519080825280601f01601f1916602001820160405280156122015781602001600182028036833780820191505090505b5090505f82602001820190505b600115612262578080600190039150507f3031323334353637383961626364656600000000000000000000000000000000600a86061a8153600a858161225757612256613857565b5b0494505f850361220e575b819350505050919050565b5f60025f8381526020019081526020015f205f9054906101000a900473ffffffffffffffffffffffffffffffffffffffff169050919050565b80806122de57505f73ffffffffffffffffffffffffffffffffffffffff168273ffffffffffffffffffffffffffffffffffffffff1614155b15612410575f6122ed84611a28565b90505f73ffffffffffffffffffffffffffffffffffffffff168373ffffffffffffffffffffffffffffffffffffffff161415801561235757508273ffffffffffffffffffffffffffffffffffffffff168173ffffffffffffffffffffffffffffffffffffffff1614155b801561236a575061236881846112be565b155b156123ac57826040517fa9fbf51f0000000000000000000000000000000000000000000000000000000081526004016123a39190612a52565b60405180910390fd5b811561240e57838573ffffffffffffffffffffffffffffffffffffffff168273ffffffffffffffffffffffffffffffffffffffff167f8c5be1e5ebec7d5bd14f71427d1e84f3dd0314c0f7b2291e5b200ac8c7c3b92560405160405180910390a45b505b8360045f8581526020019081526020015f205f6101000a81548173ffffffffffffffffffffffffffffffffffffffff021916908373ffffffffffffffffffffffffffffffffffffffff16021790555050505050565b612470838383612694565b612523575f73ffffffffffffffffffffffffffffffffffffffff168373ffffffffffffffffffffffffffffffffffffffff16036124e457806040517f7e2732890000000000000000000000000000000000000000000000000000000081526004016124db9190612d73565b60405180910390fd5b81816040517f177e802f00000000000000000000000000000000000000000000000000000000815260040161251a9291906135c0565b60405180910390fd5b505050565b6125328383612754565b61253e5f848484611fdb565b505050565b5f805f90507a184f03e93ff9f4daa797ed6e38ed64bf6a1f010000000000000000831061259f577a184f03e93ff9f4daa797ed6e38ed64bf6a1f010000000000000000838161259557612594613857565b5b0492506040810190505b6d04ee2d6d415b85acef810000000083106125dc576d04ee2d6d415b85acef810000000083816125d2576125d1613857565b5b0492506020810190505b662386f26fc10000831061260b57662386f26fc10000838161260157612600613857565b5b0492506010810190505b6305f5e1008310612634576305f5e100838161262a57612629613857565b5b0492506008810190505b612710831061265957612710838161264f5761264e613857565b5b0492506004810190505b6064831061267c576064838161267257612671613857565b5b0492506002810190505b600a831061268b576001810190505b80915050919050565b5f8073ffffffffffffffffffffffffffffffffffffffff168373ffffffffffffffffffffffffffffffffffffffff161415801561274b57508273ffffffffffffffffffffffffffffffffffffffff168473ffffffffffffffffffffffffffffffffffffffff16148061270c575061270b84846112be565b5b8061274a57508273ffffffffffffffffffffffffffffffffffffffff1661273283611aae565b73ffffffffffffffffffffffffffffffffffffffff16145b5b90509392505050565b5f73ffffffffffffffffffffffffffffffffffffffff168273ffffffffffffffffffffffffffffffffffffffff16036127c4575f6040517f64a0ae920000000000000000000000000000000000000000000000000000000081526004016127bb9190612a52565b60405180910390fd5b5f6127d083835f611b00565b90505f73ffffffffffffffffffffffffffffffffffffffff168173ffffffffffffffffffffffffffffffffffffffff1614612842575f6040517f73c6ac6e0000000000000000000000000000000000000000000000000000000081526004016128399190612a52565b60405180910390fd5b505050565b5f604051905090565b5f80fd5b5f80fd5b5f7fffffffff0000000000000000000000000000000000000000000000000000000082169050919050565b61288c81612858565b8114612896575f80fd5b50565b5f813590506128a781612883565b92915050565b5f602082840312156128c2576128c1612850565b5b5f6128cf84828501612899565b91505092915050565b5f8115159050919050565b6128ec816128d8565b82525050565b5f6020820190506129055f8301846128e3565b92915050565b5f81519050919050565b5f82825260208201905092915050565b5f5b83811015612942578082015181840152602081019050612927565b5f8484015250505050565b5f601f19601f8301169050919050565b5f6129678261290b565b6129718185612915565b9350612981818560208601612925565b61298a8161294d565b840191505092915050565b5f6020820190508181035f8301526129ad818461295d565b905092915050565b5f819050919050565b6129c7816129b5565b81146129d1575f80fd5b50565b5f813590506129e2816129be565b92915050565b5f602082840312156129fd576129fc612850565b5b5f612a0a848285016129d4565b91505092915050565b5f73ffffffffffffffffffffffffffffffffffffffff82169050919050565b5f612a3c82612a13565b9050919050565b612a4c81612a32565b82525050565b5f602082019050612a655f830184612a43565b92915050565b612a7481612a32565b8114612a7e575f80fd5b50565b5f81359050612a8f81612a6b565b92915050565b5f8060408385031215612aab57612aaa612850565b5b5f612ab885828601612a81565b9250506020612ac9858286016129d4565b9150509250929050565b5f805f60608486031215612aea57612ae9612850565b5b5f612af786828701612a81565b9350506020612b0886828701612a81565b9250506040612b19868287016129d4565b9150509250925092565b5f80fd5b5f80fd5b7f4e487b71000000000000000000000000000000000000000000000000000000005f52604160045260245ffd5b612b618261294d565b810181811067ffffffffffffffff82111715612b8057612b7f612b2b565b5b80604052505050565b5f612b92612847565b9050612b9e8282612b58565b919050565b5f67ffffffffffffffff821115612bbd57612bbc612b2b565b5b612bc68261294d565b9050602081019050919050565b828183375f83830152505050565b5f612bf3612bee84612ba3565b612b89565b905082815260208101848484011115612c0f57612c0e612b27565b5b612c1a848285612bd3565b509392505050565b5f82601f830112612c3657612c35612b23565b5b8135612c46848260208601612be1565b91505092915050565b5f805f805f8060c08789031215612c6957612c68612850565b5b5f87013567ffffffffffffffff811115612c8657612c85612854565b5b612c9289828a01612c22565b965050602087013567ffffffffffffffff811115612cb357612cb2612854565b5b612cbf89828a01612c22565b955050604087013567ffffffffffffffff811115612ce057612cdf612854565b5b612cec89828a01612c22565b9450506060612cfd89828a016129d4565b935050608087013567ffffffffffffffff811115612d1e57612d1d612854565b5b612d2a89828a01612c22565b92505060a087013567ffffffffffffffff811115612d4b57612d4a612854565b5b612d5789828a01612c22565b9150509295509295509295565b612d6d816129b5565b82525050565b5f602082019050612d865f830184612d64565b92915050565b5f604082019050612d9f5f830185612d64565b612dac6020830184612a43565b9392505050565b5f60208284031215612dc857612dc7612850565b5b5f612dd584828501612a81565b91505092915050565b5f8060408385031215612df457612df3612850565b5b5f612e01858286016129d4565b9250506020612e1285828601612a81565b9150509250929050565b5f61010082019050612e305f83018b612d64565b8181036020830152612e42818a61295d565b90508181036040830152612e56818961295d565b90508181036060830152612e6a818861295d565b9050612e796080830187612d64565b612e8660a08301866128e3565b81810360c0830152612e98818561295d565b905081810360e0830152612eac818461295d565b90509998505050505050505050565b612ec4816128d8565b8114612ece575f80fd5b50565b5f81359050612edf81612ebb565b92915050565b5f8060408385031215612efb57612efa612850565b5b5f612f0885828601612a81565b9250506020612f1985828601612ed1565b9150509250929050565b5f67ffffffffffffffff821115612f3d57612f3c612b2b565b5b612f468261294d565b9050602081019050919050565b5f612f65612f6084612f23565b612b89565b905082815260208101848484011115612f8157612f80612b27565b5b612f8c848285612bd3565b509392505050565b5f82601f830112612fa857612fa7612b23565b5b8135612fb8848260208601612f53565b91505092915050565b5f805f8060808587031215612fd957612fd8612850565b5b5f612fe687828801612a81565b9450506020612ff787828801612a81565b9350506040613008878288016129d4565b925050606085013567ffffffffffffffff81111561302957613028612854565b5b61303587828801612f94565b91505092959194509250565b5f806040838503121561305757613056612850565b5b5f61306485828601612a81565b925050602061307585828601612a81565b9150509250929050565b5f6060820190506130925f830186612a43565b61309f60208301856128e3565b6130ac60408301846128e3565b949350505050565b7f4e487b71000000000000000000000000000000000000000000000000000000005f52602260045260245ffd5b5f60028204905060018216806130f857607f821691505b60208210810361310b5761310a6130b4565b5b50919050565b5f6060820190506131245f830186612a43565b6131316020830185612d64565b61313e6040830184612a43565b949350505050565b7f456c2070726563696f206465626520736572206d61796f7220717565206365725f8201527f6f00000000000000000000000000000000000000000000000000000000000000602082015250565b5f6131a0602183612915565b91506131ab82613146565b604082019050919050565b5f6020820190508181035f8301526131cd81613194565b9050919050565b5f819050815f5260205f209050919050565b5f6020601f8301049050919050565b5f82821b905092915050565b5f600883026132307fffffffffffffffffffffffffffffffffffffffffffffffffffffffffffffffff826131f5565b61323a86836131f5565b95508019841693508086168417925050509392505050565b5f819050919050565b5f61327561327061326b846129b5565b613252565b6129b5565b9050919050565b5f819050919050565b61328e8361325b565b6132a261329a8261327c565b848454613201565b825550505050565b5f90565b6132b66132aa565b6132c1818484613285565b505050565b5b818110156132e4576132d95f826132ae565b6001810190506132c7565b5050565b601f821115613329576132fa816131d4565b613303846131e6565b81016020851015613312578190505b61332661331e856131e6565b8301826132c6565b50505b505050565b5f82821c905092915050565b5f6133495f198460080261332e565b1980831691505092915050565b5f613361838361333a565b9150826002028217905092915050565b61337a8261290b565b67ffffffffffffffff81111561339357613392612b2b565b5b61339d82546130e1565b6133a88282856132e8565b5f60209050601f8311600181146133d9575f84156133c7578287015190505b6133d18582613356565b865550613438565b601f1984166133e7866131d4565b5f5b8281101561340e578489015182556001820191506020850194506020810190506133e9565b8683101561342b5784890151613427601f89168261333a565b8355505b6001600288020188555050505b505050505050565b5f6060820190506134535f830186612d64565b8181036020830152613465818561295d565b90506134746040830184612d64565b949350505050565b7f4e487b71000000000000000000000000000000000000000000000000000000005f52601160045260245ffd5b5f6134b3826129b5565b91507fffffffffffffffffffffffffffffffffffffffffffffffffffffffffffffffff82036134e5576134e461347c565b5b600182019050919050565b7f456c20657374756469616e7465206e6f206573746120696e73637269746f00005f82015250565b5f613524601e83612915565b915061352f826134f0565b602082019050919050565b5f6020820190508181035f83015261355181613518565b9050919050565b7f436572746966696361646f20796120656d697469646f2e0000000000000000005f82015250565b5f61358c601783612915565b915061359782613558565b602082019050919050565b5f6020820190508181035f8301526135b981613580565b9050919050565b5f6040820190506135d35f830185612a43565b6135e06020830184612d64565b9392505050565b5f81905092915050565b5f6135fb8261290b565b61360581856135e7565b9350613615818560208601612925565b80840191505092915050565b5f61362c82856135f1565b915061363882846135f1565b91508190509392505050565b7f456c20637572736f206e6f20657374612061637469766f2e00000000000000005f82015250565b5f613678601883612915565b915061368382613644565b602082019050919050565b5f6020820190508181035f8301526136a58161366c565b9050919050565b7f5061676f20696e636f72726563746f2e000000000000000000000000000000005f82015250565b5f6136e0601083612915565b91506136eb826136ac565b602082019050919050565b5f6020820190508181035f83015261370d816136d4565b9050919050565b7f5961206573746120696e73637269746f2e0000000000000000000000000000005f82015250565b5f613748601183612915565b915061375382613714565b602082019050919050565b5f6020820190508181035f8301526137758161373c565b9050919050565b5f81519050919050565b5f82825260208201905092915050565b5f6137a08261377c565b6137aa8185613786565b93506137ba818560208601612925565b6137c38161294d565b840191505092915050565b5f6080820190506137e15f830187612a43565b6137ee6020830186612a43565b6137fb6040830185612d64565b818103606083015261380d8184613796565b905095945050505050565b5f8151905061382681612883565b92915050565b5f6020828403121561384157613840612850565b5b5f61384e84828501613818565b91505092915050565b7f4e487b71000000000000000000000000000000000000000000000000000000005f52601260045260245ffdfea2646970667358221220d9db8ecde42b99e041140cbe18a074e56d44f984c1d89490b10fb92d02e8c95464736f6c63430008150033",
  "immutableReferences": {},
  "source": "// SPDX-License-Identifier: MIT\npragma solidity ^0.8.21;\n\nimport \"@openzeppelin/contracts/token/ERC721/ERC721.sol\";\nimport \"@openzeppelin/contracts/access/Ownable.sol\";\n\ncontract CourseManagement is ERC721, Ownable {\n    struct Course {\n        uint id;\n        string name;\n        string description;\n        string category;\n        uint price;\n        bool isActive;\n        string courseImg;\n        string courseVid; \n    }\n\n    struct Student {\n        address studentAddress;\n        bool isEnrolled;\n        bool isCertified;\n    }\n\n    struct Certificate {\n        uint tokenId;\n        address studentAddress;\n    }\n\n    uint public courseCount = 0;\n    uint public certificateTokenId = 0;\n\n\n    mapping(uint => Course) public courses;\n    mapping(uint => mapping(address => Student)) public enrolledStudents;\n    mapping(uint => Certificate) public certificates;\n\n    event CourseCreated(uint courseId, string courseName, uint price);\n    event StudentEnrolled(uint courseId, address student);\n    event CourseRemoved(uint courseId);\n    event CourseUpdated(uint courseId, string courseName, uint price);\n    event CertificateIssued(address student, uint tokenId);\n    event CertificateUpdated(uint tokenId, address student);\n\n    constructor() ERC721(\"CourseCertificate\", \"CCERT\") Ownable(msg.sender) {}\n\n    function createCourse(string memory _name, string memory _description, string memory _category, uint _price, string memory _img, string memory _vid) public onlyOwner {\n        require(_price > 0, \"El precio debe ser mayor que cero\");\n        courses[courseCount] = Course(courseCount, _name, _description, _category, _price, true, _img, _vid);\n        emit CourseCreated(courseCount, _name, _price);\n        courseCount++;\n    }\n\n    function enroll(uint _courseId) public payable {\n        Course memory course = courses[_courseId];\n        require(course.isActive, \"El curso no esta activo.\");\n        require(msg.value == course.price, \"Pago incorrecto.\");\n        require(!enrolledStudents[_courseId][msg.sender].isEnrolled, \"Ya esta inscrito.\");\n\n        enrolledStudents[_courseId][msg.sender] = Student(msg.sender, true, false);\n        emit StudentEnrolled(_courseId, msg.sender);\n    }\n\n    function removeCourse(uint _courseId) public onlyOwner {\n        courses[_courseId].isActive = false;\n        emit CourseRemoved(_courseId);\n    }\n\n    function issueCertificate(uint _courseId, address _student) public onlyOwner {\n        require(enrolledStudents[_courseId][_student].isEnrolled, \"El estudiante no esta inscrito\");\n        require(!enrolledStudents[_courseId][_student].isCertified, \"Certificado ya emitido.\");\n        _safeMint(_student, certificateTokenId);\n        enrolledStudents[_courseId][_student].isCertified = true;\n        certificates[certificateTokenId] = Certificate(certificateTokenId, _student);\n        emit CertificateIssued(_student, certificateTokenId);\n        certificateTokenId++;\n    }\n}",
  "sourcePath": "/home/hackaton/Desktop/hackaton-api/contracts/CourseEnrollment.sol",
  "compiler": {
    "name": "solc",
    "version": "0.8.21+commit.d9974bed.Emscripten.clang"
  },
  "schemaVersion": "3.4.16",
  "updatedAt": "2024-09-08T15:32:45.539Z",
  "devdoc": {
    "errors": {
      "ERC721IncorrectOwner(address,uint256,address)": [
        {
          "details": "Indicates an error related to the ownership over a particular token. Used in transfers.",
          "params": {
            "owner": "Address of the current owner of a token.",
            "sender": "Address whose tokens are being transferred.",
            "tokenId": "Identifier number of a token."
          }
        }
      ],
      "ERC721InsufficientApproval(address,uint256)": [
        {
          "details": "Indicates a failure with the `operator`s approval. Used in transfers.",
          "params": {
            "operator": "Address that may be allowed to operate on tokens without being their owner.",
            "tokenId": "Identifier number of a token."
          }
        }
      ],
      "ERC721InvalidApprover(address)": [
        {
          "details": "Indicates a failure with the `approver` of a token to be approved. Used in approvals.",
          "params": {
            "approver": "Address initiating an approval operation."
          }
        }
      ],
      "ERC721InvalidOperator(address)": [
        {
          "details": "Indicates a failure with the `operator` to be approved. Used in approvals.",
          "params": {
            "operator": "Address that may be allowed to operate on tokens without being their owner."
          }
        }
      ],
      "ERC721InvalidOwner(address)": [
        {
          "details": "Indicates that an address can't be an owner. For example, `address(0)` is a forbidden owner in EIP-20. Used in balance queries.",
          "params": {
            "owner": "Address of the current owner of a token."
          }
        }
      ],
      "ERC721InvalidReceiver(address)": [
        {
          "details": "Indicates a failure with the token `receiver`. Used in transfers.",
          "params": {
            "receiver": "Address to which tokens are being transferred."
          }
        }
      ],
      "ERC721InvalidSender(address)": [
        {
          "details": "Indicates a failure with the token `sender`. Used in transfers.",
          "params": {
            "sender": "Address whose tokens are being transferred."
          }
        }
      ],
      "ERC721NonexistentToken(uint256)": [
        {
          "details": "Indicates a `tokenId` whose `owner` is the zero address.",
          "params": {
            "tokenId": "Identifier number of a token."
          }
        }
      ],
      "OwnableInvalidOwner(address)": [
        {
          "details": "The owner is not a valid owner account. (eg. `address(0)`)"
        }
      ],
      "OwnableUnauthorizedAccount(address)": [
        {
          "details": "The caller account is not authorized to perform an operation."
        }
      ]
    },
    "events": {
      "Approval(address,address,uint256)": {
        "details": "Emitted when `owner` enables `approved` to manage the `tokenId` token."
      },
      "ApprovalForAll(address,address,bool)": {
        "details": "Emitted when `owner` enables or disables (`approved`) `operator` to manage all of its assets."
      },
      "Transfer(address,address,uint256)": {
        "details": "Emitted when `tokenId` token is transferred from `from` to `to`."
      }
    },
    "kind": "dev",
    "methods": {
      "approve(address,uint256)": {
        "details": "See {IERC721-approve}."
      },
      "balanceOf(address)": {
        "details": "See {IERC721-balanceOf}."
      },
      "getApproved(uint256)": {
        "details": "See {IERC721-getApproved}."
      },
      "isApprovedForAll(address,address)": {
        "details": "See {IERC721-isApprovedForAll}."
      },
      "name()": {
        "details": "See {IERC721Metadata-name}."
      },
      "owner()": {
        "details": "Returns the address of the current owner."
      },
      "ownerOf(uint256)": {
        "details": "See {IERC721-ownerOf}."
      },
      "renounceOwnership()": {
        "details": "Leaves the contract without owner. It will not be possible to call `onlyOwner` functions. Can only be called by the current owner. NOTE: Renouncing ownership will leave the contract without an owner, thereby disabling any functionality that is only available to the owner."
      },
      "safeTransferFrom(address,address,uint256)": {
        "details": "See {IERC721-safeTransferFrom}."
      },
      "safeTransferFrom(address,address,uint256,bytes)": {
        "details": "See {IERC721-safeTransferFrom}."
      },
      "setApprovalForAll(address,bool)": {
        "details": "See {IERC721-setApprovalForAll}."
      },
      "supportsInterface(bytes4)": {
        "details": "See {IERC165-supportsInterface}."
      },
      "symbol()": {
        "details": "See {IERC721Metadata-symbol}."
      },
      "tokenURI(uint256)": {
        "details": "See {IERC721Metadata-tokenURI}."
      },
      "transferFrom(address,address,uint256)": {
        "details": "See {IERC721-transferFrom}."
      },
      "transferOwnership(address)": {
        "details": "Transfers ownership of the contract to a new account (`newOwner`). Can only be called by the current owner."
      }
    },
    "version": 1
  },
  "userdoc": {
    "kind": "user",
    "methods": {},
    "version": 1
  }
}