{
  "contractName": "RoleManagement",
  "abi": [
    {
      "anonymous": false,
      "inputs": [
        {
          "indexed": true,
          "internalType": "address",
          "name": "adminAddress",
          "type": "address"
        }
      ],
      "name": "AdminAdded",
      "type": "event"
    },
    {
      "anonymous": false,
      "inputs": [
        {
          "indexed": true,
          "internalType": "address",
          "name": "professorAddress",
          "type": "address"
        }
      ],
      "name": "ProfessorAdded",
      "type": "event"
    },
    {
      "anonymous": false,
      "inputs": [
        {
          "indexed": true,
          "internalType": "address",
          "name": "usuario",
          "type": "address"
        },
        {
          "indexed": false,
          "internalType": "string",
          "name": "nombre",
          "type": "string"
        },
        {
          "indexed": false,
          "internalType": "uint256",
          "name": "edad",
          "type": "uint256"
        },
        {
          "indexed": false,
          "internalType": "string",
          "name": "correo",
          "type": "string"
        },
        {
          "indexed": false,
          "internalType": "string",
          "name": "rol",
          "type": "string"
        }
      ],
      "name": "UserAdded",
      "type": "event"
    },
    {
      "anonymous": false,
      "inputs": [
        {
          "indexed": true,
          "internalType": "address",
          "name": "usuario",
          "type": "address"
        }
      ],
      "name": "UserRemoved",
      "type": "event"
    },
    {
      "inputs": [
        {
          "internalType": "string",
          "name": "_nombre",
          "type": "string"
        },
        {
          "internalType": "uint256",
          "name": "_edad",
          "type": "uint256"
        },
        {
          "internalType": "string",
          "name": "_correo",
          "type": "string"
        },
        {
          "internalType": "string",
          "name": "_rol",
          "type": "string"
        }
      ],
      "name": "addUser",
      "outputs": [],
      "stateMutability": "nonpayable",
      "type": "function"
    },
    {
      "inputs": [
        {
          "internalType": "address",
          "name": "",
          "type": "address"
        }
      ],
      "name": "admins",
      "outputs": [
        {
          "internalType": "address",
          "name": "adminAddress",
          "type": "address"
        },
        {
          "internalType": "bool",
          "name": "isAdmin",
          "type": "bool"
        }
      ],
      "stateMutability": "view",
      "type": "function",
      "constant": true
    },
    {
      "inputs": [
        {
          "internalType": "address",
          "name": "_usuario",
          "type": "address"
        }
      ],
      "name": "obtenerUsuario",
      "outputs": [
        {
          "internalType": "string",
          "name": "",
          "type": "string"
        },
        {
          "internalType": "uint256",
          "name": "",
          "type": "uint256"
        },
        {
          "internalType": "string",
          "name": "",
          "type": "string"
        },
        {
          "internalType": "string",
          "name": "",
          "type": "string"
        }
      ],
      "stateMutability": "view",
      "type": "function",
      "constant": true
    },
    {
      "inputs": [
        {
          "internalType": "address",
          "name": "",
          "type": "address"
        }
      ],
      "name": "professors",
      "outputs": [
        {
          "internalType": "address",
          "name": "professorAddress",
          "type": "address"
        },
        {
          "internalType": "bool",
          "name": "isProfessor",
          "type": "bool"
        }
      ],
      "stateMutability": "view",
      "type": "function",
      "constant": true
    },
    {
      "inputs": [],
      "name": "removeUser",
      "outputs": [],
      "stateMutability": "nonpayable",
      "type": "function"
    },
    {
      "inputs": [
        {
          "internalType": "address",
          "name": "",
          "type": "address"
        }
      ],
      "name": "users",
      "outputs": [
        {
          "internalType": "string",
          "name": "nombre",
          "type": "string"
        },
        {
          "internalType": "uint256",
          "name": "edad",
          "type": "uint256"
        },
        {
          "internalType": "string",
          "name": "correo",
          "type": "string"
        },
        {
          "internalType": "string",
          "name": "rol",
          "type": "string"
        }
      ],
      "stateMutability": "view",
      "type": "function",
      "constant": true
    },
    {
      "inputs": [
        {
          "internalType": "string",
          "name": "_role",
          "type": "string"
        }
      ],
      "name": "asignRoleToUser",
      "outputs": [],
      "stateMutability": "nonpayable",
      "type": "function"
    },
    {
      "inputs": [
        {
          "internalType": "string",
          "name": "_role",
          "type": "string"
        }
      ],
      "name": "deleteAdminOrProfessor",
      "outputs": [],
      "stateMutability": "nonpayable",
      "type": "function"
    }
  ],
  "bytecode": "0x608060405234801561000f575f80fd5b506119c88061001d5f395ff3fe608060405234801561000f575f80fd5b5060043610610086575f3560e01c8063c9b2338d11610059578063c9b2338d1461013d578063cd1e9e2b14610159578063f3bd994a1461018a578063f944f4c7146101a657610086565b8063429b62e51461008a5780634f78c599146100bb57806381a1edb1146100ee578063a87430ba1461010a575b5f80fd5b6100a4600480360381019061009f9190610f8d565b6101b0565b6040516100b2929190610fe1565b60405180910390f35b6100d560048036038101906100d09190610f8d565b6101fb565b6040516100e594939291906110aa565b60405180910390f35b6101086004803603810190610103919061122e565b6103fe565b005b610124600480360381019061011f9190610f8d565b6106d0565b60405161013494939291906110aa565b60405180910390f35b6101576004803603810190610152919061129f565b61088d565b005b610173600480360381019061016e9190610f8d565b610a1d565b604051610181929190610fe1565b60405180910390f35b6101a4600480360381019061019f919061122e565b610a68565b005b6101ae610d87565b005b6002602052805f5260405f205f91509050805f015f9054906101000a900473ffffffffffffffffffffffffffffffffffffffff1690805f0160149054906101000a900460ff16905082565b60605f6060805f805f8773ffffffffffffffffffffffffffffffffffffffff1673ffffffffffffffffffffffffffffffffffffffff1681526020019081526020015f209050805f018160010154826002018360030183805461025c90611384565b80601f016020809104026020016040519081016040528092919081815260200182805461028890611384565b80156102d35780601f106102aa576101008083540402835291602001916102d3565b820191905f5260205f20905b8154815290600101906020018083116102b657829003601f168201915b505050505093508180546102e690611384565b80601f016020809104026020016040519081016040528092919081815260200182805461031290611384565b801561035d5780601f106103345761010080835404028352916020019161035d565b820191905f5260205f20905b81548152906001019060200180831161034057829003601f168201915b5050505050915080805461037090611384565b80601f016020809104026020016040519081016040528092919081815260200182805461039c90611384565b80156103e75780601f106103be576101008083540402835291602001916103e7565b820191905f5260205f20905b8154815290600101906020018083116103ca57829003601f168201915b505050505090509450945094509450509193509193565b5f8160405160200161041091906113ee565b6040516020818303038152906040528051906020012090506040516020016104379061144e565b60405160208183030381529060405280519060200120810361055c5760015f3373ffffffffffffffffffffffffffffffffffffffff1673ffffffffffffffffffffffffffffffffffffffff1681526020019081526020015f205f0160149054906101000a900460ff166104df576040517f08c379a00000000000000000000000000000000000000000000000000000000081526004016104d6906114ac565b60405180910390fd5b60015f3373ffffffffffffffffffffffffffffffffffffffff1673ffffffffffffffffffffffffffffffffffffffff1681526020019081526020015f205f8082015f6101000a81549073ffffffffffffffffffffffffffffffffffffffff02191690555f820160146101000a81549060ff021916905550506106cc565b60405160200161056b90611514565b6040516020818303038152906040528051906020012081036106905760025f3373ffffffffffffffffffffffffffffffffffffffff1673ffffffffffffffffffffffffffffffffffffffff1681526020019081526020015f205f0160149054906101000a900460ff16610613576040517f08c379a000000000000000000000000000000000000000000000000000000000815260040161060a90611572565b60405180910390fd5b60025f3373ffffffffffffffffffffffffffffffffffffffff1673ffffffffffffffffffffffffffffffffffffffff1681526020019081526020015f205f8082015f6101000a81549073ffffffffffffffffffffffffffffffffffffffff02191690555f820160146101000a81549060ff021916905550506106cb565b6040517f08c379a00000000000000000000000000000000000000000000000000000000081526004016106c2906115da565b60405180910390fd5b5b5050565b5f602052805f5260405f205f91509050805f0180546106ee90611384565b80601f016020809104026020016040519081016040528092919081815260200182805461071a90611384565b80156107655780601f1061073c57610100808354040283529160200191610765565b820191905f5260205f20905b81548152906001019060200180831161074857829003601f168201915b50505050509080600101549080600201805461078090611384565b80601f01602080910402602001604051908101604052809291908181526020018280546107ac90611384565b80156107f75780601f106107ce576101008083540402835291602001916107f7565b820191905f5260205f20905b8154815290600101906020018083116107da57829003601f168201915b50505050509080600301805461080c90611384565b80601f016020809104026020016040519081016040528092919081815260200182805461083890611384565b80156108835780601f1061085a57610100808354040283529160200191610883565b820191905f5260205f20905b81548152906001019060200180831161086657829003601f168201915b5050505050905084565b5f805f3373ffffffffffffffffffffffffffffffffffffffff1673ffffffffffffffffffffffffffffffffffffffff1681526020019081526020015f205f0180546108d790611384565b905014610919576040517f08c379a000000000000000000000000000000000000000000000000000000000815260040161091090611642565b60405180910390fd5b6040518060800160405280858152602001848152602001838152602001828152505f803373ffffffffffffffffffffffffffffffffffffffff1673ffffffffffffffffffffffffffffffffffffffff1681526020019081526020015f205f820151815f01908161098991906117fd565b506020820151816001015560408201518160020190816109a991906117fd565b5060608201518160030190816109bf91906117fd565b509050503373ffffffffffffffffffffffffffffffffffffffff167f93c49eb1f13ebf39cf4e8e4121a855c3ec5b9690af4c714ecd1381bc485bc0c685858585604051610a0f94939291906110aa565b60405180910390a250505050565b6001602052805f5260405f205f91509050805f015f9054906101000a900473ffffffffffffffffffffffffffffffffffffffff1690805f0160149054906101000a900460ff16905082565b5f81604051602001610a7a91906113ee565b604051602081830303815290604052805190602001209050604051602001610aa19061144e565b604051602081830303815290604052805190602001208103610bd65760405180604001604052803373ffffffffffffffffffffffffffffffffffffffff1681526020016001151581525060015f3373ffffffffffffffffffffffffffffffffffffffff1673ffffffffffffffffffffffffffffffffffffffff1681526020019081526020015f205f820151815f015f6101000a81548173ffffffffffffffffffffffffffffffffffffffff021916908373ffffffffffffffffffffffffffffffffffffffff1602179055506020820151815f0160146101000a81548160ff0219169083151502179055509050503373ffffffffffffffffffffffffffffffffffffffff167fc314a8ab46f679df157d309facb47ada7dbb5e5e6f33f130257acb39c8237c4060405160405180910390a2610d83565b604051602001610be590611514565b604051602081830303815290604052805190602001208103610d1a5760405180604001604052803373ffffffffffffffffffffffffffffffffffffffff1681526020016001151581525060025f3373ffffffffffffffffffffffffffffffffffffffff1673ffffffffffffffffffffffffffffffffffffffff1681526020019081526020015f205f820151815f015f6101000a81548173ffffffffffffffffffffffffffffffffffffffff021916908373ffffffffffffffffffffffffffffffffffffffff1602179055506020820151815f0160146101000a81548160ff0219169083151502179055509050503373ffffffffffffffffffffffffffffffffffffffff167f44d6d25963f097ad14f29f06854a01f575648a1ef82f30e562ccd3889717e33960405160405180910390a2610d82565b604051602001610d2990611916565b60405160208183030381529060405280519060200120810315610d81576040517f08c379a0000000000000000000000000000000000000000000000000000000008152600401610d78906115da565b60405180910390fd5b5b5b5050565b5f805f3373ffffffffffffffffffffffffffffffffffffffff1673ffffffffffffffffffffffffffffffffffffffff1681526020019081526020015f205f018054610dd190611384565b905003610e13576040517f08c379a0000000000000000000000000000000000000000000000000000000008152600401610e0a90611974565b60405180910390fd5b5f803373ffffffffffffffffffffffffffffffffffffffff1673ffffffffffffffffffffffffffffffffffffffff1681526020019081526020015f205f8082015f610e5e9190610eca565b600182015f9055600282015f610e749190610eca565b600382015f610e839190610eca565b50503373ffffffffffffffffffffffffffffffffffffffff167fe9dce8c992623ce791725b21e857e33248d1f190a25b5168313420eebdaae99d60405160405180910390a2565b508054610ed690611384565b5f825580601f10610ee75750610f04565b601f0160209004905f5260205f2090810190610f039190610f07565b5b50565b5b80821115610f1e575f815f905550600101610f08565b5090565b5f604051905090565b5f80fd5b5f80fd5b5f73ffffffffffffffffffffffffffffffffffffffff82169050919050565b5f610f5c82610f33565b9050919050565b610f6c81610f52565b8114610f76575f80fd5b50565b5f81359050610f8781610f63565b92915050565b5f60208284031215610fa257610fa1610f2b565b5b5f610faf84828501610f79565b91505092915050565b610fc181610f52565b82525050565b5f8115159050919050565b610fdb81610fc7565b82525050565b5f604082019050610ff45f830185610fb8565b6110016020830184610fd2565b9392505050565b5f81519050919050565b5f82825260208201905092915050565b5f5b8381101561103f578082015181840152602081019050611024565b5f8484015250505050565b5f601f19601f8301169050919050565b5f61106482611008565b61106e8185611012565b935061107e818560208601611022565b6110878161104a565b840191505092915050565b5f819050919050565b6110a481611092565b82525050565b5f6080820190508181035f8301526110c2818761105a565b90506110d1602083018661109b565b81810360408301526110e3818561105a565b905081810360608301526110f7818461105a565b905095945050505050565b5f80fd5b5f80fd5b7f4e487b71000000000000000000000000000000000000000000000000000000005f52604160045260245ffd5b6111408261104a565b810181811067ffffffffffffffff8211171561115f5761115e61110a565b5b80604052505050565b5f611171610f22565b905061117d8282611137565b919050565b5f67ffffffffffffffff82111561119c5761119b61110a565b5b6111a58261104a565b9050602081019050919050565b828183375f83830152505050565b5f6111d26111cd84611182565b611168565b9050828152602081018484840111156111ee576111ed611106565b5b6111f98482856111b2565b509392505050565b5f82601f83011261121557611214611102565b5b81356112258482602086016111c0565b91505092915050565b5f6020828403121561124357611242610f2b565b5b5f82013567ffffffffffffffff8111156112605761125f610f2f565b5b61126c84828501611201565b91505092915050565b61127e81611092565b8114611288575f80fd5b50565b5f8135905061129981611275565b92915050565b5f805f80608085870312156112b7576112b6610f2b565b5b5f85013567ffffffffffffffff8111156112d4576112d3610f2f565b5b6112e087828801611201565b94505060206112f18782880161128b565b935050604085013567ffffffffffffffff81111561131257611311610f2f565b5b61131e87828801611201565b925050606085013567ffffffffffffffff81111561133f5761133e610f2f565b5b61134b87828801611201565b91505092959194509250565b7f4e487b71000000000000000000000000000000000000000000000000000000005f52602260045260245ffd5b5f600282049050600182168061139b57607f821691505b6020821081036113ae576113ad611357565b5b50919050565b5f81905092915050565b5f6113c882611008565b6113d281856113b4565b93506113e2818560208601611022565b80840191505092915050565b5f6113f982846113be565b915081905092915050565b7f50726f666573736f7200000000000000000000000000000000000000000000005f82015250565b5f6114386009836113b4565b915061144382611404565b600982019050919050565b5f6114588261142c565b9150819050919050565b7f4e6f20657320756e2070726f6665736f722e00000000000000000000000000005f82015250565b5f611496601283611012565b91506114a182611462565b602082019050919050565b5f6020820190508181035f8301526114c38161148a565b9050919050565b7f41646d696e0000000000000000000000000000000000000000000000000000005f82015250565b5f6114fe6005836113b4565b9150611509826114ca565b600582019050919050565b5f61151e826114f2565b9150819050919050565b7f4e6f20657320756e2061646d696e0000000000000000000000000000000000005f82015250565b5f61155c600e83611012565b915061156782611528565b602082019050919050565b5f6020820190508181035f83015261158981611550565b9050919050565b7f526f6c206e6f2076616c69646f2e0000000000000000000000000000000000005f82015250565b5f6115c4600e83611012565b91506115cf82611590565b602082019050919050565b5f6020820190508181035f8301526115f1816115b8565b9050919050565b7f456c207573756172696f207961206578697374650000000000000000000000005f82015250565b5f61162c601483611012565b9150611637826115f8565b602082019050919050565b5f6020820190508181035f83015261165981611620565b9050919050565b5f819050815f5260205f209050919050565b5f6020601f8301049050919050565b5f82821b905092915050565b5f600883026116bc7fffffffffffffffffffffffffffffffffffffffffffffffffffffffffffffffff82611681565b6116c68683611681565b95508019841693508086168417925050509392505050565b5f819050919050565b5f6117016116fc6116f784611092565b6116de565b611092565b9050919050565b5f819050919050565b61171a836116e7565b61172e61172682611708565b84845461168d565b825550505050565b5f90565b611742611736565b61174d818484611711565b505050565b5b81811015611770576117655f8261173a565b600181019050611753565b5050565b601f8211156117b55761178681611660565b61178f84611672565b8101602085101561179e578190505b6117b26117aa85611672565b830182611752565b50505b505050565b5f82821c905092915050565b5f6117d55f19846008026117ba565b1980831691505092915050565b5f6117ed83836117c6565b9150826002028217905092915050565b61180682611008565b67ffffffffffffffff81111561181f5761181e61110a565b5b6118298254611384565b611834828285611774565b5f60209050601f831160018114611865575f8415611853578287015190505b61185d85826117e2565b8655506118c4565b601f19841661187386611660565b5f5b8281101561189a57848901518255600182019150602085019450602081019050611875565b868310156118b757848901516118b3601f8916826117c6565b8355505b6001600288020188555050505b505050505050565b7f53747564656e74000000000000000000000000000000000000000000000000005f82015250565b5f6119006007836113b4565b915061190b826118cc565b600782019050919050565b5f611920826118f4565b9150819050919050565b7f456c207573756172696f206e6f206578697374650000000000000000000000005f82015250565b5f61195e601483611012565b91506119698261192a565b602082019050919050565b5f6020820190508181035f83015261198b81611952565b905091905056fea2646970667358221220c233b016e6e48f8f7509f068625dae22d261d68ad14cf0f0651bbfb6eb7a860864736f6c63430008150033",
  "immutableReferences": {},
  "source": "// SPDX-License-Identifier: MIT\npragma solidity ^0.8.21;\n\nimport \"./UserManagement.sol\";\n\ncontract RoleManagement is UserManagement {\n    struct Professor {\n        address professorAddress;\n        bool isProfessor;\n    }\n\n    struct Admin {\n        address adminAddress;\n        bool isAdmin;\n    }\n\n    mapping(address => Professor) public professors;\n    mapping(address => Admin) public admins;\n\n    event ProfessorAdded(address indexed professorAddress);\n    event AdminAdded(address indexed adminAddress);\n\n    function asignRoleToUser(string memory _role) public {\n        bytes32 roleHash = keccak256(abi.encodePacked(_role));\n        if (roleHash == keccak256(abi.encodePacked(\"Professor\"))) {\n            // Comparar rol con un hash en lugar de un string\n            professors[msg.sender] = Professor(msg.sender, true);\n            emit ProfessorAdded(msg.sender);\n        } else if (roleHash == keccak256(abi.encodePacked(\"Admin\"))) {\n            // Comparar rol con un hash en lugar de un string\n            admins[msg.sender] = Admin(msg.sender, true);\n            emit AdminAdded(msg.sender);\n        } else if(roleHash == keccak256(abi.encodePacked(\"Student\"))) {\n            // Do nothing, Student is Base Role\n        } else {\n            revert(\"Rol no valido.\");\n        }\n    }\n\n    function deleteAdminOrProfessor(string memory _role) public {\n        bytes32 roleHash = keccak256(abi.encodePacked(_role));\n        if (roleHash == keccak256(abi.encodePacked(\"Professor\"))) {\n            require(professors[msg.sender].isProfessor, \"No es un profesor.\");\n            delete professors[msg.sender];\n        } else if (roleHash == keccak256(abi.encodePacked(\"Admin\"))) {\n            require(admins[msg.sender].isAdmin, \"No es un admin\");\n            delete admins[msg.sender];\n        } else {\n            revert(\"Rol no valido.\");\n        }\n    }\n}\n",
  "sourcePath": "/home/hackaton/Desktop/hackaton-api/contracts/RoleManagement.sol",
  "compiler": {
    "name": "solc",
    "version": "0.8.21+commit.d9974bed.Emscripten.clang"
  },
  "schemaVersion": "3.4.16",
  "updatedAt": "2024-09-08T15:35:06.293Z",
  "networkType": "ethereum",
  "devdoc": {
    "kind": "dev",
    "methods": {},
    "version": 1
  },
  "userdoc": {
    "kind": "user",
    "methods": {},
    "version": 1
  }
}