{
  "contractName": "Users",
  "abi": [
    {
      "inputs": [
        {
          "internalType": "address",
          "name": "_courseEnrollmentAddress",
          "type": "address"
        }
      ],
      "stateMutability": "nonpayable",
      "type": "constructor"
    },
    {
      "anonymous": false,
      "inputs": [
        {
          "indexed": true,
          "internalType": "address",
          "name": "usuario",
          "type": "address"
        },
        {
          "indexed": false,
          "internalType": "string",
          "name": "nombre",
          "type": "string"
        },
        {
          "indexed": false,
          "internalType": "uint256",
          "name": "edad",
          "type": "uint256"
        },
        {
          "indexed": false,
          "internalType": "string",
          "name": "correo",
          "type": "string"
        },
        {
          "indexed": false,
          "internalType": "string",
          "name": "rol",
          "type": "string"
        }
      ],
      "name": "UserAdded",
      "type": "event"
    },
    {
      "inputs": [],
      "name": "courseEnrollment",
      "outputs": [
        {
          "internalType": "contract ICourseEnrollment",
          "name": "",
          "type": "address"
        }
      ],
      "stateMutability": "view",
      "type": "function"
    },
    {
      "inputs": [
        {
          "internalType": "string",
          "name": "_nombre",
          "type": "string"
        },
        {
          "internalType": "uint256",
          "name": "_edad",
          "type": "uint256"
        },
        {
          "internalType": "string",
          "name": "_correo",
          "type": "string"
        },
        {
          "internalType": "string",
          "name": "_role",
          "type": "string"
        }
      ],
      "name": "agregarUsuario",
      "outputs": [],
      "stateMutability": "nonpayable",
      "type": "function"
    },
    {
      "inputs": [
        {
          "internalType": "address",
          "name": "_usuario",
          "type": "address"
        }
      ],
      "name": "obtenerUsuario",
      "outputs": [
        {
          "internalType": "string",
          "name": "nombre",
          "type": "string"
        },
        {
          "internalType": "uint256",
          "name": "edad",
          "type": "uint256"
        },
        {
          "internalType": "string",
          "name": "correo",
          "type": "string"
        }
      ],
      "stateMutability": "view",
      "type": "function"
    },
    {
      "inputs": [],
      "name": "removeUser",
      "outputs": [],
      "stateMutability": "nonpayable",
      "type": "function"
    }
  ],
  "bytecode": "0x608060405234801562000010575f80fd5b5060405162001321380380620013218339818101604052810190620000369190620000e1565b805f806101000a81548173ffffffffffffffffffffffffffffffffffffffff021916908373ffffffffffffffffffffffffffffffffffffffff1602179055505062000111565b5f80fd5b5f73ffffffffffffffffffffffffffffffffffffffff82169050919050565b5f620000ab8262000080565b9050919050565b620000bd816200009f565b8114620000c8575f80fd5b50565b5f81519050620000db81620000b2565b92915050565b5f60208284031215620000f957620000f86200007c565b5b5f6200010884828501620000cb565b91505092915050565b611202806200011f5f395ff3fe608060405234801561000f575f80fd5b506004361061004a575f3560e01c806338228c4c1461004e5780634f78c5991461006c5780638d5b3b101461009e578063f944f4c7146100ba575b5f80fd5b6100566100c4565b6040516100639190610856565b60405180910390f35b610086600480360381019061008191906108bb565b6100e7565b60405161009593929190610988565b60405180910390f35b6100b860048036038101906100b39190610b21565b61025a565b005b6100c26105f7565b005b5f8054906101000a900473ffffffffffffffffffffffffffffffffffffffff1681565b60605f60605f60015f8673ffffffffffffffffffffffffffffffffffffffff1673ffffffffffffffffffffffffffffffffffffffff1681526020019081526020015f209050805f0181600101548260020182805461014490610c06565b80601f016020809104026020016040519081016040528092919081815260200182805461017090610c06565b80156101bb5780601f10610192576101008083540402835291602001916101bb565b820191905f5260205f20905b81548152906001019060200180831161019e57829003601f168201915b505050505092508080546101ce90610c06565b80601f01602080910402602001604051908101604052809291908181526020018280546101fa90610c06565b80156102455780601f1061021c57610100808354040283529160200191610245565b820191905f5260205f20905b81548152906001019060200180831161022857829003601f168201915b50505050509050935093509350509193909250565b5f60015f3373ffffffffffffffffffffffffffffffffffffffff1673ffffffffffffffffffffffffffffffffffffffff1681526020019081526020015f205f0180546102a590610c06565b9050146102e7576040517f08c379a00000000000000000000000000000000000000000000000000000000081526004016102de90610c80565b60405180910390fd5b5f816040516020016102f99190610cd8565b60405160208183030381529060405280519060200120905060405160200161032090610d38565b604051602081830303815290604052805190602001208114158015610369575060405160200161034f90610d96565b604051602081830303815290604052805190602001208114155b8015610399575060405160200161037f90610df4565b604051602081830303815290604052805190602001208114155b156103d9576040517f08c379a00000000000000000000000000000000000000000000000000000000081526004016103d090610e52565b60405180910390fd5b5f60015f3373ffffffffffffffffffffffffffffffffffffffff1673ffffffffffffffffffffffffffffffffffffffff1681526020019081526020015f20600301805461042590610c06565b9050146104f1575f8054906101000a900473ffffffffffffffffffffffffffffffffffffffff1673ffffffffffffffffffffffffffffffffffffffff1663f3bd994a60015f3373ffffffffffffffffffffffffffffffffffffffff1673ffffffffffffffffffffffffffffffffffffffff1681526020019081526020015f206003016040518263ffffffff1660e01b81526004016104c39190610f03565b5f604051808303815f87803b1580156104da575f80fd5b505af11580156104ec573d5f803e3d5ffd5b505050505b60405180608001604052808681526020018581526020018481526020018381525060015f3373ffffffffffffffffffffffffffffffffffffffff1673ffffffffffffffffffffffffffffffffffffffff1681526020019081526020015f205f820151815f01908161056291906110a5565b5060208201518160010155604082015181600201908161058291906110a5565b50606082015181600301908161059891906110a5565b509050503373ffffffffffffffffffffffffffffffffffffffff167f93c49eb1f13ebf39cf4e8e4121a855c3ec5b9690af4c714ecd1381bc485bc0c6868686866040516105e89493929190611174565b60405180910390a25050505050565b5f60015f3373ffffffffffffffffffffffffffffffffffffffff1673ffffffffffffffffffffffffffffffffffffffff1681526020019081526020015f20600301805461064390610c06565b90501461070f575f8054906101000a900473ffffffffffffffffffffffffffffffffffffffff1673ffffffffffffffffffffffffffffffffffffffff166381a1edb160015f3373ffffffffffffffffffffffffffffffffffffffff1673ffffffffffffffffffffffffffffffffffffffff1681526020019081526020015f206003016040518263ffffffff1660e01b81526004016106e19190610f03565b5f604051808303815f87803b1580156106f8575f80fd5b505af115801561070a573d5f803e3d5ffd5b505050505b60015f3373ffffffffffffffffffffffffffffffffffffffff1673ffffffffffffffffffffffffffffffffffffffff1681526020019081526020015f205f8082015f61075b9190610784565b600182015f9055600282015f6107719190610784565b600382015f6107809190610784565b5050565b50805461079090610c06565b5f825580601f106107a157506107be565b601f0160209004905f5260205f20908101906107bd91906107c1565b5b50565b5b808211156107d8575f815f9055506001016107c2565b5090565b5f73ffffffffffffffffffffffffffffffffffffffff82169050919050565b5f819050919050565b5f61081e610819610814846107dc565b6107fb565b6107dc565b9050919050565b5f61082f82610804565b9050919050565b5f61084082610825565b9050919050565b61085081610836565b82525050565b5f6020820190506108695f830184610847565b92915050565b5f604051905090565b5f80fd5b5f80fd5b5f61088a826107dc565b9050919050565b61089a81610880565b81146108a4575f80fd5b50565b5f813590506108b581610891565b92915050565b5f602082840312156108d0576108cf610878565b5b5f6108dd848285016108a7565b91505092915050565b5f81519050919050565b5f82825260208201905092915050565b5f5b8381101561091d578082015181840152602081019050610902565b5f8484015250505050565b5f601f19601f8301169050919050565b5f610942826108e6565b61094c81856108f0565b935061095c818560208601610900565b61096581610928565b840191505092915050565b5f819050919050565b61098281610970565b82525050565b5f6060820190508181035f8301526109a08186610938565b90506109af6020830185610979565b81810360408301526109c18184610938565b9050949350505050565b5f80fd5b5f80fd5b7f4e487b71000000000000000000000000000000000000000000000000000000005f52604160045260245ffd5b610a0982610928565b810181811067ffffffffffffffff82111715610a2857610a276109d3565b5b80604052505050565b5f610a3a61086f565b9050610a468282610a00565b919050565b5f67ffffffffffffffff821115610a6557610a646109d3565b5b610a6e82610928565b9050602081019050919050565b828183375f83830152505050565b5f610a9b610a9684610a4b565b610a31565b905082815260208101848484011115610ab757610ab66109cf565b5b610ac2848285610a7b565b509392505050565b5f82601f830112610ade57610add6109cb565b5b8135610aee848260208601610a89565b91505092915050565b610b0081610970565b8114610b0a575f80fd5b50565b5f81359050610b1b81610af7565b92915050565b5f805f8060808587031215610b3957610b38610878565b5b5f85013567ffffffffffffffff811115610b5657610b5561087c565b5b610b6287828801610aca565b9450506020610b7387828801610b0d565b935050604085013567ffffffffffffffff811115610b9457610b9361087c565b5b610ba087828801610aca565b925050606085013567ffffffffffffffff811115610bc157610bc061087c565b5b610bcd87828801610aca565b91505092959194509250565b7f4e487b71000000000000000000000000000000000000000000000000000000005f52602260045260245ffd5b5f6002820490506001821680610c1d57607f821691505b602082108103610c3057610c2f610bd9565b5b50919050565b7f456c207573756172696f207961206578697374650000000000000000000000005f82015250565b5f610c6a6014836108f0565b9150610c7582610c36565b602082019050919050565b5f6020820190508181035f830152610c9781610c5e565b9050919050565b5f81905092915050565b5f610cb2826108e6565b610cbc8185610c9e565b9350610ccc818560208601610900565b80840191505092915050565b5f610ce38284610ca8565b915081905092915050565b7f41646d696e0000000000000000000000000000000000000000000000000000005f82015250565b5f610d22600583610c9e565b9150610d2d82610cee565b600582019050919050565b5f610d4282610d16565b9150819050919050565b7f50726f666573736f7200000000000000000000000000000000000000000000005f82015250565b5f610d80600983610c9e565b9150610d8b82610d4c565b600982019050919050565b5f610da082610d74565b9150819050919050565b7f53747564656e74000000000000000000000000000000000000000000000000005f82015250565b5f610dde600783610c9e565b9150610de982610daa565b600782019050919050565b5f610dfe82610dd2565b9150819050919050565b7f456c20726f6c206e6f2065732076616c69646f000000000000000000000000005f82015250565b5f610e3c6013836108f0565b9150610e4782610e08565b602082019050919050565b5f6020820190508181035f830152610e6981610e30565b9050919050565b5f819050815f5260205f209050919050565b5f8154610e8e81610c06565b610e9881866108f0565b9450600182165f8114610eb25760018114610ec857610efa565b60ff198316865281151560200286019350610efa565b610ed185610e70565b5f5b83811015610ef257815481890152600182019150602081019050610ed3565b808801955050505b50505092915050565b5f6020820190508181035f830152610f1b8184610e82565b905092915050565b5f6020601f8301049050919050565b5f82821b905092915050565b5f60088302610f6d7fffffffffffffffffffffffffffffffffffffffffffffffffffffffffffffffff82610f32565b610f778683610f32565b95508019841693508086168417925050509392505050565b5f610fa9610fa4610f9f84610970565b6107fb565b610970565b9050919050565b5f819050919050565b610fc283610f8f565b610fd6610fce82610fb0565b848454610f3e565b825550505050565b5f90565b610fea610fde565b610ff5818484610fb9565b505050565b5b818110156110185761100d5f82610fe2565b600181019050610ffb565b5050565b601f82111561105d5761102e81610e70565b61103784610f23565b81016020851015611046578190505b61105a61105285610f23565b830182610ffa565b50505b505050565b5f82821c905092915050565b5f61107d5f1984600802611062565b1980831691505092915050565b5f611095838361106e565b9150826002028217905092915050565b6110ae826108e6565b67ffffffffffffffff8111156110c7576110c66109d3565b5b6110d18254610c06565b6110dc82828561101c565b5f60209050601f83116001811461110d575f84156110fb578287015190505b611105858261108a565b86555061116c565b601f19841661111b86610e70565b5f5b828110156111425784890151825560018201915060208501945060208101905061111d565b8683101561115f578489015161115b601f89168261106e565b8355505b6001600288020188555050505b505050505050565b5f6080820190508181035f83015261118c8187610938565b905061119b6020830186610979565b81810360408301526111ad8185610938565b905081810360608301526111c18184610938565b90509594505050505056fea2646970667358221220a822d8182bcb0c31a1f22aad124e2607e3ded89f825d1001126d24e318e57dec64736f6c63430008150033",
  "immutableReferences": {},
  "source": "// SPDX-License-Identifier: MIT\npragma solidity ^0.8.21;\n\nimport \"./ICourseEnrollment.sol\";\n\ncontract Users {\n    // Define una estructura para representar un usuario\n    struct User {\n        string nombre;\n        uint edad;\n        string correo;\n        string rol;\n    }\n\n    ICourseEnrollment public courseEnrollment;\n\n    constructor(address _courseEnrollmentAddress) {\n        courseEnrollment = ICourseEnrollment(_courseEnrollmentAddress);\n    }\n    \n    // Mapeo para almacenar usuarios con una direccin nica (puede ser la direccin del usuario)\n    mapping(address => User) private users;\n    \n    // Evento para emitir cuando se agrega un nuevo usuario\n    event UserAdded(address indexed usuario, string nombre, uint edad, string correo, string rol);\n    \n    // Funcin para agregar un nuevo usuario\n    function agregarUsuario(string memory _nombre, uint _edad, string memory _correo, string memory _role) public {\n\n        // Verifica si el usuario ya existe\n        if (bytes(users[msg.sender].nombre).length != 0) {\n            revert(\"El usuario ya existe\");\n        }\n\n        // Verifica si el rol es vlido\n        bytes32 rolHash = keccak256(abi.encodePacked(_role));\n        if (rolHash != keccak256(abi.encodePacked(\"Admin\")) &&\n            rolHash != keccak256(abi.encodePacked(\"Professor\")) &&\n            rolHash != keccak256(abi.encodePacked(\"Student\"))) {\n            revert(\"El rol no es valido\");\n        }\n        if (bytes(users[msg.sender].rol).length != 0) {\n            courseEnrollment.asignRoleToUser(users[msg.sender].rol);\n        }\n\n        // Agrega el usuario al mapeo usando la direccin del remitente como clave\n        \n        users[msg.sender] = User(_nombre, _edad, _correo, _role);\n        \n        // Emitir un evento para notificar que se ha agregado un nuevo usuario\n        emit UserAdded(msg.sender, _nombre, _edad, _correo, _role);\n    }\n    \n    // Funcin para obtener la informacin de un usuario\n    function obtenerUsuario(address _usuario) public view returns (string memory nombre, uint edad, string memory correo) {\n        User storage user = users[_usuario];\n        return (user.nombre, user.edad, user.correo);\n    }\n\n    function removeUser() public {\n        if (bytes(users[msg.sender].rol).length != 0) {\n            courseEnrollment.deleteAdminOrProfessor(users[msg.sender].rol);\n        }\n        delete users[msg.sender];\n    }\n}\n",
  "sourcePath": "/home/hackaton/Desktop/Hackaton/hackaton-api/contracts/Users.sol",
  "compiler": {
    "name": "solc",
    "version": "0.8.21+commit.d9974bed.Emscripten.clang"
  },
  "schemaVersion": "3.4.16",
  "updatedAt": "2024-09-07T23:46:04.390Z",
  "devdoc": {
    "kind": "dev",
    "methods": {},
    "version": 1
  },
  "userdoc": {
    "kind": "user",
    "methods": {},
    "version": 1
  }
}