{
  "contractName": "UserManagement",
  "abi": [
    {
      "anonymous": false,
      "inputs": [
        {
          "indexed": true,
          "internalType": "address",
          "name": "usuario",
          "type": "address"
        },
        {
          "indexed": false,
          "internalType": "string",
          "name": "nombre",
          "type": "string"
        },
        {
          "indexed": false,
          "internalType": "uint256",
          "name": "edad",
          "type": "uint256"
        },
        {
          "indexed": false,
          "internalType": "string",
          "name": "correo",
          "type": "string"
        },
        {
          "indexed": false,
          "internalType": "string",
          "name": "rol",
          "type": "string"
        }
      ],
      "name": "UserAdded",
      "type": "event"
    },
    {
      "anonymous": false,
      "inputs": [
        {
          "indexed": true,
          "internalType": "address",
          "name": "usuario",
          "type": "address"
        }
      ],
      "name": "UserRemoved",
      "type": "event"
    },
    {
      "inputs": [
        {
          "internalType": "address",
          "name": "",
          "type": "address"
        }
      ],
      "name": "users",
      "outputs": [
        {
          "internalType": "string",
          "name": "nombre",
          "type": "string"
        },
        {
          "internalType": "uint256",
          "name": "edad",
          "type": "uint256"
        },
        {
          "internalType": "string",
          "name": "correo",
          "type": "string"
        },
        {
          "internalType": "string",
          "name": "rol",
          "type": "string"
        }
      ],
      "stateMutability": "view",
      "type": "function",
      "constant": true
    },
    {
      "inputs": [
        {
          "internalType": "string",
          "name": "_nombre",
          "type": "string"
        },
        {
          "internalType": "uint256",
          "name": "_edad",
          "type": "uint256"
        },
        {
          "internalType": "string",
          "name": "_correo",
          "type": "string"
        },
        {
          "internalType": "string",
          "name": "_rol",
          "type": "string"
        }
      ],
      "name": "addUser",
      "outputs": [],
      "stateMutability": "nonpayable",
      "type": "function"
    },
    {
      "inputs": [],
      "name": "removeUser",
      "outputs": [],
      "stateMutability": "nonpayable",
      "type": "function"
    },
    {
      "inputs": [
        {
          "internalType": "address",
          "name": "_usuario",
          "type": "address"
        }
      ],
      "name": "obtenerUsuario",
      "outputs": [
        {
          "internalType": "string",
          "name": "",
          "type": "string"
        },
        {
          "internalType": "uint256",
          "name": "",
          "type": "uint256"
        },
        {
          "internalType": "string",
          "name": "",
          "type": "string"
        },
        {
          "internalType": "string",
          "name": "",
          "type": "string"
        }
      ],
      "stateMutability": "view",
      "type": "function",
      "constant": true
    }
  ],
  "bytecode": "0x608060405234801561000f575f80fd5b50610f328061001d5f395ff3fe608060405234801561000f575f80fd5b506004361061004a575f3560e01c80634f78c5991461004e578063a87430ba14610081578063c9b2338d146100b4578063f944f4c7146100d0575b5f80fd5b61006860048036038101906100639190610830565b6100da565b60405161007894939291906108fd565b60405180910390f35b61009b60048036038101906100969190610830565b6102dd565b6040516100ab94939291906108fd565b60405180910390f35b6100ce60048036038101906100c99190610aab565b61049a565b005b6100d861062a565b005b60605f6060805f805f8773ffffffffffffffffffffffffffffffffffffffff1673ffffffffffffffffffffffffffffffffffffffff1681526020019081526020015f209050805f018160010154826002018360030183805461013b90610b90565b80601f016020809104026020016040519081016040528092919081815260200182805461016790610b90565b80156101b25780601f10610189576101008083540402835291602001916101b2565b820191905f5260205f20905b81548152906001019060200180831161019557829003601f168201915b505050505093508180546101c590610b90565b80601f01602080910402602001604051908101604052809291908181526020018280546101f190610b90565b801561023c5780601f106102135761010080835404028352916020019161023c565b820191905f5260205f20905b81548152906001019060200180831161021f57829003601f168201915b5050505050915080805461024f90610b90565b80601f016020809104026020016040519081016040528092919081815260200182805461027b90610b90565b80156102c65780601f1061029d576101008083540402835291602001916102c6565b820191905f5260205f20905b8154815290600101906020018083116102a957829003601f168201915b505050505090509450945094509450509193509193565b5f602052805f5260405f205f91509050805f0180546102fb90610b90565b80601f016020809104026020016040519081016040528092919081815260200182805461032790610b90565b80156103725780601f1061034957610100808354040283529160200191610372565b820191905f5260205f20905b81548152906001019060200180831161035557829003601f168201915b50505050509080600101549080600201805461038d90610b90565b80601f01602080910402602001604051908101604052809291908181526020018280546103b990610b90565b80156104045780601f106103db57610100808354040283529160200191610404565b820191905f5260205f20905b8154815290600101906020018083116103e757829003601f168201915b50505050509080600301805461041990610b90565b80601f016020809104026020016040519081016040528092919081815260200182805461044590610b90565b80156104905780601f1061046757610100808354040283529160200191610490565b820191905f5260205f20905b81548152906001019060200180831161047357829003601f168201915b5050505050905084565b5f805f3373ffffffffffffffffffffffffffffffffffffffff1673ffffffffffffffffffffffffffffffffffffffff1681526020019081526020015f205f0180546104e490610b90565b905014610526576040517f08c379a000000000000000000000000000000000000000000000000000000000815260040161051d90610c0a565b60405180910390fd5b6040518060800160405280858152602001848152602001838152602001828152505f803373ffffffffffffffffffffffffffffffffffffffff1673ffffffffffffffffffffffffffffffffffffffff1681526020019081526020015f205f820151815f0190816105969190610dc5565b506020820151816001015560408201518160020190816105b69190610dc5565b5060608201518160030190816105cc9190610dc5565b509050503373ffffffffffffffffffffffffffffffffffffffff167f93c49eb1f13ebf39cf4e8e4121a855c3ec5b9690af4c714ecd1381bc485bc0c68585858560405161061c94939291906108fd565b60405180910390a250505050565b5f805f3373ffffffffffffffffffffffffffffffffffffffff1673ffffffffffffffffffffffffffffffffffffffff1681526020019081526020015f205f01805461067490610b90565b9050036106b6576040517f08c379a00000000000000000000000000000000000000000000000000000000081526004016106ad90610ede565b60405180910390fd5b5f803373ffffffffffffffffffffffffffffffffffffffff1673ffffffffffffffffffffffffffffffffffffffff1681526020019081526020015f205f8082015f610701919061076d565b600182015f9055600282015f610717919061076d565b600382015f610726919061076d565b50503373ffffffffffffffffffffffffffffffffffffffff167fe9dce8c992623ce791725b21e857e33248d1f190a25b5168313420eebdaae99d60405160405180910390a2565b50805461077990610b90565b5f825580601f1061078a57506107a7565b601f0160209004905f5260205f20908101906107a691906107aa565b5b50565b5b808211156107c1575f815f9055506001016107ab565b5090565b5f604051905090565b5f80fd5b5f80fd5b5f73ffffffffffffffffffffffffffffffffffffffff82169050919050565b5f6107ff826107d6565b9050919050565b61080f816107f5565b8114610819575f80fd5b50565b5f8135905061082a81610806565b92915050565b5f60208284031215610845576108446107ce565b5b5f6108528482850161081c565b91505092915050565b5f81519050919050565b5f82825260208201905092915050565b5f5b83811015610892578082015181840152602081019050610877565b5f8484015250505050565b5f601f19601f8301169050919050565b5f6108b78261085b565b6108c18185610865565b93506108d1818560208601610875565b6108da8161089d565b840191505092915050565b5f819050919050565b6108f7816108e5565b82525050565b5f6080820190508181035f83015261091581876108ad565b905061092460208301866108ee565b818103604083015261093681856108ad565b9050818103606083015261094a81846108ad565b905095945050505050565b5f80fd5b5f80fd5b7f4e487b71000000000000000000000000000000000000000000000000000000005f52604160045260245ffd5b6109938261089d565b810181811067ffffffffffffffff821117156109b2576109b161095d565b5b80604052505050565b5f6109c46107c5565b90506109d0828261098a565b919050565b5f67ffffffffffffffff8211156109ef576109ee61095d565b5b6109f88261089d565b9050602081019050919050565b828183375f83830152505050565b5f610a25610a20846109d5565b6109bb565b905082815260208101848484011115610a4157610a40610959565b5b610a4c848285610a05565b509392505050565b5f82601f830112610a6857610a67610955565b5b8135610a78848260208601610a13565b91505092915050565b610a8a816108e5565b8114610a94575f80fd5b50565b5f81359050610aa581610a81565b92915050565b5f805f8060808587031215610ac357610ac26107ce565b5b5f85013567ffffffffffffffff811115610ae057610adf6107d2565b5b610aec87828801610a54565b9450506020610afd87828801610a97565b935050604085013567ffffffffffffffff811115610b1e57610b1d6107d2565b5b610b2a87828801610a54565b925050606085013567ffffffffffffffff811115610b4b57610b4a6107d2565b5b610b5787828801610a54565b91505092959194509250565b7f4e487b71000000000000000000000000000000000000000000000000000000005f52602260045260245ffd5b5f6002820490506001821680610ba757607f821691505b602082108103610bba57610bb9610b63565b5b50919050565b7f456c207573756172696f207961206578697374650000000000000000000000005f82015250565b5f610bf4601483610865565b9150610bff82610bc0565b602082019050919050565b5f6020820190508181035f830152610c2181610be8565b9050919050565b5f819050815f5260205f209050919050565b5f6020601f8301049050919050565b5f82821b905092915050565b5f60088302610c847fffffffffffffffffffffffffffffffffffffffffffffffffffffffffffffffff82610c49565b610c8e8683610c49565b95508019841693508086168417925050509392505050565b5f819050919050565b5f610cc9610cc4610cbf846108e5565b610ca6565b6108e5565b9050919050565b5f819050919050565b610ce283610caf565b610cf6610cee82610cd0565b848454610c55565b825550505050565b5f90565b610d0a610cfe565b610d15818484610cd9565b505050565b5b81811015610d3857610d2d5f82610d02565b600181019050610d1b565b5050565b601f821115610d7d57610d4e81610c28565b610d5784610c3a565b81016020851015610d66578190505b610d7a610d7285610c3a565b830182610d1a565b50505b505050565b5f82821c905092915050565b5f610d9d5f1984600802610d82565b1980831691505092915050565b5f610db58383610d8e565b9150826002028217905092915050565b610dce8261085b565b67ffffffffffffffff811115610de757610de661095d565b5b610df18254610b90565b610dfc828285610d3c565b5f60209050601f831160018114610e2d575f8415610e1b578287015190505b610e258582610daa565b865550610e8c565b601f198416610e3b86610c28565b5f5b82811015610e6257848901518255600182019150602085019450602081019050610e3d565b86831015610e7f5784890151610e7b601f891682610d8e565b8355505b6001600288020188555050505b505050505050565b7f456c207573756172696f206e6f206578697374650000000000000000000000005f82015250565b5f610ec8601483610865565b9150610ed382610e94565b602082019050919050565b5f6020820190508181035f830152610ef581610ebc565b905091905056fea2646970667358221220d83a45cf8598e2f574b3f158f32a04e5c379e671ba5f875772417e093974199e64736f6c63430008150033",
  "immutableReferences": {},
  "source": "// SPDX-License-Identifier: MIT\npragma solidity ^0.8.21;\n\ncontract UserManagement {\n    struct User {\n        string nombre;\n        uint edad;\n        string correo;\n        string rol;\n    }\n\n    mapping(address => User) public users;\n\n    event UserAdded(address indexed usuario, string nombre, uint edad, string correo, string rol);\n    event UserRemoved(address indexed usuario);\n\n    function addUser(string memory _nombre, uint _edad, string memory _correo, string memory _rol) public {\n        require(bytes(users[msg.sender].nombre).length == 0, \"El usuario ya existe\");\n        users[msg.sender] = User(_nombre, _edad, _correo, _rol);\n        emit UserAdded(msg.sender, _nombre, _edad, _correo, _rol);\n    }\n\n    function removeUser() public {\n        require(bytes(users[msg.sender].nombre).length != 0, \"El usuario no existe\");\n        delete users[msg.sender];\n        emit UserRemoved(msg.sender);\n    }\n\n    function obtenerUsuario(address _usuario) public view returns (string memory, uint, string memory, string memory) {\n        User storage user = users[_usuario];\n        return (user.nombre, user.edad, user.correo, user.rol);\n    }\n}\n",
  "sourcePath": "/home/hackaton/Desktop/hackaton-api/contracts/UserManagement.sol",
  "compiler": {
    "name": "solc",
    "version": "0.8.21+commit.d9974bed.Emscripten.clang"
  },
  "schemaVersion": "3.4.16",
  "updatedAt": "2024-09-08T15:35:06.174Z",
  "networkType": "ethereum",
  "devdoc": {
    "kind": "dev",
    "methods": {},
    "version": 1
  },
  "userdoc": {
    "kind": "user",
    "methods": {},
    "version": 1
  }
}